Component: ARM Compiler 6.16 Tool: armlink [5dfeaa00]

==============================================================================

Section Cross References

    board.o(.text.BOARD_DebugConsoleSrcFreq) refers to board.o(.text.CLOCK_GetMux) for CLOCK_GetMux
    board.o(.text.BOARD_DebugConsoleSrcFreq) refers to board.o(.text.CLOCK_GetOscFreq) for CLOCK_GetOscFreq
    board.o(.text.BOARD_DebugConsoleSrcFreq) refers to fsl_clock.o(.text.CLOCK_GetPllFreq) for CLOCK_GetPllFreq
    board.o(.text.BOARD_DebugConsoleSrcFreq) refers to board.o(.text.CLOCK_GetDiv) for CLOCK_GetDiv
    board.o(.ARM.exidx.text.BOARD_DebugConsoleSrcFreq) refers to board.o(.text.BOARD_DebugConsoleSrcFreq) for [Anonymous Symbol]
    board.o(.ARM.exidx.text.CLOCK_GetMux) refers to board.o(.text.CLOCK_GetMux) for [Anonymous Symbol]
    board.o(.ARM.exidx.text.CLOCK_GetDiv) refers to board.o(.text.CLOCK_GetDiv) for [Anonymous Symbol]
    board.o(.text.CLOCK_GetOscFreq) refers to fsl_clock.o(.bss.g_xtalFreq) for g_xtalFreq
    board.o(.ARM.exidx.text.CLOCK_GetOscFreq) refers to board.o(.text.CLOCK_GetOscFreq) for [Anonymous Symbol]
    board.o(.text.BOARD_InitDebugConsole) refers to board.o(.text.BOARD_DebugConsoleSrcFreq) for BOARD_DebugConsoleSrcFreq
    board.o(.text.BOARD_InitDebugConsole) refers to fsl_debug_console.o(.text.DbgConsole_Init) for DbgConsole_Init
    board.o(.ARM.exidx.text.BOARD_InitDebugConsole) refers to board.o(.text.BOARD_InitDebugConsole) for [Anonymous Symbol]
    board.o(.text.BOARD_ConfigMPU) refers to board.o(.text.ARM_MPU_Disable) for ARM_MPU_Disable
    board.o(.text.BOARD_ConfigMPU) refers to board.o(.text.ARM_MPU_Enable) for ARM_MPU_Enable
    board.o(.text.BOARD_ConfigMPU) refers to board.o(.rodata.str1.1) for .L.str.1
    board.o(.text.BOARD_ConfigMPU) refers to fsl_assert.o(.text.__aeabi_assert) for __aeabi_assert
    board.o(.ARM.exidx.text.BOARD_ConfigMPU) refers to board.o(.text.BOARD_ConfigMPU) for [Anonymous Symbol]
    board.o(.ARM.exidx.text.ARM_MPU_Disable) refers to board.o(.text.ARM_MPU_Disable) for [Anonymous Symbol]
==============================================================================

Removing Unused input sections from the image.

    Removing board.o(.text), (0 bytes).
    Removing board.o(.ARM.exidx.text.BOARD_DebugConsoleSrcFreq), (8 bytes).
    Removing board.o(.ARM.exidx.text.CLOCK_GetMux), (8 bytes).
    Removing board.o(.ARM.exidx.text.CLOCK_GetDiv), (8 bytes).
    Removing board.o(.ARM.exidx.text.CLOCK_GetOscFreq), (8 bytes).
    Removing board.o(.ARM.exidx.text.BOARD_InitDebugConsole), (8 bytes).
    Removing board.o(.ARM.exidx.text.BOARD_ConfigMPU), (8 bytes).
    Removing board.o(.ARM.exidx.text.ARM_MPU_Disable), (8 bytes).
    Removing board.o(.ARM.exidx.text.ARM_MPU_Enable), (8 bytes).
    Removing clock_config.o(.text), (0 bytes).
    Removing clock_config.o(.ARM.exidx.text.BOARD_InitBootClocks), (8 bytes).
    Removing clock_config.o(.ARM.exidx.text.BOARD_BootClockRUN), (8 bytes).
    Removing clock_config.o(.ARM.exidx.text.CLOCK_SetRtcXtalFreq), (8 bytes).
    Removing clock_config.o(.ARM.exidx.text.CLOCK_SetXtalFreq), (8 bytes).
    Removing clock_config.o(.ARM.exidx.text.CLOCK_SetMux), (8 bytes).
    Removing clock_config.o(.ARM.exidx.text.CLOCK_SetDiv), (8 bytes).
    Removing clock_config.o(.ARM.exidx.text.CLOCK_DisableClock), (8 bytes).
    Removing clock_config.o(.ARM.exidx.text.CLOCK_SetPllBypass), (8 bytes).
==============================================================================

Image Symbol Table

    Local Symbols

    Symbol Name                              Value     Ov Type        Size  Object(Section)

    ../clib/division.s                       0x00000000   Number         0  aeabi_sdiv.o ABSOLUTE
    ../clib/microlib/ctype/ctype.c           0x00000000   Number         0  isspace_c.o ABSOLUTE
    ../clib/microlib/ctype/ctype.c           0x00000000   Number         0  ctype_c.o ABSOLUTE
    ../clib/microlib/ctype/tolower.c         0x00000000   Number         0  tolower.o ABSOLUTE
    ../clib/microlib/division.c              0x00000000   Number         0  uldiv.o ABSOLUTE
    ../clib/microlib/division.c              0x00000000   Number         0  uidiv.o ABSOLUTE
    ../clib/microlib/init/entry.s            0x00000000   Number         0  entry.o ABSOLUTE
    ../clib/microlib/init/entry.s            0x00000000   Number         0  entry4.o ABSOLUTE
    ../clib/microlib/init/entry.s            0x00000000   Number         0  entry5.o ABSOLUTE
    ../clib/microlib/init/entry.s            0x00000000   Number         0  entry7a.o ABSOLUTE
    ../clib/microlib/init/entry.s            0x00000000   Number         0  entry7b.o ABSOLUTE
    ../clib/microlib/init/entry.s            0x00000000   Number         0  entry8a.o ABSOLUTE
    ../clib/microlib/init/entry.s            0x00000000   Number         0  entry8b.o ABSOLUTE
    ../clib/microlib/init/entry.s            0x00000000   Number         0  entry9a.o ABSOLUTE
    ../clib/microlib/init/entry.s            0x00000000   Number         0  entry9b.o ABSOLUTE
    ../clib/microlib/init/entry.s            0x00000000   Number         0  entry10a.o ABSOLUTE
    ../clib/microlib/init/entry.s            0x00000000   Number         0  entry10b.o ABSOLUTE
    ../clib/microlib/init/entry.s            0x00000000   Number         0  entry11a.o ABSOLUTE
    ../clib/microlib/init/entry.s            0x00000000   Number         0  entry11b.o ABSOLUTE
    ../clib/microlib/longlong.c              0x00000000   Number         0  llshl.o ABSOLUTE
    ../clib/microlib/longlong.c              0x00000000   Number         0  llushr.o ABSOLUTE
    ../clib/microlib/longlong.c              0x00000000   Number         0  llsshr.o ABSOLUTE
    ../clib/microlib/malloc/malloc.c         0x00000000   Number         0  malloc2.o ABSOLUTE
    ../clib/microlib/malloc/malloc.c         0x00000000   Number         0  mallocr2.o ABSOLUTE
    ../clib/microlib/malloc/malloc.c         0x00000000   Number         0  malloca2.o ABSOLUTE
    ../clib/microlib/malloc/malloc.c         0x00000000   Number         0  mallocra2.o ABSOLUTE
    ../clib/microlib/malloc/mvars.c          0x00000000   Number         0  mvars.o ABSOLUTE
    ../clib/microlib/printf/printf.c         0x00000000   Number         0  printfb.o ABSOLUTE
    ../clib/microlib/printf/printf.c         0x00000000   Number         0  printf0.o ABSOLUTE
    ../clib/microlib/printf/printf.c         0x00000000   Number         0  printf1.o ABSOLUTE
    ../clib/microlib/printf/printf.c         0x00000000   Number         0  printf2.o ABSOLUTE
    ../clib/microlib/printf/printf.c         0x00000000   Number         0  printf3.o ABSOLUTE
    ../clib/microlib/printf/printf.c         0x00000000   Number         0  printf4.o ABSOLUTE
    ../clib/microlib/printf/printf.c         0x00000000   Number         0  printf5.o ABSOLUTE
    ../clib/microlib/printf/printf.c         0x00000000   Number         0  printf6.o ABSOLUTE
    ../clib/microlib/printf/printf.c         0x00000000   Number         0  printf7.o ABSOLUTE
    ../clib/microlib/printf/printf.c         0x00000000   Number         0  printf8.o ABSOLUTE
    ../clib/microlib/printf/printf.c         0x00000000   Number         0  printfa.o ABSOLUTE
    ../clib/microlib/printf/stubs.s          0x00000000   Number         0  printfstubs.o ABSOLUTE
    ../clib/microlib/stdlib/rand.c           0x00000000   Number         0  rand.o ABSOLUTE
    ../clib/microlib/string/memcmp.c         0x00000000   Number         0  memcmp.o ABSOLUTE
    ../clib/microlib/string/memcpy.c         0x00000000   Number         0  memcpy.o ABSOLUTE
    ../clib/microlib/string/memcpy.c         0x00000000   Number         0  memcpya.o ABSOLUTE
    ../clib/microlib/string/memcpy.c         0x00000000   Number         0  memcpyb.o ABSOLUTE
    ../clib/microlib/string/memcpy.c         0x00000000   Number         0  memcpyc.o ABSOLUTE
    ../clib/microlib/string/memset.c         0x00000000   Number         0  memset.o ABSOLUTE
    ../clib/microlib/string/memset.c         0x00000000   Number         0  memseta.o ABSOLUTE
    ../clib/microlib/string/strcmp.c         0x00000000   Number         0  strcmp.o ABSOLUTE
    ../clib/microlib/string/strcpy.c         0x00000000   Number         0  strcpy.o ABSOLUTE
    ../clib/microlib/string/strlen.c         0x00000000   Number         0  strlen.o ABSOLUTE
    ../clib/microlib/string/strncmp.c        0x00000000   Number         0  strncmp.o ABSOLUTE
    ../clib/microlib/string/strncpy.c        0x00000000   Number         0  strncpy.o ABSOLUTE
    ../clib/microlib/string/strstr.c         0x00000000   Number         0  strstr.o ABSOLUTE
    ../clib/microlib/stubs.s                 0x00000000   Number         0  iusefp.o ABSOLUTE
    ../clib/scanf.c                          0x00000000   Number         0  __0sscanf.o ABSOLUTE
    ../clib/scanf.c                          0x00000000   Number         0  _scanf_str.o ABSOLUTE
    ../clib/scanf.c                          0x00000000   Number         0  scanf_fp.o ABSOLUTE
    ../clib/scanf.c                          0x00000000   Number         0  scanf_char.o ABSOLUTE
    ../clib/scanf.c                          0x00000000   Number         0  _sgetc.o ABSOLUTE
    ../clib/scanf.c                          0x00000000   Number         0  strtod.o ABSOLUTE
    ../clib/scanf.c                          0x00000000   Number         0  _scanf.o ABSOLUTE
    ../fplib/microlib/d2f.c                  0x00000000   Number         0  d2f.o ABSOLUTE
    ../fplib/microlib/fpadd.c                0x00000000   Number         0  dadd.o ABSOLUTE
    ../fplib/microlib/fpdiv.c                0x00000000   Number         0  ddiv.o ABSOLUTE
    ../fplib/microlib/fpepilogue.c           0x00000000   Number         0  fepilogue.o ABSOLUTE
    ../fplib/microlib/fpepilogue.c           0x00000000   Number         0  depilogue.o ABSOLUTE
    ../fplib/microlib/fpfix.c                0x00000000   Number         0  dfixul.o ABSOLUTE
    ../fplib/microlib/fpflt.c                0x00000000   Number         0  dfltul.o ABSOLUTE
    ../fplib/microlib/fpmul.c                0x00000000   Number         0  dmul.o ABSOLUTE
    ../mathlib/strtod.c                      0x00000000   Number         0  strtod.o ABSOLUTE
    MQTTConnectClient.c                      0x00000000   Number         0  mqttconnectclient.o ABSOLUTE
    MQTTConnectServer.c                      0x00000000   Number         0  mqttconnectserver.o ABSOLUTE
    MQTTDeserializePublish.c                 0x00000000   Number         0  mqttdeserializepublish.o ABSOLUTE
    MQTTFormat.c                             0x00000000   Number         0  mqttformat.o ABSOLUTE
    MQTTPacket.c                             0x00000000   Number         0  mqttpacket.o ABSOLUTE
    MQTTSerializePublish.c                   0x00000000   Number         0  mqttserializepublish.o ABSOLUTE
    MQTTSubscribeClient.c                    0x00000000   Number         0  mqttsubscribeclient.o ABSOLUTE
    MQTTSubscribeServer.c                    0x00000000   Number         0  mqttsubscribeserver.o ABSOLUTE
    MQTTUnsubscribeClient.c                  0x00000000   Number         0  mqttunsubscribeclient.o ABSOLUTE
    MQTTUnsubscribeServer.c                  0x00000000   Number         0  mqttunsubscribeserver.o ABSOLUTE
    bh1750_i2c_drv.c                         0x00000000   Number         0  bh1750_i2c_drv.o ABSOLUTE
    board.c                                  0x00000000   Number         0  board.o ABSOLUTE
    cJSON.c                                  0x00000000   Number         0  cjson.o ABSOLUTE
    cdrcmple.s                               0x00000000   Number         0  cdrcmple.o ABSOLUTE
    clock_config.c                           0x00000000   Number         0  clock_config.o ABSOLUTE
    cmsis_os.c                               0x00000000   Number         0  cmsis_os.o ABSOLUTE
    dc.s                                     0x00000000   Number         0  dc.o ABSOLUTE
    dcd.c                                    0x00000000   Number         0  dcd.o ABSOLUTE
    delay.c                                  0x00000000   Number         0  delay.o ABSOLUTE
    esp8266.c                                0x00000000   Number         0  esp8266.o ABSOLUTE
    evkmimxrt1060_flexspi_nor_config.c       0x00000000   Number         0  evkmimxrt1060_flexspi_nor_config.o ABSOLUTE
    fsl_adapter_lpuart.c                     0x00000000   Number         0  fsl_adapter_lpuart.o ABSOLUTE
    fsl_adc.c                                0x00000000   Number         0  fsl_adc.o ABSOLUTE
    fsl_adc_etc.c                            0x00000000   Number         0  fsl_adc_etc.o ABSOLUTE
    fsl_aipstz.c                             0x00000000   Number         0  fsl_aipstz.o ABSOLUTE
    fsl_aoi.c                                0x00000000   Number         0  fsl_aoi.o ABSOLUTE
    fsl_assert.c                             0x00000000   Number         0  fsl_assert.o ABSOLUTE
    fsl_bee.c                                0x00000000   Number         0  fsl_bee.o ABSOLUTE
    fsl_cache.c                              0x00000000   Number         0  fsl_cache.o ABSOLUTE
    fsl_clock.c                              0x00000000   Number         0  fsl_clock.o ABSOLUTE
    fsl_cmp.c                                0x00000000   Number         0  fsl_cmp.o ABSOLUTE
    fsl_common.c                             0x00000000   Number         0  fsl_common.o ABSOLUTE
    fsl_component_generic_list.c             0x00000000   Number         0  fsl_component_generic_list.o ABSOLUTE
    fsl_csi.c                                0x00000000   Number         0  fsl_csi.o ABSOLUTE
    fsl_dcdc.c                               0x00000000   Number         0  fsl_dcdc.o ABSOLUTE
    fsl_dcp.c                                0x00000000   Number         0  fsl_dcp.o ABSOLUTE
    fsl_debug_console.c                      0x00000000   Number         0  fsl_debug_console.o ABSOLUTE
    fsl_dmamux.c                             0x00000000   Number         0  fsl_dmamux.o ABSOLUTE
    fsl_edma.c                               0x00000000   Number         0  fsl_edma.o ABSOLUTE
    fsl_elcdif.c                             0x00000000   Number         0  fsl_elcdif.o ABSOLUTE
    fsl_enc.c                                0x00000000   Number         0  fsl_enc.o ABSOLUTE
    fsl_enet.c                               0x00000000   Number         0  fsl_enet.o ABSOLUTE
    fsl_ewm.c                                0x00000000   Number         0  fsl_ewm.o ABSOLUTE
    fsl_flexcan.c                            0x00000000   Number         0  fsl_flexcan.o ABSOLUTE
    fsl_flexcan_edma.c                       0x00000000   Number         0  fsl_flexcan_edma.o ABSOLUTE
    fsl_flexio.c                             0x00000000   Number         0  fsl_flexio.o ABSOLUTE
    fsl_flexio_camera.c                      0x00000000   Number         0  fsl_flexio_camera.o ABSOLUTE
    fsl_flexio_camera_edma.c                 0x00000000   Number         0  fsl_flexio_camera_edma.o ABSOLUTE
    fsl_flexio_i2c_master.c                  0x00000000   Number         0  fsl_flexio_i2c_master.o ABSOLUTE
    fsl_flexio_i2s.c                         0x00000000   Number         0  fsl_flexio_i2s.o ABSOLUTE
    fsl_flexio_i2s_edma.c                    0x00000000   Number         0  fsl_flexio_i2s_edma.o ABSOLUTE
    fsl_flexio_mculcd.c                      0x00000000   Number         0  fsl_flexio_mculcd.o ABSOLUTE
    fsl_flexio_mculcd_edma.c                 0x00000000   Number         0  fsl_flexio_mculcd_edma.o ABSOLUTE
    fsl_flexio_spi.c                         0x00000000   Number         0  fsl_flexio_spi.o ABSOLUTE
    fsl_flexio_spi_edma.c                    0x00000000   Number         0  fsl_flexio_spi_edma.o ABSOLUTE
    fsl_flexio_uart.c                        0x00000000   Number         0  fsl_flexio_uart.o ABSOLUTE
    fsl_flexio_uart_edma.c                   0x00000000   Number         0  fsl_flexio_uart_edma.o ABSOLUTE
    fsl_flexram.c                            0x00000000   Number         0  fsl_flexram.o ABSOLUTE
    fsl_flexram_allocate.c                   0x00000000   Number         0  fsl_flexram_allocate.o ABSOLUTE
    fsl_flexspi.c                            0x00000000   Number         0  fsl_flexspi.o ABSOLUTE
    fsl_flexspi_edma.c                       0x00000000   Number         0  fsl_flexspi_edma.o ABSOLUTE
    fsl_flexspi_nor_boot.c                   0x00000000   Number         0  fsl_flexspi_nor_boot.o ABSOLUTE
    fsl_gpc.c                                0x00000000   Number         0  fsl_gpc.o ABSOLUTE
    fsl_gpio.c                               0x00000000   Number         0  fsl_gpio.o ABSOLUTE
    fsl_gpt.c                                0x00000000   Number         0  fsl_gpt.o ABSOLUTE
    fsl_kpp.c                                0x00000000   Number         0  fsl_kpp.o ABSOLUTE
    fsl_lpi2c.c                              0x00000000   Number         0  fsl_lpi2c.o ABSOLUTE
    fsl_lpi2c_edma.c                         0x00000000   Number         0  fsl_lpi2c_edma.o ABSOLUTE
    fsl_lpspi.c                              0x00000000   Number         0  fsl_lpspi.o ABSOLUTE
    fsl_lpspi_edma.c                         0x00000000   Number         0  fsl_lpspi_edma.o ABSOLUTE
    fsl_lpuart.c                             0x00000000   Number         0  fsl_lpuart.o ABSOLUTE
    fsl_lpuart_edma.c                        0x00000000   Number         0  fsl_lpuart_edma.o ABSOLUTE
    fsl_ocotp.c                              0x00000000   Number         0  fsl_ocotp.o ABSOLUTE
    fsl_pit.c                                0x00000000   Number         0  fsl_pit.o ABSOLUTE
    fsl_pmu.c                                0x00000000   Number         0  fsl_pmu.o ABSOLUTE
    fsl_pwm.c                                0x00000000   Number         0  fsl_pwm.o ABSOLUTE
    fsl_pxp.c                                0x00000000   Number         0  fsl_pxp.o ABSOLUTE
    fsl_qtmr.c                               0x00000000   Number         0  fsl_qtmr.o ABSOLUTE
    fsl_romapi.c                             0x00000000   Number         0  fsl_romapi.o ABSOLUTE
    fsl_rtwdog.c                             0x00000000   Number         0  fsl_rtwdog.o ABSOLUTE
    fsl_sai.c                                0x00000000   Number         0  fsl_sai.o ABSOLUTE
    fsl_sai_edma.c                           0x00000000   Number         0  fsl_sai_edma.o ABSOLUTE
    fsl_semc.c                               0x00000000   Number         0  fsl_semc.o ABSOLUTE
    fsl_snvs_hp.c                            0x00000000   Number         0  fsl_snvs_hp.o ABSOLUTE
    fsl_snvs_lp.c                            0x00000000   Number         0  fsl_snvs_lp.o ABSOLUTE
    fsl_spdif.c                              0x00000000   Number         0  fsl_spdif.o ABSOLUTE
    fsl_spdif_edma.c                         0x00000000   Number         0  fsl_spdif_edma.o ABSOLUTE
    fsl_src.c                                0x00000000   Number         0  fsl_src.o ABSOLUTE
    fsl_tempmon.c                            0x00000000   Number         0  fsl_tempmon.o ABSOLUTE
    fsl_trng.c                               0x00000000   Number         0  fsl_trng.o ABSOLUTE
    fsl_tsc.c                                0x00000000   Number         0  fsl_tsc.o ABSOLUTE
    fsl_usdhc.c                              0x00000000   Number         0  fsl_usdhc.o ABSOLUTE
    fsl_wdog.c                               0x00000000   Number         0  fsl_wdog.o ABSOLUTE
    fsl_xbara.c                              0x00000000   Number         0  fsl_xbara.o ABSOLUTE
    fsl_xbarb.c                              0x00000000   Number         0  fsl_xbarb.o ABSOLUTE
    handlers.s                               0x00000000   Number         0  handlers.o ABSOLUTE
    hc_sr04.c                                0x00000000   Number         0  hc_sr04.o ABSOLUTE
    init.s                                   0x00000000   Number         0  init.o ABSOLUTE
    main.c                                   0x00000000   Number         0  main.o ABSOLUTE
    mcu_init.c                               0x00000000   Number         0  mcu_init.o ABSOLUTE
    mqtt_list.c                              0x00000000   Number         0  mqtt_list.o ABSOLUTE
    mqttclient.c                             0x00000000   Number         0  mqttclient.o ABSOLUTE
    mqttclient_iot_explorer_bh1750.c         0x00000000   Number         0  mqttclient_iot_explorer_bh1750.o ABSOLUTE
    nettype_tcp.c                            0x00000000   Number         0  nettype_tcp.o ABSOLUTE
    nettype_tls.c                            0x00000000   Number         0  nettype_tls.o ABSOLUTE
    network.c                                0x00000000   Number         0  network.o ABSOLUTE
    pin_mux.c                                0x00000000   Number         0  pin_mux.o ABSOLUTE
    platform_memory.c                        0x00000000   Number         0  platform_memory.o ABSOLUTE
    platform_mutex.c                         0x00000000   Number         0  platform_mutex.o ABSOLUTE
    platform_net_socket.c                    0x00000000   Number         0  platform_net_socket.o ABSOLUTE
    platform_thread.c                        0x00000000   Number         0  platform_thread.o ABSOLUTE
    platform_timer.c                         0x00000000   Number         0  platform_timer.o ABSOLUTE
    port_c.c                                 0x00000000   Number         0  port_c.o ABSOLUTE
    random.c                                 0x00000000   Number         0  random.o ABSOLUTE
    sal_module_wrapper.c                     0x00000000   Number         0  sal_module_wrapper.o ABSOLUTE
    system_MIMXRT1062.c                      0x00000000   Number         0  system_mimxrt1062.o ABSOLUTE
    tos_at.c                                 0x00000000   Number         0  tos_at.o ABSOLUTE
    tos_barrier.c                            0x00000000   Number         0  tos_barrier.o ABSOLUTE
    tos_binary_heap.c                        0x00000000   Number         0  tos_binary_heap.o ABSOLUTE
    tos_bitmap.c                             0x00000000   Number         0  tos_bitmap.o ABSOLUTE
    tos_char_fifo.c                          0x00000000   Number         0  tos_char_fifo.o ABSOLUTE
    tos_completion.c                         0x00000000   Number         0  tos_completion.o ABSOLUTE
    tos_countdownlatch.c                     0x00000000   Number         0  tos_countdownlatch.o ABSOLUTE
    tos_cpu.c                                0x00000000   Number         0  tos_cpu.o ABSOLUTE
    tos_event.c                              0x00000000   Number         0  tos_event.o ABSOLUTE
    tos_global.c                             0x00000000   Number         0  tos_global.o ABSOLUTE
    tos_hal_uart.c                           0x00000000   Number         0  tos_hal_uart.o ABSOLUTE
    tos_mail_queue.c                         0x00000000   Number         0  tos_mail_queue.o ABSOLUTE
    tos_message_queue.c                      0x00000000   Number         0  tos_message_queue.o ABSOLUTE
    tos_mmblk.c                              0x00000000   Number         0  tos_mmblk.o ABSOLUTE
    tos_mmheap.c                             0x00000000   Number         0  tos_mmheap.o ABSOLUTE
    tos_mutex.c                              0x00000000   Number         0  tos_mutex.o ABSOLUTE
    tos_pend.c                               0x00000000   Number         0  tos_pend.o ABSOLUTE
    tos_priority_mail_queue.c                0x00000000   Number         0  tos_priority_mail_queue.o ABSOLUTE
    tos_priority_message_queue.c             0x00000000   Number         0  tos_priority_message_queue.o ABSOLUTE
    tos_priority_queue.c                     0x00000000   Number         0  tos_priority_queue.o ABSOLUTE
    tos_ring_queue.c                         0x00000000   Number         0  tos_ring_queue.o ABSOLUTE
    tos_robin.c                              0x00000000   Number         0  tos_robin.o ABSOLUTE
    tos_rwlock.c                             0x00000000   Number         0  tos_rwlock.o ABSOLUTE
    tos_sched.c                              0x00000000   Number         0  tos_sched.o ABSOLUTE
    tos_sem.c                                0x00000000   Number         0  tos_sem.o ABSOLUTE
    tos_stopwatch.c                          0x00000000   Number         0  tos_stopwatch.o ABSOLUTE
    tos_sys.c                                0x00000000   Number         0  tos_sys.o ABSOLUTE
    tos_task.c                               0x00000000   Number         0  tos_task.o ABSOLUTE
    tos_tick.c                               0x00000000   Number         0  tos_tick.o ABSOLUTE
    tos_time.c                               0x00000000   Number         0  tos_time.o ABSOLUTE
    tos_timer.c                              0x00000000   Number         0  tos_timer.o ABSOLUTE
    NVIC_PENDSV_PRI                          0x000000ff   Number         0  port_s.o ABSOLUTE
    NVIC_PENDSVSET                           0x10000000   Number         0  port_s.o ABSOLUTE
    global_hooks                             0x20000014   Data          12  cjson.o(.data.global_hooks)
    [Anonymous Symbol]                       0x20000014   Section        0  cjson.o(.data.global_hooks)
    s_flexcanIsr                             0x20000058   Data           4  fsl_flexcan.o(.data.s_flexcanIsr)
    [Anonymous Symbol]                       0x20000058   Section        0  fsl_flexcan.o(.data.s_flexcanIsr)
    s_lpuartIsr                              0x2000005c   Data           4  fsl_lpuart.o(.data.s_lpuartIsr)
    [Anonymous Symbol]                       0x2000005c   Section        0  fsl_lpuart.o(.data.s_lpuartIsr)
    s_usdhcIsr                               0x20000060   Data           4  fsl_usdhc.o(.data.s_usdhcIsr)
    [Anonymous Symbol]                       0x20000060   Section        0  fsl_usdhc.o(.data.s_usdhcIsr)
    at_agent                                 0x20001188   Data         992  tos_at.o(.bss.at_agent)
    [Anonymous Symbol]                       0x20001188   Section        0  tos_at.o(.bss.at_agent)
    at_parser_task_stack                     0x20001568   Data        2048  tos_at.o(.bss.at_parser_task_stack)
    [Anonymous Symbol]                       0x20001568   Section        0  tos_at.o(.bss.at_parser_task_stack)
    bufptr                                   0x200021f4   Data           4  mqttpacket.o(.bss.bufptr)
    [Anonymous Symbol]                       0x200021f4   Section        0  mqttpacket.o(.bss.bufptr)
    esp8266_incoming_data_process.buffer     0x200021f8   Data         128  esp8266.o(.bss.esp8266_incoming_data_process.buffer)
    [Anonymous Symbol]                       0x200021f8   Section        0  esp8266.o(.bss.esp8266_incoming_data_process.buffer)
    g_sal_module                             0x2000227c   Data           4  sal_module_wrapper.o(.bss.g_sal_module)
    [Anonymous Symbol]                       0x2000227c   Section        0  sal_module_wrapper.o(.bss.g_sal_module)
    global_error.0                           0x20002284   Data           4  cjson.o(.bss.global_error.0)
    [Anonymous Symbol]                       0x20002284   Section        0  cjson.o(.bss.global_error.0)
    global_error.1                           0x20002288   Data           4  cjson.o(.bss.global_error.1)
    [Anonymous Symbol]                       0x20002288   Section        0  cjson.o(.bss.global_error.1)
    s_EDMAHandle                             0x200132ec   Data         128  fsl_edma.o(.bss.s_EDMAHandle)
    [Anonymous Symbol]                       0x200132ec   Section        0  fsl_edma.o(.bss.s_EDMAHandle)
    s_ENETHandle                             0x2001336c   Data          12  fsl_enet.o(.bss.s_ENETHandle)
    [Anonymous Symbol]                       0x2001336c   Section        0  fsl_enet.o(.bss.s_ENETHandle)
    s_debugConsole                           0x20013378   Data          20  fsl_debug_console.o(.bss.s_debugConsole)
    [Anonymous Symbol]                       0x20013378   Section        0  fsl_debug_console.o(.bss.s_debugConsole)
    s_enetErrIsr                             0x2001338c   Data          12  fsl_enet.o(.bss.s_enetErrIsr)
    [Anonymous Symbol]                       0x2001338c   Section        0  fsl_enet.o(.bss.s_enetErrIsr)
    s_enetRxIsr                              0x20013398   Data          12  fsl_enet.o(.bss.s_enetRxIsr)
    [Anonymous Symbol]                       0x20013398   Section        0  fsl_enet.o(.bss.s_enetRxIsr)
    s_enetTxIsr                              0x200133a4   Data          12  fsl_enet.o(.bss.s_enetTxIsr)
    [Anonymous Symbol]                       0x200133a4   Section        0  fsl_enet.o(.bss.s_enetTxIsr)
    s_flexcanHandle                          0x200133b0   Data          16  fsl_flexcan.o(.bss.s_flexcanHandle)
    [Anonymous Symbol]                       0x200133b0   Section        0  fsl_flexcan.o(.bss.s_flexcanHandle)
    s_flexioHandle                           0x200133c0   Data           8  fsl_flexio.o(.bss.s_flexioHandle)
    [Anonymous Symbol]                       0x200133c0   Section        0  fsl_flexio.o(.bss.s_flexioHandle)
    s_flexioIsr                              0x200133c8   Data           8  fsl_flexio.o(.bss.s_flexioIsr)
    [Anonymous Symbol]                       0x200133c8   Section        0  fsl_flexio.o(.bss.s_flexioIsr)
    s_flexioType                             0x200133d0   Data           8  fsl_flexio.o(.bss.s_flexioType)
    [Anonymous Symbol]                       0x200133d0   Section        0  fsl_flexio.o(.bss.s_flexioType)
    s_flexspiHandle                          0x200133d8   Data          12  fsl_flexspi.o(.bss.s_flexspiHandle)
    [Anonymous Symbol]                       0x200133d8   Section        0  fsl_flexspi.o(.bss.s_flexspiHandle)
    s_lpi2cMasterHandle                      0x200133e4   Data          20  fsl_lpi2c.o(.bss.s_lpi2cMasterHandle)
    [Anonymous Symbol]                       0x200133e4   Section        0  fsl_lpi2c.o(.bss.s_lpi2cMasterHandle)
    s_lpi2cMasterIsr                         0x200133f8   Data           4  fsl_lpi2c.o(.bss.s_lpi2cMasterIsr)
    [Anonymous Symbol]                       0x200133f8   Section        0  fsl_lpi2c.o(.bss.s_lpi2cMasterIsr)
    s_lpi2cSlaveHandle                       0x200133fc   Data          20  fsl_lpi2c.o(.bss.s_lpi2cSlaveHandle)
    [Anonymous Symbol]                       0x200133fc   Section        0  fsl_lpi2c.o(.bss.s_lpi2cSlaveHandle)
    s_lpi2cSlaveIsr                          0x20013410   Data           4  fsl_lpi2c.o(.bss.s_lpi2cSlaveIsr)
    [Anonymous Symbol]                       0x20013410   Section        0  fsl_lpi2c.o(.bss.s_lpi2cSlaveIsr)
    s_lpspiHandle                            0x20013414   Data          20  fsl_lpspi.o(.bss.s_lpspiHandle)
    [Anonymous Symbol]                       0x20013414   Section        0  fsl_lpspi.o(.bss.s_lpspiHandle)
    s_lpuartHandle                           0x20013428   Data          36  fsl_lpuart.o(.bss.s_lpuartHandle)
    [Anonymous Symbol]                       0x20013428   Section        0  fsl_lpuart.o(.bss.s_lpuartHandle)
    s_saiHandle                              0x2001344c   Data          32  fsl_sai.o(.bss.s_saiHandle)
    [Anonymous Symbol]                       0x2001344c   Section        0  fsl_sai.o(.bss.s_saiHandle)
    s_spdifHandle.0.0                        0x2001346c   Data           4  fsl_spdif.o(.bss.s_spdifHandle.0.0)
    [Anonymous Symbol]                       0x2001346c   Section        0  fsl_spdif.o(.bss.s_spdifHandle.0.0)
    s_spdifHandle.0.1                        0x20013470   Data           4  fsl_spdif.o(.bss.s_spdifHandle.0.1)
    [Anonymous Symbol]                       0x20013470   Section        0  fsl_spdif.o(.bss.s_spdifHandle.0.1)
    s_spdifRxIsr                             0x20013474   Data           4  fsl_spdif.o(.bss.s_spdifRxIsr)
    [Anonymous Symbol]                       0x20013474   Section        0  fsl_spdif.o(.bss.s_spdifRxIsr)
    s_spdifTxIsr                             0x20013478   Data           4  fsl_spdif.o(.bss.s_spdifTxIsr)
    [Anonymous Symbol]                       0x20013478   Section        0  fsl_spdif.o(.bss.s_spdifTxIsr)
    s_usdhcHandle                            0x2001347c   Data          12  fsl_usdhc.o(.bss.s_usdhcHandle)
    [Anonymous Symbol]                       0x2001347c   Section        0  fsl_usdhc.o(.bss.s_usdhcHandle)
    __tagsym$$used.0                         0x60000000   Number         0  evkmimxrt1060_flexspi_nor_config.o(.boot_hdr.conf)
    __tagsym$$used.1                         0x60001000   Number         0  fsl_flexspi_nor_boot.o(.boot_hdr.ivt)
    __tagsym$$used.0                         0x60001020   Number         0  fsl_flexspi_nor_boot.o(.boot_hdr.boot_data)
    .ARM.Collect$$$$00000000                 0x60002400   Section        0  entry.o(.ARM.Collect$$$$00000000)
    .ARM.Collect$$$$00000003                 0x60002400   Section        4  entry4.o(.ARM.Collect$$$$00000003)
    .ARM.Collect$$$$00000004                 0x60002404   Section        4  entry5.o(.ARM.Collect$$$$00000004)
    .ARM.Collect$$$$00000008                 0x60002408   Section        0  entry7b.o(.ARM.Collect$$$$00000008)
    .ARM.Collect$$$$0000000A                 0x60002408   Section        0  entry8b.o(.ARM.Collect$$$$0000000A)
    .ARM.Collect$$$$0000000B                 0x60002408   Section        8  entry9a.o(.ARM.Collect$$$$0000000B)
    __lit__00000000                          0x60002410   Data           4  entry4.o(.ARM.Collect$$$$00002714)
    .ARM.Collect$$$$0000000D                 0x60002410   Section        0  entry10a.o(.ARM.Collect$$$$0000000D)
    .ARM.Collect$$$$0000000F                 0x60002410   Section        0  entry11a.o(.ARM.Collect$$$$0000000F)
    .ARM.Collect$$$$00002714                 0x60002410   Section        4  entry4.o(.ARM.Collect$$$$00002714)
    [Anonymous Symbol]                       0x60002414   Section        0  startup_mimxrt1062.o(.text)
    [Anonymous Symbol]                       0x60002608   Section        0  port_s.o(.text)
    _context_save                            0x600026a4   Number         0  port_s.o(.text)
    _context_restore                         0x600026c2   Number         0  port_s.o(.text)
    .text                                    0x600026f0   Section        0  uldiv.o(.text)
    .text                                    0x60002752   Section        0  tolower.o(.text)
    .text                                    0x6000275e   Section        0  memcpy.o(.text)
    .text                                    0x60002786   Section        0  memseta.o(.text)
    .text                                    0x600027aa   Section        0  strstr.o(.text)
    .text                                    0x600027ce   Section        0  strncpy.o(.text)
    .text                                    0x600027e6   Section        0  strlen.o(.text)
    .text                                    0x600027f4   Section        0  strcmp.o(.text)
    .text                                    0x60002810   Section        0  strncmp.o(.text)
    .text                                    0x60002830   Section        0  __0sscanf.o(.text)
    .text                                    0x60002868   Section        0  _scanf_str.o(.text)
    _fp_value                                0x60002949   Thumb Code   296  scanf_fp.o(.text)
    .text                                    0x60002948   Section        0  scanf_fp.o(.text)
    .text                                    0x60002ca8   Section        0  uidiv.o(.text)
    .text                                    0x60002cd4   Section        0  llshl.o(.text)
    .text                                    0x60002cf2   Section        0  llushr.o(.text)
    _scanf_char_input                        0x60002d15   Thumb Code    12  scanf_char.o(.text)
    .text                                    0x60002d14   Section        0  scanf_char.o(.text)
    .text                                    0x60002d3c   Section        0  _sgetc.o(.text)
    _local_sscanf                            0x60002d7d   Thumb Code    62  strtod.o(.text)
    .text                                    0x60002d7c   Section        0  strtod.o(.text)
    .text                                    0x60002e24   Section        0  iusefp.o(.text)
    .text                                    0x60002e24   Section        0  dadd.o(.text)
    .text                                    0x60002f72   Section        0  dmul.o(.text)
    .text                                    0x60003056   Section        0  ddiv.o(.text)
    .text                                    0x60003134   Section        0  dfltul.o(.text)
    .text                                    0x6000314c   Section        0  dfixul.o(.text)
    .text                                    0x6000317c   Section       48  cdrcmple.o(.text)
    .text                                    0x600031ac   Section        0  d2f.o(.text)
    .text                                    0x600031e4   Section       36  init.o(.text)
    .text                                    0x60003208   Section        0  llsshr.o(.text)
    .text                                    0x6000322c   Section        0  isspace_c.o(.text)
    .text                                    0x60003238   Section        0  _scanf.o(.text)
    .text                                    0x60003564   Section        0  fepilogue.o(.text)
    .text                                    0x600035d2   Section        0  depilogue.o(.text)
    .text                                    0x6000368c   Section        0  ctype_c.o(.text)
    ARM_MPU_Disable                          0x600036b9   Thumb Code    30  board.o(.text.ARM_MPU_Disable)
    [Anonymous Symbol]                       0x600036b8   Section        0  board.o(.text.ARM_MPU_Disable)
    ARM_MPU_Enable                           0x600036d9   Thumb Code    30  board.o(.text.ARM_MPU_Enable)
    [Anonymous Symbol]                       0x600036d8   Section        0  board.o(.text.ARM_MPU_Enable)
    [Anonymous Symbol]                       0x600036f8   Section        0  clock_config.o(.text.BOARD_BootClockRUN)
    [Anonymous Symbol]                       0x60003d40   Section        0  board.o(.text.BOARD_ConfigMPU)
    [Anonymous Symbol]                       0x60004000   Section        0  board.o(.text.BOARD_DebugConsoleSrcFreq)
    [Anonymous Symbol]                       0x60004038   Section        0  clock_config.o(.text.BOARD_InitBootClocks)
    [Anonymous Symbol]                       0x60004040   Section        0  board.o(.text.BOARD_InitDebugConsole)
    [Anonymous Symbol]                       0x60004058   Section        0  pin_mux.o(.text.BOARD_InitPins)
    [Anonymous Symbol]                       0x600042a0   Section        0  fsl_flexcan.o(.text.CAN1_DriverIRQHandler)
    [Anonymous Symbol]                       0x600042f8   Section        0  fsl_flexcan.o(.text.CAN2_DriverIRQHandler)
    [Anonymous Symbol]                       0x60004350   Section        0  fsl_flexcan.o(.text.CAN3_DriverIRQHandler)
    CLOCK_ControlGate                        0x600043a9   Thumb Code    60  clock_config.o(.text.CLOCK_ControlGate)
    [Anonymous Symbol]                       0x600043a8   Section        0  clock_config.o(.text.CLOCK_ControlGate)
    CLOCK_ControlGate                        0x60004409   Thumb Code    18  pin_mux.o(.text.CLOCK_ControlGate)
    [Anonymous Symbol]                       0x60004408   Section        0  pin_mux.o(.text.CLOCK_ControlGate)
    CLOCK_ControlGate                        0x60004421   Thumb Code    60  fsl_gpio.o(.text.CLOCK_ControlGate)
    [Anonymous Symbol]                       0x60004420   Section        0  fsl_gpio.o(.text.CLOCK_ControlGate)
    CLOCK_ControlGate                        0x60004481   Thumb Code    68  fsl_gpt.o(.text.CLOCK_ControlGate)
    [Anonymous Symbol]                       0x60004480   Section        0  fsl_gpt.o(.text.CLOCK_ControlGate)
    CLOCK_ControlGate                        0x600044e9   Thumb Code    68  fsl_lpi2c.o(.text.CLOCK_ControlGate)
    [Anonymous Symbol]                       0x600044e8   Section        0  fsl_lpi2c.o(.text.CLOCK_ControlGate)
    CLOCK_ControlGate                        0x60004551   Thumb Code    68  fsl_lpuart.o(.text.CLOCK_ControlGate)
    [Anonymous Symbol]                       0x60004550   Section        0  fsl_lpuart.o(.text.CLOCK_ControlGate)
    CLOCK_ControlGate                        0x600045b9   Thumb Code    68  fsl_pwm.o(.text.CLOCK_ControlGate)
    [Anonymous Symbol]                       0x600045b8   Section        0  fsl_pwm.o(.text.CLOCK_ControlGate)
    CLOCK_ControlGate                        0x60004621   Thumb Code    68  fsl_xbara.o(.text.CLOCK_ControlGate)
    [Anonymous Symbol]                       0x60004620   Section        0  fsl_xbara.o(.text.CLOCK_ControlGate)
    [Anonymous Symbol]                       0x60004688   Section        0  fsl_clock.o(.text.CLOCK_DeinitAudioPll)
    [Anonymous Symbol]                       0x60004698   Section        0  fsl_clock.o(.text.CLOCK_DeinitEnetPll)
    [Anonymous Symbol]                       0x600046a8   Section        0  fsl_clock.o(.text.CLOCK_DeinitUsb2Pll)
    CLOCK_DisableClock                       0x600046b9   Thumb Code     8  clock_config.o(.text.CLOCK_DisableClock)
    [Anonymous Symbol]                       0x600046b8   Section        0  clock_config.o(.text.CLOCK_DisableClock)
    CLOCK_DisableClock                       0x600046c1   Thumb Code    10  fsl_lpuart.o(.text.CLOCK_DisableClock)
    [Anonymous Symbol]                       0x600046c0   Section        0  fsl_lpuart.o(.text.CLOCK_DisableClock)
    CLOCK_EnableClock                        0x600046d1   Thumb Code     8  pin_mux.o(.text.CLOCK_EnableClock)
    [Anonymous Symbol]                       0x600046d0   Section        0  pin_mux.o(.text.CLOCK_EnableClock)
    CLOCK_EnableClock                        0x600046d9   Thumb Code     8  fsl_gpio.o(.text.CLOCK_EnableClock)
    [Anonymous Symbol]                       0x600046d8   Section        0  fsl_gpio.o(.text.CLOCK_EnableClock)
    CLOCK_EnableClock                        0x600046e1   Thumb Code    10  fsl_gpt.o(.text.CLOCK_EnableClock)
    [Anonymous Symbol]                       0x600046e0   Section        0  fsl_gpt.o(.text.CLOCK_EnableClock)
    CLOCK_EnableClock                        0x600046f1   Thumb Code    10  fsl_lpi2c.o(.text.CLOCK_EnableClock)
    [Anonymous Symbol]                       0x600046f0   Section        0  fsl_lpi2c.o(.text.CLOCK_EnableClock)
    CLOCK_EnableClock                        0x60004701   Thumb Code    10  fsl_lpuart.o(.text.CLOCK_EnableClock)
    [Anonymous Symbol]                       0x60004700   Section        0  fsl_lpuart.o(.text.CLOCK_EnableClock)
    CLOCK_EnableClock                        0x60004711   Thumb Code    10  fsl_pwm.o(.text.CLOCK_EnableClock)
    [Anonymous Symbol]                       0x60004710   Section        0  fsl_pwm.o(.text.CLOCK_EnableClock)
    CLOCK_EnableClock                        0x60004721   Thumb Code    10  fsl_xbara.o(.text.CLOCK_EnableClock)
    [Anonymous Symbol]                       0x60004720   Section        0  fsl_xbara.o(.text.CLOCK_EnableClock)
    [Anonymous Symbol]                       0x60004730   Section        0  fsl_clock.o(.text.CLOCK_GetAhbFreq)
    CLOCK_GetDiv                             0x60004751   Thumb Code    16  board.o(.text.CLOCK_GetDiv)
    [Anonymous Symbol]                       0x60004750   Section        0  board.o(.text.CLOCK_GetDiv)
    [Anonymous Symbol]                       0x60004760   Section        0  fsl_clock.o(.text.CLOCK_GetFreq)
    [Anonymous Symbol]                       0x60004898   Section        0  fsl_clock.o(.text.CLOCK_GetIpgFreq)
    CLOCK_GetMux                             0x600048b9   Thumb Code    16  board.o(.text.CLOCK_GetMux)
    [Anonymous Symbol]                       0x600048b8   Section        0  board.o(.text.CLOCK_GetMux)
    CLOCK_GetOscFreq                         0x600048c9   Thumb Code    36  board.o(.text.CLOCK_GetOscFreq)
    [Anonymous Symbol]                       0x600048c8   Section        0  board.o(.text.CLOCK_GetOscFreq)
    CLOCK_GetOscFreq                         0x600048f1   Thumb Code    36  fsl_clock.o(.text.CLOCK_GetOscFreq)
    [Anonymous Symbol]                       0x600048f0   Section        0  fsl_clock.o(.text.CLOCK_GetOscFreq)
    [Anonymous Symbol]                       0x60004918   Section        0  fsl_clock.o(.text.CLOCK_GetPerClkFreq)
    CLOCK_GetPeriphClkFreq                   0x60004941   Thumb Code   130  fsl_clock.o(.text.CLOCK_GetPeriphClkFreq)
    [Anonymous Symbol]                       0x60004940   Section        0  fsl_clock.o(.text.CLOCK_GetPeriphClkFreq)
    CLOCK_GetPllBypassRefClk                 0x600049c9   Thumb Code    32  fsl_clock.o(.text.CLOCK_GetPllBypassRefClk)
    [Anonymous Symbol]                       0x600049c8   Section        0  fsl_clock.o(.text.CLOCK_GetPllBypassRefClk)
    [Anonymous Symbol]                       0x600049e8   Section        0  fsl_clock.o(.text.CLOCK_GetPllFreq)
    CLOCK_GetPllUsb1SWFreq                   0x60004c79   Thumb Code    38  fsl_clock.o(.text.CLOCK_GetPllUsb1SWFreq)
    [Anonymous Symbol]                       0x60004c78   Section        0  fsl_clock.o(.text.CLOCK_GetPllUsb1SWFreq)
    [Anonymous Symbol]                       0x60004ca0   Section        0  fsl_clock.o(.text.CLOCK_GetSemcFreq)
    [Anonymous Symbol]                       0x60004cd8   Section        0  fsl_clock.o(.text.CLOCK_GetSysPfdFreq)
    [Anonymous Symbol]                       0x60004d40   Section        0  fsl_clock.o(.text.CLOCK_GetUsb1PfdFreq)
    [Anonymous Symbol]                       0x60004da8   Section        0  fsl_clock.o(.text.CLOCK_InitArmPll)
    [Anonymous Symbol]                       0x60004df0   Section        0  fsl_clock.o(.text.CLOCK_InitExternalClk)
    [Anonymous Symbol]                       0x60004e40   Section        0  fsl_clock.o(.text.CLOCK_InitRcOsc24M)
    [Anonymous Symbol]                       0x60004e58   Section        0  fsl_clock.o(.text.CLOCK_InitSysPfd)
    [Anonymous Symbol]                       0x60004e90   Section        0  fsl_clock.o(.text.CLOCK_InitSysPll)
    CLOCK_IsPllBypassed                      0x60004f01   Thumb Code    20  fsl_clock.o(.text.CLOCK_IsPllBypassed)
    [Anonymous Symbol]                       0x60004f00   Section        0  fsl_clock.o(.text.CLOCK_IsPllBypassed)
    CLOCK_IsPllEnabled                       0x60004f19   Thumb Code    28  fsl_clock.o(.text.CLOCK_IsPllEnabled)
    [Anonymous Symbol]                       0x60004f18   Section        0  fsl_clock.o(.text.CLOCK_IsPllEnabled)
    CLOCK_SetDiv                             0x60004f39   Thumb Code    84  clock_config.o(.text.CLOCK_SetDiv)
    [Anonymous Symbol]                       0x60004f38   Section        0  clock_config.o(.text.CLOCK_SetDiv)
    CLOCK_SetDiv                             0x60004f91   Thumb Code    84  mcu_init.o(.text.CLOCK_SetDiv)
    [Anonymous Symbol]                       0x60004f90   Section        0  mcu_init.o(.text.CLOCK_SetDiv)
    CLOCK_SetDiv                             0x60004fe9   Thumb Code    20  bh1750_i2c_drv.o(.text.CLOCK_SetDiv)
    [Anonymous Symbol]                       0x60004fe8   Section        0  bh1750_i2c_drv.o(.text.CLOCK_SetDiv)
    CLOCK_SetDiv                             0x60005001   Thumb Code    18  hc_sr04.o(.text.CLOCK_SetDiv)
    [Anonymous Symbol]                       0x60005000   Section        0  hc_sr04.o(.text.CLOCK_SetDiv)
    CLOCK_SetMux                             0x60005019   Thumb Code    84  clock_config.o(.text.CLOCK_SetMux)
    [Anonymous Symbol]                       0x60005018   Section        0  clock_config.o(.text.CLOCK_SetMux)
    CLOCK_SetMux                             0x60005071   Thumb Code    18  bh1750_i2c_drv.o(.text.CLOCK_SetMux)
    [Anonymous Symbol]                       0x60005070   Section        0  bh1750_i2c_drv.o(.text.CLOCK_SetMux)
    CLOCK_SetMux                             0x60005089   Thumb Code    18  hc_sr04.o(.text.CLOCK_SetMux)
    [Anonymous Symbol]                       0x60005088   Section        0  hc_sr04.o(.text.CLOCK_SetMux)
    CLOCK_SetPllBypass                       0x600050a1   Thumb Code    36  clock_config.o(.text.CLOCK_SetPllBypass)
    [Anonymous Symbol]                       0x600050a0   Section        0  clock_config.o(.text.CLOCK_SetPllBypass)
    CLOCK_SetRtcXtalFreq                     0x600050c9   Thumb Code    16  clock_config.o(.text.CLOCK_SetRtcXtalFreq)
    [Anonymous Symbol]                       0x600050c8   Section        0  clock_config.o(.text.CLOCK_SetRtcXtalFreq)
    CLOCK_SetXtalFreq                        0x600050d9   Thumb Code    20  clock_config.o(.text.CLOCK_SetXtalFreq)
    [Anonymous Symbol]                       0x600050d8   Section        0  clock_config.o(.text.CLOCK_SetXtalFreq)
    [Anonymous Symbol]                       0x600050f0   Section        0  fsl_clock.o(.text.CLOCK_SwitchOsc)
    [Anonymous Symbol]                       0x60005108   Section        0  fsl_edma.o(.text.DMA0_DMA16_DriverIRQHandler)
    [Anonymous Symbol]                       0x60005148   Section        0  fsl_edma.o(.text.DMA10_DMA26_DriverIRQHandler)
    [Anonymous Symbol]                       0x60005188   Section        0  fsl_edma.o(.text.DMA11_DMA27_DriverIRQHandler)
    [Anonymous Symbol]                       0x600051c8   Section        0  fsl_edma.o(.text.DMA12_DMA28_DriverIRQHandler)
    [Anonymous Symbol]                       0x60005208   Section        0  fsl_edma.o(.text.DMA13_DMA29_DriverIRQHandler)
    [Anonymous Symbol]                       0x60005248   Section        0  fsl_edma.o(.text.DMA14_DMA30_DriverIRQHandler)
    [Anonymous Symbol]                       0x60005288   Section        0  fsl_edma.o(.text.DMA15_DMA31_DriverIRQHandler)
    [Anonymous Symbol]                       0x600052c8   Section        0  fsl_edma.o(.text.DMA1_DMA17_DriverIRQHandler)
    [Anonymous Symbol]                       0x60005308   Section        0  fsl_edma.o(.text.DMA2_DMA18_DriverIRQHandler)
    [Anonymous Symbol]                       0x60005348   Section        0  fsl_edma.o(.text.DMA3_DMA19_DriverIRQHandler)
    [Anonymous Symbol]                       0x60005388   Section        0  fsl_edma.o(.text.DMA4_DMA20_DriverIRQHandler)
    [Anonymous Symbol]                       0x600053c8   Section        0  fsl_edma.o(.text.DMA5_DMA21_DriverIRQHandler)
    [Anonymous Symbol]                       0x60005408   Section        0  fsl_edma.o(.text.DMA6_DMA22_DriverIRQHandler)
    [Anonymous Symbol]                       0x60005448   Section        0  fsl_edma.o(.text.DMA7_DMA23_DriverIRQHandler)
    [Anonymous Symbol]                       0x60005488   Section        0  fsl_edma.o(.text.DMA8_DMA24_DriverIRQHandler)
    [Anonymous Symbol]                       0x600054c8   Section        0  fsl_edma.o(.text.DMA9_DMA25_DriverIRQHandler)
    DbgConsole_ConvertRadixNumToString       0x60005509   Thumb Code    74  fsl_debug_console.o(.text.DbgConsole_ConvertRadixNumToString)
    [Anonymous Symbol]                       0x60005508   Section        0  fsl_debug_console.o(.text.DbgConsole_ConvertRadixNumToString)
    [Anonymous Symbol]                       0x60005558   Section        0  fsl_debug_console.o(.text.DbgConsole_Init)
    [Anonymous Symbol]                       0x600055a8   Section        0  fsl_debug_console.o(.text.DbgConsole_Printf)
    DbgConsole_PrintfFormattedData           0x600055e1   Thumb Code   622  fsl_debug_console.o(.text.DbgConsole_PrintfFormattedData)
    [Anonymous Symbol]                       0x600055e0   Section        0  fsl_debug_console.o(.text.DbgConsole_PrintfFormattedData)
    DbgConsole_PrintfPaddingCharacter        0x60005851   Thumb Code    32  fsl_debug_console.o(.text.DbgConsole_PrintfPaddingCharacter)
    [Anonymous Symbol]                       0x60005850   Section        0  fsl_debug_console.o(.text.DbgConsole_PrintfPaddingCharacter)
    [Anonymous Symbol]                       0x60005870   Section        0  fsl_debug_console.o(.text.DbgConsole_Putchar)
    [Anonymous Symbol]                       0x600058a0   Section        0  fsl_edma.o(.text.EDMA_GetChannelStatusFlags)
    [Anonymous Symbol]                       0x600058e8   Section        0  fsl_edma.o(.text.EDMA_HandleIRQ)
    [Anonymous Symbol]                       0x600059b8   Section        0  fsl_enet.o(.text.ENET2_DriverIRQHandler)
    [Anonymous Symbol]                       0x600059d0   Section        0  fsl_enet.o(.text.ENET_1588_Timer_IRQHandler)
    [Anonymous Symbol]                       0x600059d8   Section        0  fsl_enet.o(.text.ENET_CommonFrame0IRQHandler)
    [Anonymous Symbol]                       0x60005a60   Section        0  fsl_enet.o(.text.ENET_DriverIRQHandler)
    [Anonymous Symbol]                       0x60005a78   Section        0  fsl_enet.o(.text.ENET_GetInstance)
    s_enetBases                              0x60005aa0   Number         0  fsl_enet.o(.text.ENET_GetInstance)
    EnableIRQ                                0x60005ad1   Thumb Code     8  tos_hal_uart.o(.text.EnableIRQ)
    [Anonymous Symbol]                       0x60005ad0   Section        0  tos_hal_uart.o(.text.EnableIRQ)
    EnableIRQ                                0x60005ad9   Thumb Code     8  hc_sr04.o(.text.EnableIRQ)
    [Anonymous Symbol]                       0x60005ad8   Section        0  hc_sr04.o(.text.EnableIRQ)
    [Anonymous Symbol]                       0x60005ae0   Section        0  fsl_flexio.o(.text.FLEXIO1_DriverIRQHandler)
    [Anonymous Symbol]                       0x60005ae8   Section        0  fsl_flexio.o(.text.FLEXIO2_DriverIRQHandler)
    [Anonymous Symbol]                       0x60005af0   Section        0  fsl_flexio.o(.text.FLEXIO3_DriverIRQHandler)
    FLEXIO_CommonIRQHandler                  0x60005af9   Thumb Code    66  fsl_flexio.o(.text.FLEXIO_CommonIRQHandler)
    [Anonymous Symbol]                       0x60005af8   Section        0  fsl_flexio.o(.text.FLEXIO_CommonIRQHandler)
    [Anonymous Symbol]                       0x60005b40   Section        0  fsl_flexspi.o(.text.FLEXSPI_CheckAndClearError)
    FLEXSPI_ClearInterruptStatusFlags        0x60005bb1   Thumb Code     8  fsl_flexspi.o(.text.FLEXSPI_ClearInterruptStatusFlags)
    [Anonymous Symbol]                       0x60005bb0   Section        0  fsl_flexspi.o(.text.FLEXSPI_ClearInterruptStatusFlags)
    FLEXSPI_DisableInterrupts                0x60005bb9   Thumb Code    12  fsl_flexspi.o(.text.FLEXSPI_DisableInterrupts)
    [Anonymous Symbol]                       0x60005bb8   Section        0  fsl_flexspi.o(.text.FLEXSPI_DisableInterrupts)
    [Anonymous Symbol]                       0x60005bc8   Section        0  fsl_flexspi.o(.text.FLEXSPI_DriverIRQHandler)
    [Anonymous Symbol]                       0x60005be8   Section        0  fsl_flexspi.o(.text.FLEXSPI_TransferAbort)
    [Anonymous Symbol]                       0x60005c10   Section        0  fsl_flexspi.o(.text.FLEXSPI_TransferHandleIRQ)
    GPIO_GetInstance                         0x60005d79   Thumb Code    40  fsl_gpio.o(.text.GPIO_GetInstance)
    [Anonymous Symbol]                       0x60005d78   Section        0  fsl_gpio.o(.text.GPIO_GetInstance)
    s_gpioBases                              0x60005da0   Number         0  fsl_gpio.o(.text.GPIO_GetInstance)
    [Anonymous Symbol]                       0x60005df0   Section        0  fsl_gpio.o(.text.GPIO_PinInit)
    s_gpioClock                              0x60005e48   Number         0  fsl_gpio.o(.text.GPIO_PinInit)
    [Anonymous Symbol]                       0x60005e58   Section        0  fsl_gpio.o(.text.GPIO_PinSetInterruptConfig)
    [Anonymous Symbol]                       0x60005ef0   Section        0  fsl_gpio.o(.text.GPIO_PinWrite)
    GPIO_SetPinInterruptConfig               0x60005f29   Thumb Code     8  fsl_gpio.o(.text.GPIO_SetPinInterruptConfig)
    [Anonymous Symbol]                       0x60005f28   Section        0  fsl_gpio.o(.text.GPIO_SetPinInterruptConfig)
    [Anonymous Symbol]                       0x60005f30   Section        0  hc_sr04.o(.text.GPT2_IRQHandler)
    GPT_ClearStatusFlags                     0x60005fa1   Thumb Code    10  hc_sr04.o(.text.GPT_ClearStatusFlags)
    [Anonymous Symbol]                       0x60005fa0   Section        0  hc_sr04.o(.text.GPT_ClearStatusFlags)
    [Anonymous Symbol]                       0x60005fb0   Section        0  hc_sr04.o(.text.GPT_Config)
    GPT_EnableInterrupts                     0x60006011   Thumb Code    14  hc_sr04.o(.text.GPT_EnableInterrupts)
    [Anonymous Symbol]                       0x60006010   Section        0  hc_sr04.o(.text.GPT_EnableInterrupts)
    [Anonymous Symbol]                       0x60006020   Section        0  fsl_gpt.o(.text.GPT_GetDefaultConfig)
    GPT_GetInputCaptureValue                 0x60006069   Thumb Code    10  hc_sr04.o(.text.GPT_GetInputCaptureValue)
    [Anonymous Symbol]                       0x60006068   Section        0  hc_sr04.o(.text.GPT_GetInputCaptureValue)
    GPT_GetInstance                          0x60006079   Thumb Code    40  fsl_gpt.o(.text.GPT_GetInstance)
    [Anonymous Symbol]                       0x60006078   Section        0  fsl_gpt.o(.text.GPT_GetInstance)
    s_gptBases                               0x600060a0   Number         0  fsl_gpt.o(.text.GPT_GetInstance)
    GPT_GetStatusFlags                       0x600060d1   Thumb Code    12  hc_sr04.o(.text.GPT_GetStatusFlags)
    [Anonymous Symbol]                       0x600060d0   Section        0  hc_sr04.o(.text.GPT_GetStatusFlags)
    [Anonymous Symbol]                       0x600060e0   Section        0  fsl_gpt.o(.text.GPT_Init)
    GPT_SetClockDivider                      0x60006171   Thumb Code    28  fsl_gpt.o(.text.GPT_SetClockDivider)
    [Anonymous Symbol]                       0x60006170   Section        0  fsl_gpt.o(.text.GPT_SetClockDivider)
    GPT_SetClockDivider                      0x600061c9   Thumb Code    18  hc_sr04.o(.text.GPT_SetClockDivider)
    [Anonymous Symbol]                       0x600061c8   Section        0  hc_sr04.o(.text.GPT_SetClockDivider)
    GPT_SetClockSource                       0x600061e1   Thumb Code    28  fsl_gpt.o(.text.GPT_SetClockSource)
    [Anonymous Symbol]                       0x600061e0   Section        0  fsl_gpt.o(.text.GPT_SetClockSource)
    GPT_SetInputOperationMode                0x60006201   Thumb Code    16  hc_sr04.o(.text.GPT_SetInputOperationMode)
    [Anonymous Symbol]                       0x60006200   Section        0  hc_sr04.o(.text.GPT_SetInputOperationMode)
    GPT_SoftwareReset                        0x60006211   Thumb Code    16  fsl_gpt.o(.text.GPT_SoftwareReset)
    [Anonymous Symbol]                       0x60006210   Section        0  fsl_gpt.o(.text.GPT_SoftwareReset)
    GPT_StartTimer                           0x60006221   Thumb Code    16  hc_sr04.o(.text.GPT_StartTimer)
    [Anonymous Symbol]                       0x60006220   Section        0  hc_sr04.o(.text.GPT_StartTimer)
    HAL_UartGetStatus                        0x60006231   Thumb Code    10  fsl_adapter_lpuart.o(.text.HAL_UartGetStatus)
    [Anonymous Symbol]                       0x60006230   Section        0  fsl_adapter_lpuart.o(.text.HAL_UartGetStatus)
    [Anonymous Symbol]                       0x60006240   Section        0  fsl_adapter_lpuart.o(.text.HAL_UartInit)
    HAL_UartInitCommon                       0x600062f9   Thumb Code   124  fsl_adapter_lpuart.o(.text.HAL_UartInitCommon)
    [Anonymous Symbol]                       0x600062f8   Section        0  fsl_adapter_lpuart.o(.text.HAL_UartInitCommon)
    [Anonymous Symbol]                       0x60006378   Section        0  fsl_adapter_lpuart.o(.text.HAL_UartReceiveBlocking)
    [Anonymous Symbol]                       0x600063e0   Section        0  fsl_adapter_lpuart.o(.text.HAL_UartSendBlocking)
    [Anonymous Symbol]                       0x60006448   Section        0  hc_sr04.o(.text.HC_SR04_Init)
    IOMUXC_MQSConfig                         0x60006499   Thumb Code    24  clock_config.o(.text.IOMUXC_MQSConfig)
    [Anonymous Symbol]                       0x60006498   Section        0  clock_config.o(.text.IOMUXC_MQSConfig)
    IOMUXC_SetPinConfig                      0x600064b1   Thumb Code     4  pin_mux.o(.text.IOMUXC_SetPinConfig)
    [Anonymous Symbol]                       0x600064b0   Section        0  pin_mux.o(.text.IOMUXC_SetPinConfig)
    IOMUXC_SetPinMux                         0x600064b9   Thumb Code    22  pin_mux.o(.text.IOMUXC_SetPinMux)
    [Anonymous Symbol]                       0x600064b8   Section        0  pin_mux.o(.text.IOMUXC_SetPinMux)
    IOMUXC_SetSaiMClkClockSource             0x600064d1   Thumb Code    30  clock_config.o(.text.IOMUXC_SetSaiMClkClockSource)
    [Anonymous Symbol]                       0x600064d0   Section        0  clock_config.o(.text.IOMUXC_SetSaiMClkClockSource)
    [Anonymous Symbol]                       0x600064f0   Section        0  fsl_lpi2c.o(.text.LPI2C1_DriverIRQHandler)
    [Anonymous Symbol]                       0x60006500   Section        0  fsl_lpi2c.o(.text.LPI2C2_DriverIRQHandler)
    [Anonymous Symbol]                       0x60006518   Section        0  fsl_lpi2c.o(.text.LPI2C3_DriverIRQHandler)
    [Anonymous Symbol]                       0x60006530   Section        0  fsl_lpi2c.o(.text.LPI2C4_DriverIRQHandler)
    [Anonymous Symbol]                       0x60006548   Section        0  fsl_lpi2c.o(.text.LPI2C_CheckForBusyBus)
    LPI2C_CommonIRQHandler                   0x60006561   Thumb Code    86  fsl_lpi2c.o(.text.LPI2C_CommonIRQHandler)
    [Anonymous Symbol]                       0x60006560   Section        0  fsl_lpi2c.o(.text.LPI2C_CommonIRQHandler)
    LPI2C_GetCyclesForWidth                  0x600065b9   Thumb Code   120  fsl_lpi2c.o(.text.LPI2C_GetCyclesForWidth)
    [Anonymous Symbol]                       0x600065b8   Section        0  fsl_lpi2c.o(.text.LPI2C_GetCyclesForWidth)
    [Anonymous Symbol]                       0x60006658   Section        0  fsl_lpi2c.o(.text.LPI2C_GetInstance)
    kLpi2cBases                              0x60006680   Number         0  fsl_lpi2c.o(.text.LPI2C_GetInstance)
    [Anonymous Symbol]                       0x600066b8   Section        0  fsl_lpi2c.o(.text.LPI2C_MasterCheckAndClearError)
    LPI2C_MasterClearStatusFlags             0x60006709   Thumb Code     4  fsl_lpi2c.o(.text.LPI2C_MasterClearStatusFlags)
    [Anonymous Symbol]                       0x60006708   Section        0  fsl_lpi2c.o(.text.LPI2C_MasterClearStatusFlags)
    LPI2C_MasterDisableInterrupts            0x60006711   Thumb Code    10  fsl_lpi2c.o(.text.LPI2C_MasterDisableInterrupts)
    [Anonymous Symbol]                       0x60006710   Section        0  fsl_lpi2c.o(.text.LPI2C_MasterDisableInterrupts)
    LPI2C_MasterEnable                       0x60006721   Thumb Code    12  fsl_lpi2c.o(.text.LPI2C_MasterEnable)
    [Anonymous Symbol]                       0x60006720   Section        0  fsl_lpi2c.o(.text.LPI2C_MasterEnable)
    [Anonymous Symbol]                       0x60006730   Section        0  fsl_lpi2c.o(.text.LPI2C_MasterGetDefaultConfig)
    LPI2C_MasterGetFifoCounts                0x60006761   Thumb Code    26  fsl_lpi2c.o(.text.LPI2C_MasterGetFifoCounts)
    [Anonymous Symbol]                       0x60006760   Section        0  fsl_lpi2c.o(.text.LPI2C_MasterGetFifoCounts)
    LPI2C_MasterGetStatusFlags               0x60006781   Thumb Code     4  fsl_lpi2c.o(.text.LPI2C_MasterGetStatusFlags)
    [Anonymous Symbol]                       0x60006780   Section        0  fsl_lpi2c.o(.text.LPI2C_MasterGetStatusFlags)
    LPI2C_MasterGetStatusFlags               0x60006789   Thumb Code    10  bh1750_i2c_drv.o(.text.LPI2C_MasterGetStatusFlags)
    [Anonymous Symbol]                       0x60006788   Section        0  bh1750_i2c_drv.o(.text.LPI2C_MasterGetStatusFlags)
    [Anonymous Symbol]                       0x60006798   Section        0  fsl_lpi2c.o(.text.LPI2C_MasterInit)
    [Anonymous Symbol]                       0x60006888   Section        0  fsl_lpi2c.o(.text.LPI2C_MasterReceive)
    LPI2C_MasterReset                        0x60006909   Thumb Code    10  fsl_lpi2c.o(.text.LPI2C_MasterReset)
    [Anonymous Symbol]                       0x60006908   Section        0  fsl_lpi2c.o(.text.LPI2C_MasterReset)
    [Anonymous Symbol]                       0x60006918   Section        0  fsl_lpi2c.o(.text.LPI2C_MasterSend)
    [Anonymous Symbol]                       0x60006958   Section        0  fsl_lpi2c.o(.text.LPI2C_MasterSetBaudRate)
    LPI2C_MasterSetWatermarks                0x60006ac9   Thumb Code     6  fsl_lpi2c.o(.text.LPI2C_MasterSetWatermarks)
    [Anonymous Symbol]                       0x60006ac8   Section        0  fsl_lpi2c.o(.text.LPI2C_MasterSetWatermarks)
    [Anonymous Symbol]                       0x60006ad0   Section        0  fsl_lpi2c.o(.text.LPI2C_MasterStart)
    [Anonymous Symbol]                       0x60006b10   Section        0  fsl_lpi2c.o(.text.LPI2C_MasterStop)
    [Anonymous Symbol]                       0x60006b58   Section        0  fsl_lpi2c.o(.text.LPI2C_MasterTransferAbort)
    [Anonymous Symbol]                       0x60006b88   Section        0  fsl_lpi2c.o(.text.LPI2C_MasterTransferHandleIRQ)
    LPI2C_MasterWaitForTxReady               0x60006c11   Thumb Code    50  fsl_lpi2c.o(.text.LPI2C_MasterWaitForTxReady)
    [Anonymous Symbol]                       0x60006c10   Section        0  fsl_lpi2c.o(.text.LPI2C_MasterWaitForTxReady)
    LPI2C_RunTransferStateMachine            0x60006c49   Thumb Code   368  fsl_lpi2c.o(.text.LPI2C_RunTransferStateMachine)
    [Anonymous Symbol]                       0x60006c48   Section        0  fsl_lpi2c.o(.text.LPI2C_RunTransferStateMachine)
    LPI2C_SlaveCheckAndClearError            0x60006dc1   Thumb Code    42  fsl_lpi2c.o(.text.LPI2C_SlaveCheckAndClearError)
    [Anonymous Symbol]                       0x60006dc0   Section        0  fsl_lpi2c.o(.text.LPI2C_SlaveCheckAndClearError)
    LPI2C_SlaveClearStatusFlags              0x60006df1   Thumb Code     6  fsl_lpi2c.o(.text.LPI2C_SlaveClearStatusFlags)
    [Anonymous Symbol]                       0x60006df0   Section        0  fsl_lpi2c.o(.text.LPI2C_SlaveClearStatusFlags)
    LPI2C_SlaveGetStatusFlags                0x60006df9   Thumb Code     6  fsl_lpi2c.o(.text.LPI2C_SlaveGetStatusFlags)
    [Anonymous Symbol]                       0x60006df8   Section        0  fsl_lpi2c.o(.text.LPI2C_SlaveGetStatusFlags)
    [Anonymous Symbol]                       0x60006e00   Section        0  fsl_lpi2c.o(.text.LPI2C_SlaveTransferHandleIRQ)
    [Anonymous Symbol]                       0x60006f68   Section        0  fsl_lpspi.o(.text.LPSPI1_DriverIRQHandler)
    [Anonymous Symbol]                       0x60006fb8   Section        0  fsl_lpspi.o(.text.LPSPI2_DriverIRQHandler)
    [Anonymous Symbol]                       0x60007008   Section        0  fsl_lpspi.o(.text.LPSPI3_DriverIRQHandler)
    [Anonymous Symbol]                       0x60007058   Section        0  fsl_lpspi.o(.text.LPSPI4_DriverIRQHandler)
    LPSPI_ClearStatusFlags                   0x600070a1   Thumb Code     4  fsl_lpspi.o(.text.LPSPI_ClearStatusFlags)
    [Anonymous Symbol]                       0x600070a0   Section        0  fsl_lpspi.o(.text.LPSPI_ClearStatusFlags)
    LPSPI_CombineWriteData                   0x600070a9   Thumb Code   160  fsl_lpspi.o(.text.LPSPI_CombineWriteData)
    [Anonymous Symbol]                       0x600070a8   Section        0  fsl_lpspi.o(.text.LPSPI_CombineWriteData)
    LPSPI_CommonIRQHandler                   0x60007159   Thumb Code    40  fsl_lpspi.o(.text.LPSPI_CommonIRQHandler)
    [Anonymous Symbol]                       0x60007158   Section        0  fsl_lpspi.o(.text.LPSPI_CommonIRQHandler)
    LPSPI_DisableInterrupts                  0x60007181   Thumb Code    10  fsl_lpspi.o(.text.LPSPI_DisableInterrupts)
    [Anonymous Symbol]                       0x60007180   Section        0  fsl_lpspi.o(.text.LPSPI_DisableInterrupts)
    LPSPI_EnableInterrupts                   0x60007191   Thumb Code     8  fsl_lpspi.o(.text.LPSPI_EnableInterrupts)
    [Anonymous Symbol]                       0x60007190   Section        0  fsl_lpspi.o(.text.LPSPI_EnableInterrupts)
    LPSPI_GetRxFifoCount                     0x60007199   Thumb Code     8  fsl_lpspi.o(.text.LPSPI_GetRxFifoCount)
    [Anonymous Symbol]                       0x60007198   Section        0  fsl_lpspi.o(.text.LPSPI_GetRxFifoCount)
    LPSPI_GetStatusFlags                     0x600071a1   Thumb Code     4  fsl_lpspi.o(.text.LPSPI_GetStatusFlags)
    [Anonymous Symbol]                       0x600071a0   Section        0  fsl_lpspi.o(.text.LPSPI_GetStatusFlags)
    LPSPI_GetTxFifoCount                     0x600071a9   Thumb Code     8  fsl_lpspi.o(.text.LPSPI_GetTxFifoCount)
    [Anonymous Symbol]                       0x600071a8   Section        0  fsl_lpspi.o(.text.LPSPI_GetTxFifoCount)
    LPSPI_IsMaster                           0x600071b1   Thumb Code     8  fsl_lpspi.o(.text.LPSPI_IsMaster)
    [Anonymous Symbol]                       0x600071b0   Section        0  fsl_lpspi.o(.text.LPSPI_IsMaster)
    LPSPI_MasterTransferComplete             0x600071b9   Thumb Code    66  fsl_lpspi.o(.text.LPSPI_MasterTransferComplete)
    [Anonymous Symbol]                       0x600071b8   Section        0  fsl_lpspi.o(.text.LPSPI_MasterTransferComplete)
    LPSPI_MasterTransferFillUpTxFifo         0x60007201   Thumb Code   204  fsl_lpspi.o(.text.LPSPI_MasterTransferFillUpTxFifo)
    [Anonymous Symbol]                       0x60007200   Section        0  fsl_lpspi.o(.text.LPSPI_MasterTransferFillUpTxFifo)
    [Anonymous Symbol]                       0x600072d0   Section        0  fsl_lpspi.o(.text.LPSPI_MasterTransferHandleIRQ)
    LPSPI_ReadData                           0x60007409   Thumb Code     4  fsl_lpspi.o(.text.LPSPI_ReadData)
    [Anonymous Symbol]                       0x60007408   Section        0  fsl_lpspi.o(.text.LPSPI_ReadData)
    LPSPI_SeparateReadData                   0x60007411   Thumb Code   148  fsl_lpspi.o(.text.LPSPI_SeparateReadData)
    [Anonymous Symbol]                       0x60007410   Section        0  fsl_lpspi.o(.text.LPSPI_SeparateReadData)
    LPSPI_SlaveTransferComplete              0x600074b9   Thumb Code    76  fsl_lpspi.o(.text.LPSPI_SlaveTransferComplete)
    [Anonymous Symbol]                       0x600074b8   Section        0  fsl_lpspi.o(.text.LPSPI_SlaveTransferComplete)
    LPSPI_SlaveTransferFillUpTxFifo          0x60007509   Thumb Code   116  fsl_lpspi.o(.text.LPSPI_SlaveTransferFillUpTxFifo)
    [Anonymous Symbol]                       0x60007508   Section        0  fsl_lpspi.o(.text.LPSPI_SlaveTransferFillUpTxFifo)
    [Anonymous Symbol]                       0x60007580   Section        0  fsl_lpspi.o(.text.LPSPI_SlaveTransferHandleIRQ)
    LPSPI_WriteData                          0x60007701   Thumb Code     4  fsl_lpspi.o(.text.LPSPI_WriteData)
    [Anonymous Symbol]                       0x60007700   Section        0  fsl_lpspi.o(.text.LPSPI_WriteData)
    [Anonymous Symbol]                       0x60007708   Section        0  fsl_lpuart.o(.text.LPUART1_DriverIRQHandler)
    [Anonymous Symbol]                       0x60007730   Section        0  fsl_lpuart.o(.text.LPUART2_DriverIRQHandler)
    [Anonymous Symbol]                       0x60007758   Section        0  mcu_init.o(.text.LPUART2_IRQHandler)
    [Anonymous Symbol]                       0x60007780   Section        0  fsl_lpuart.o(.text.LPUART3_DriverIRQHandler)
    [Anonymous Symbol]                       0x600077a8   Section        0  fsl_lpuart.o(.text.LPUART4_DriverIRQHandler)
    [Anonymous Symbol]                       0x600077d0   Section        0  mcu_init.o(.text.LPUART4_IRQHandler)
    [Anonymous Symbol]                       0x600077f8   Section        0  fsl_lpuart.o(.text.LPUART5_DriverIRQHandler)
    [Anonymous Symbol]                       0x60007820   Section        0  fsl_lpuart.o(.text.LPUART6_DriverIRQHandler)
    [Anonymous Symbol]                       0x60007848   Section        0  fsl_lpuart.o(.text.LPUART7_DriverIRQHandler)
    [Anonymous Symbol]                       0x60007870   Section        0  fsl_lpuart.o(.text.LPUART8_DriverIRQHandler)
    [Anonymous Symbol]                       0x60007898   Section        0  fsl_lpuart.o(.text.LPUART_ClearStatusFlags)
    [Anonymous Symbol]                       0x600078d0   Section        0  fsl_lpuart.o(.text.LPUART_Deinit)
    [Anonymous Symbol]                       0x60007908   Section        0  fsl_lpuart.o(.text.LPUART_EnableInterrupts)
    [Anonymous Symbol]                       0x60007930   Section        0  fsl_lpuart.o(.text.LPUART_GetDefaultConfig)
    [Anonymous Symbol]                       0x60007970   Section        0  fsl_lpuart.o(.text.LPUART_GetInstance)
    s_lpuartBases                            0x60007998   Number         0  fsl_lpuart.o(.text.LPUART_GetInstance)
    [Anonymous Symbol]                       0x600079e8   Section        0  fsl_lpuart.o(.text.LPUART_GetStatusFlags)
    [Anonymous Symbol]                       0x600079f8   Section        0  fsl_lpuart.o(.text.LPUART_Init)
    [Anonymous Symbol]                       0x60007c80   Section        0  fsl_lpuart.o(.text.LPUART_ReadBlocking)
    LPUART_ReadByte                          0x60007d81   Thumb Code    28  mcu_init.o(.text.LPUART_ReadByte)
    [Anonymous Symbol]                       0x60007d80   Section        0  mcu_init.o(.text.LPUART_ReadByte)
    LPUART_SoftwareReset                     0x60007da1   Thumb Code    18  fsl_lpuart.o(.text.LPUART_SoftwareReset)
    [Anonymous Symbol]                       0x60007da0   Section        0  fsl_lpuart.o(.text.LPUART_SoftwareReset)
    [Anonymous Symbol]                       0x60007db8   Section        0  fsl_lpuart.o(.text.LPUART_WriteBlocking)
    [Anonymous Symbol]                       0x60007df0   Section        0  mqttdeserializepublish.o(.text.MQTTDeserialize_ack)
    [Anonymous Symbol]                       0x60007e30   Section        0  mqttconnectclient.o(.text.MQTTDeserialize_connack)
    [Anonymous Symbol]                       0x60007e80   Section        0  mqttdeserializepublish.o(.text.MQTTDeserialize_publish)
    [Anonymous Symbol]                       0x60007f08   Section        0  mqttsubscribeclient.o(.text.MQTTDeserialize_suback)
    [Anonymous Symbol]                       0x60007f98   Section        0  mqttunsubscribeclient.o(.text.MQTTDeserialize_unsuback)
    [Anonymous Symbol]                       0x60007fd0   Section        0  mqttpacket.o(.text.MQTTPacket_decode)
    [Anonymous Symbol]                       0x60008028   Section        0  mqttpacket.o(.text.MQTTPacket_decodeBuf)
    [Anonymous Symbol]                       0x60008048   Section        0  mqttpacket.o(.text.MQTTPacket_encode)
    [Anonymous Symbol]                       0x60008080   Section        0  mqttpacket.o(.text.MQTTPacket_equals)
    [Anonymous Symbol]                       0x600080b8   Section        0  mqttpacket.o(.text.MQTTPacket_len)
    [Anonymous Symbol]                       0x600080e8   Section        0  mqttserializepublish.o(.text.MQTTSerialize_ack)
    [Anonymous Symbol]                       0x60008140   Section        0  mqttconnectclient.o(.text.MQTTSerialize_connect)
    [Anonymous Symbol]                       0x60008268   Section        0  mqttconnectclient.o(.text.MQTTSerialize_connectLength)
    [Anonymous Symbol]                       0x600082e0   Section        0  mqttconnectclient.o(.text.MQTTSerialize_pingreq)
    [Anonymous Symbol]                       0x600082f0   Section        0  mqttserializepublish.o(.text.MQTTSerialize_publish)
    [Anonymous Symbol]                       0x60008390   Section        0  mqttserializepublish.o(.text.MQTTSerialize_publishLength)
    [Anonymous Symbol]                       0x600083b0   Section        0  mqttsubscribeclient.o(.text.MQTTSerialize_subscribe)
    [Anonymous Symbol]                       0x60008440   Section        0  mqttsubscribeclient.o(.text.MQTTSerialize_subscribeLength)
    [Anonymous Symbol]                       0x60008470   Section        0  mqttconnectclient.o(.text.MQTTSerialize_zero)
    [Anonymous Symbol]                       0x600084a8   Section        0  mqttpacket.o(.text.MQTTstrlen)
    NVIC_EncodePriority                      0x600084b9   Thumb Code    46  hc_sr04.o(.text.NVIC_EncodePriority)
    [Anonymous Symbol]                       0x600084b8   Section        0  hc_sr04.o(.text.NVIC_EncodePriority)
    PWM_DRV_InitPwm                          0x600084e9   Thumb Code    56  mcu_init.o(.text.PWM_DRV_InitPwm)
    [Anonymous Symbol]                       0x600084e8   Section        0  mcu_init.o(.text.PWM_DRV_InitPwm)
    PWM_GetComplementU16                     0x60008521   Thumb Code     6  fsl_pwm.o(.text.PWM_GetComplementU16)
    [Anonymous Symbol]                       0x60008520   Section        0  fsl_pwm.o(.text.PWM_GetComplementU16)
    [Anonymous Symbol]                       0x60008528   Section        0  fsl_pwm.o(.text.PWM_GetDefaultConfig)
    PWM_GetInstance                          0x60008561   Thumb Code    40  fsl_pwm.o(.text.PWM_GetInstance)
    [Anonymous Symbol]                       0x60008560   Section        0  fsl_pwm.o(.text.PWM_GetInstance)
    s_pwmBases                               0x60008588   Number         0  fsl_pwm.o(.text.PWM_GetInstance)
    [Anonymous Symbol]                       0x600085c0   Section        0  fsl_pwm.o(.text.PWM_Init)
    PWM_SetPwmLdok                           0x60008749   Thumb Code    18  main.o(.text.PWM_SetPwmLdok)
    [Anonymous Symbol]                       0x60008748   Section        0  main.o(.text.PWM_SetPwmLdok)
    PWM_SetPwmLdok                           0x60008761   Thumb Code    18  mqttclient_iot_explorer_bh1750.o(.text.PWM_SetPwmLdok)
    [Anonymous Symbol]                       0x60008760   Section        0  mqttclient_iot_explorer_bh1750.o(.text.PWM_SetPwmLdok)
    [Anonymous Symbol]                       0x60008778   Section        0  fsl_pwm.o(.text.PWM_SetupPwm)
    PWM_StartTimer                           0x60008ad9   Thumb Code    18  mcu_init.o(.text.PWM_StartTimer)
    [Anonymous Symbol]                       0x60008ad8   Section        0  mcu_init.o(.text.PWM_StartTimer)
    [Anonymous Symbol]                       0x60008af0   Section        0  fsl_pwm.o(.text.PWM_UpdatePwmDutycycle)
    [Anonymous Symbol]                       0x60008b68   Section        0  fsl_pwm.o(.text.PWM_UpdatePwmDutycycleHighAccuracy)
    [Anonymous Symbol]                       0x60008cd0   Section        0  fsl_sai.o(.text.SAI1_DriverIRQHandler)
    [Anonymous Symbol]                       0x60008d10   Section        0  fsl_sai.o(.text.SAI2_DriverIRQHandler)
    [Anonymous Symbol]                       0x60008d50   Section        0  fsl_sai.o(.text.SAI3_RX_DriverIRQHandler)
    [Anonymous Symbol]                       0x60008da0   Section        0  fsl_sai.o(.text.SAI3_TX_DriverIRQHandler)
    SAI_ReadNonBlocking                      0x60008df1   Thumb Code   114  fsl_sai.o(.text.SAI_ReadNonBlocking)
    [Anonymous Symbol]                       0x60008df0   Section        0  fsl_sai.o(.text.SAI_ReadNonBlocking)
    SAI_RxClearStatusFlags                   0x60008e69   Thumb Code    16  fsl_sai.o(.text.SAI_RxClearStatusFlags)
    [Anonymous Symbol]                       0x60008e68   Section        0  fsl_sai.o(.text.SAI_RxClearStatusFlags)
    SAI_RxDisableInterrupts                  0x60008e79   Thumb Code    20  fsl_sai.o(.text.SAI_RxDisableInterrupts)
    [Anonymous Symbol]                       0x60008e78   Section        0  fsl_sai.o(.text.SAI_RxDisableInterrupts)
    [Anonymous Symbol]                       0x60008e90   Section        0  fsl_sai.o(.text.SAI_RxEnable)
    SAI_RxGetEnabledInterruptStatus          0x60008ef1   Thumb Code    24  fsl_sai.o(.text.SAI_RxGetEnabledInterruptStatus)
    [Anonymous Symbol]                       0x60008ef0   Section        0  fsl_sai.o(.text.SAI_RxGetEnabledInterruptStatus)
    [Anonymous Symbol]                       0x60008f08   Section        0  fsl_sai.o(.text.SAI_RxSoftwareReset)
    [Anonymous Symbol]                       0x60008f20   Section        0  fsl_sai.o(.text.SAI_TransferAbortReceive)
    [Anonymous Symbol]                       0x60008f68   Section        0  fsl_sai.o(.text.SAI_TransferAbortSend)
    [Anonymous Symbol]                       0x60008fb0   Section        0  fsl_sai.o(.text.SAI_TransferRxHandleIRQ)
    [Anonymous Symbol]                       0x600090d0   Section        0  fsl_sai.o(.text.SAI_TransferTxHandleIRQ)
    SAI_TxClearStatusFlags                   0x600091f1   Thumb Code    12  fsl_sai.o(.text.SAI_TxClearStatusFlags)
    [Anonymous Symbol]                       0x600091f0   Section        0  fsl_sai.o(.text.SAI_TxClearStatusFlags)
    SAI_TxDisableInterrupts                  0x60009201   Thumb Code    16  fsl_sai.o(.text.SAI_TxDisableInterrupts)
    [Anonymous Symbol]                       0x60009200   Section        0  fsl_sai.o(.text.SAI_TxDisableInterrupts)
    [Anonymous Symbol]                       0x60009210   Section        0  fsl_sai.o(.text.SAI_TxEnable)
    SAI_TxGetEnabledInterruptStatus          0x60009269   Thumb Code    22  fsl_sai.o(.text.SAI_TxGetEnabledInterruptStatus)
    [Anonymous Symbol]                       0x60009268   Section        0  fsl_sai.o(.text.SAI_TxGetEnabledInterruptStatus)
    [Anonymous Symbol]                       0x60009280   Section        0  fsl_sai.o(.text.SAI_TxSoftwareReset)
    SAI_WriteNonBlocking                     0x60009291   Thumb Code   146  fsl_sai.o(.text.SAI_WriteNonBlocking)
    [Anonymous Symbol]                       0x60009290   Section        0  fsl_sai.o(.text.SAI_WriteNonBlocking)
    SPDIF_ClearStatusFlags                   0x60009329   Thumb Code     4  fsl_spdif.o(.text.SPDIF_ClearStatusFlags)
    [Anonymous Symbol]                       0x60009328   Section        0  fsl_spdif.o(.text.SPDIF_ClearStatusFlags)
    SPDIF_DisableInterrupts                  0x60009331   Thumb Code    10  fsl_spdif.o(.text.SPDIF_DisableInterrupts)
    [Anonymous Symbol]                       0x60009330   Section        0  fsl_spdif.o(.text.SPDIF_DisableInterrupts)
    [Anonymous Symbol]                       0x60009340   Section        0  fsl_spdif.o(.text.SPDIF_DriverIRQHandler)
    SPDIF_GetStatusFlag                      0x60009391   Thumb Code     4  fsl_spdif.o(.text.SPDIF_GetStatusFlag)
    [Anonymous Symbol]                       0x60009390   Section        0  fsl_spdif.o(.text.SPDIF_GetStatusFlag)
    SPDIF_ReadLeftData                       0x60009399   Thumb Code     4  fsl_spdif.o(.text.SPDIF_ReadLeftData)
    [Anonymous Symbol]                       0x60009398   Section        0  fsl_spdif.o(.text.SPDIF_ReadLeftData)
    SPDIF_ReadQChannel                       0x600093a1   Thumb Code     4  fsl_spdif.o(.text.SPDIF_ReadQChannel)
    [Anonymous Symbol]                       0x600093a0   Section        0  fsl_spdif.o(.text.SPDIF_ReadQChannel)
    SPDIF_ReadRightData                      0x600093a9   Thumb Code     4  fsl_spdif.o(.text.SPDIF_ReadRightData)
    [Anonymous Symbol]                       0x600093a8   Section        0  fsl_spdif.o(.text.SPDIF_ReadRightData)
    SPDIF_ReadUChannel                       0x600093b1   Thumb Code     4  fsl_spdif.o(.text.SPDIF_ReadUChannel)
    [Anonymous Symbol]                       0x600093b0   Section        0  fsl_spdif.o(.text.SPDIF_ReadUChannel)
    [Anonymous Symbol]                       0x600093b8   Section        0  fsl_spdif.o(.text.SPDIF_TransferAbortReceive)
    [Anonymous Symbol]                       0x60009400   Section        0  fsl_spdif.o(.text.SPDIF_TransferAbortSend)
    [Anonymous Symbol]                       0x60009440   Section        0  fsl_spdif.o(.text.SPDIF_TransferRxHandleIRQ)
    [Anonymous Symbol]                       0x60009660   Section        0  fsl_spdif.o(.text.SPDIF_TransferTxHandleIRQ)
    SPDIF_WriteLeftData                      0x60009789   Thumb Code     4  fsl_spdif.o(.text.SPDIF_WriteLeftData)
    [Anonymous Symbol]                       0x60009788   Section        0  fsl_spdif.o(.text.SPDIF_WriteLeftData)
    SPDIF_WriteRightData                     0x60009791   Thumb Code     4  fsl_spdif.o(.text.SPDIF_WriteRightData)
    [Anonymous Symbol]                       0x60009790   Section        0  fsl_spdif.o(.text.SPDIF_WriteRightData)
    SysTick_Config                           0x60009799   Thumb Code    38  port_c.o(.text.SysTick_Config)
    [Anonymous Symbol]                       0x60009798   Section        0  port_c.o(.text.SysTick_Config)
    [Anonymous Symbol]                       0x600097c0   Section        0  mcu_init.o(.text.SysTick_Handler)
    [Anonymous Symbol]                       0x600097e0   Section        0  system_mimxrt1062.o(.text.SystemInit)
    [Anonymous Symbol]                       0x60009920   Section        0  system_mimxrt1062.o(.text.SystemInitHook)
    [Anonymous Symbol]                       0x60009928   Section        0  fsl_usdhc.o(.text.USDHC1_DriverIRQHandler)
    [Anonymous Symbol]                       0x60009950   Section        0  fsl_usdhc.o(.text.USDHC2_DriverIRQHandler)
    XBARA_GetInstance                        0x60009979   Thumb Code    40  fsl_xbara.o(.text.XBARA_GetInstance)
    [Anonymous Symbol]                       0x60009978   Section        0  fsl_xbara.o(.text.XBARA_GetInstance)
    s_xbaraBases                             0x600099a0   Number         0  fsl_xbara.o(.text.XBARA_GetInstance)
    [Anonymous Symbol]                       0x600099d0   Section        0  fsl_xbara.o(.text.XBARA_Init)
    [Anonymous Symbol]                       0x600099e0   Section        0  fsl_xbara.o(.text.XBARA_SetSignalsConnection)
    __NVIC_EnableIRQ                         0x60009a09   Thumb Code    22  tos_hal_uart.o(.text.__NVIC_EnableIRQ)
    [Anonymous Symbol]                       0x60009a08   Section        0  tos_hal_uart.o(.text.__NVIC_EnableIRQ)
    __NVIC_EnableIRQ                         0x60009a21   Thumb Code    14  hc_sr04.o(.text.__NVIC_EnableIRQ)
    [Anonymous Symbol]                       0x60009a20   Section        0  hc_sr04.o(.text.__NVIC_EnableIRQ)
    __NVIC_GetPriorityGrouping               0x60009a31   Thumb Code    16  hc_sr04.o(.text.__NVIC_GetPriorityGrouping)
    [Anonymous Symbol]                       0x60009a30   Section        0  hc_sr04.o(.text.__NVIC_GetPriorityGrouping)
    __NVIC_SetPriority                       0x60009a41   Thumb Code    14  port_c.o(.text.__NVIC_SetPriority)
    [Anonymous Symbol]                       0x60009a40   Section        0  port_c.o(.text.__NVIC_SetPriority)
    __NVIC_SetPriority                       0x60009a51   Thumb Code    34  hc_sr04.o(.text.__NVIC_SetPriority)
    [Anonymous Symbol]                       0x60009a50   Section        0  hc_sr04.o(.text.__NVIC_SetPriority)
    [Anonymous Symbol]                       0x60009a78   Section        0  fsl_assert.o(.text.__aeabi_assert)
    __ffs                                    0x60009ab9   Thumb Code    14  tos_mmheap.o(.text.__ffs)
    [Anonymous Symbol]                       0x60009ab8   Section        0  tos_mmheap.o(.text.__ffs)
    __fls                                    0x60009ac9   Thumb Code    10  tos_mmheap.o(.text.__fls)
    [Anonymous Symbol]                       0x60009ac8   Section        0  tos_mmheap.o(.text.__fls)
    _list_add                                0x60009ad9   Thumb Code    10  tos_mutex.o(.text._list_add)
    [Anonymous Symbol]                       0x60009ad8   Section        0  tos_mutex.o(.text._list_add)
    _list_add                                0x60009ae9   Thumb Code    10  tos_pend.o(.text._list_add)
    [Anonymous Symbol]                       0x60009ae8   Section        0  tos_pend.o(.text._list_add)
    _list_add                                0x60009af9   Thumb Code    10  tos_sched.o(.text._list_add)
    [Anonymous Symbol]                       0x60009af8   Section        0  tos_sched.o(.text._list_add)
    _list_add                                0x60009b09   Thumb Code    10  tos_task.o(.text._list_add)
    [Anonymous Symbol]                       0x60009b08   Section        0  tos_task.o(.text._list_add)
    _list_add                                0x60009b19   Thumb Code    10  tos_tick.o(.text._list_add)
    [Anonymous Symbol]                       0x60009b18   Section        0  tos_tick.o(.text._list_add)
    _list_add                                0x60009b29   Thumb Code    10  tos_timer.o(.text._list_add)
    [Anonymous Symbol]                       0x60009b28   Section        0  tos_timer.o(.text._list_add)
    _list_del                                0x60009b39   Thumb Code     6  tos_mutex.o(.text._list_del)
    [Anonymous Symbol]                       0x60009b38   Section        0  tos_mutex.o(.text._list_del)
    _list_del                                0x60009b41   Thumb Code     6  tos_pend.o(.text._list_del)
    [Anonymous Symbol]                       0x60009b40   Section        0  tos_pend.o(.text._list_del)
    _list_del                                0x60009b49   Thumb Code     6  tos_sched.o(.text._list_del)
    [Anonymous Symbol]                       0x60009b48   Section        0  tos_sched.o(.text._list_del)
    _list_del                                0x60009b51   Thumb Code     6  tos_task.o(.text._list_del)
    [Anonymous Symbol]                       0x60009b50   Section        0  tos_task.o(.text._list_del)
    _list_del                                0x60009b59   Thumb Code     6  tos_tick.o(.text._list_del)
    [Anonymous Symbol]                       0x60009b58   Section        0  tos_tick.o(.text._list_del)
    _list_del                                0x60009b61   Thumb Code     6  tos_timer.o(.text._list_del)
    [Anonymous Symbol]                       0x60009b60   Section        0  tos_timer.o(.text._list_del)
    _mqtt_list_add                           0x60009b69   Thumb Code    10  mqtt_list.o(.text._mqtt_list_add)
    [Anonymous Symbol]                       0x60009b68   Section        0  mqtt_list.o(.text._mqtt_list_add)
    _mqtt_list_del                           0x60009b79   Thumb Code     6  mqtt_list.o(.text._mqtt_list_del)
    [Anonymous Symbol]                       0x60009b78   Section        0  mqtt_list.o(.text._mqtt_list_del)
    _mqtt_list_del_entry                     0x60009b81   Thumb Code    12  mqtt_list.o(.text._mqtt_list_del_entry)
    [Anonymous Symbol]                       0x60009b80   Section        0  mqtt_list.o(.text._mqtt_list_del_entry)
    adjust_request_size                      0x60009b91   Thumb Code    32  tos_mmheap.o(.text.adjust_request_size)
    [Anonymous Symbol]                       0x60009b90   Section        0  tos_mmheap.o(.text.adjust_request_size)
    align_down                               0x60009bb1   Thumb Code     6  tos_mmheap.o(.text.align_down)
    [Anonymous Symbol]                       0x60009bb0   Section        0  tos_mmheap.o(.text.align_down)
    align_up                                 0x60009bb9   Thumb Code    10  tos_mmheap.o(.text.align_up)
    [Anonymous Symbol]                       0x60009bb8   Section        0  tos_mmheap.o(.text.align_up)
    [Anonymous Symbol]                       0x60009bc8   Section        0  mqttclient_iot_explorer_bh1750.o(.text.application_entry)
    at_channel_construct                     0x60009bd1   Thumb Code   100  tos_at.o(.text.at_channel_construct)
    [Anonymous Symbol]                       0x60009bd0   Section        0  tos_at.o(.text.at_channel_construct)
    at_channel_get                           0x60009c39   Thumb Code    44  tos_at.o(.text.at_channel_get)
    [Anonymous Symbol]                       0x60009c38   Section        0  tos_at.o(.text.at_channel_get)
    at_channel_init                          0x60009c69   Thumb Code    46  tos_at.o(.text.at_channel_init)
    [Anonymous Symbol]                       0x60009c68   Section        0  tos_at.o(.text.at_channel_init)
    at_cmd_do_exec                           0x60009c99   Thumb Code   100  tos_at.o(.text.at_cmd_do_exec)
    [Anonymous Symbol]                       0x60009c98   Section        0  tos_at.o(.text.at_cmd_do_exec)
    at_echo_attach                           0x60009d09   Thumb Code    22  tos_at.o(.text.at_echo_attach)
    [Anonymous Symbol]                       0x60009d08   Section        0  tos_at.o(.text.at_echo_attach)
    at_echo_buffer_copy                      0x60009d21   Thumb Code    60  tos_at.o(.text.at_echo_buffer_copy)
    [Anonymous Symbol]                       0x60009d20   Section        0  tos_at.o(.text.at_echo_buffer_copy)
    at_echo_flush                            0x60009d61   Thumb Code    10  tos_at.o(.text.at_echo_flush)
    [Anonymous Symbol]                       0x60009d60   Section        0  tos_at.o(.text.at_echo_flush)
    at_event_do_get                          0x60009d71   Thumb Code    74  tos_at.o(.text.at_event_do_get)
    [Anonymous Symbol]                       0x60009d70   Section        0  tos_at.o(.text.at_event_do_get)
    at_event_table_set                       0x60009dc1   Thumb Code    14  tos_at.o(.text.at_event_table_set)
    [Anonymous Symbol]                       0x60009dc0   Section        0  tos_at.o(.text.at_event_table_set)
    at_get_event                             0x60009dd1   Thumb Code    24  tos_at.o(.text.at_get_event)
    [Anonymous Symbol]                       0x60009dd0   Section        0  tos_at.o(.text.at_get_event)
    at_is_echo_expect                        0x60009de9   Thumb Code    94  tos_at.o(.text.at_is_echo_expect)
    [Anonymous Symbol]                       0x60009de8   Section        0  tos_at.o(.text.at_is_echo_expect)
    at_parser                                0x60009e49   Thumb Code   200  tos_at.o(.text.at_parser)
    [Anonymous Symbol]                       0x60009e48   Section        0  tos_at.o(.text.at_parser)
    at_recv_cache_deinit                     0x60009f31   Thumb Code    32  tos_at.o(.text.at_recv_cache_deinit)
    [Anonymous Symbol]                       0x60009f30   Section        0  tos_at.o(.text.at_recv_cache_deinit)
    at_recv_cache_init                       0x60009f51   Thumb Code    56  tos_at.o(.text.at_recv_cache_init)
    [Anonymous Symbol]                       0x60009f50   Section        0  tos_at.o(.text.at_recv_cache_init)
    at_uart_getchar                          0x60009f89   Thumb Code    62  tos_at.o(.text.at_uart_getchar)
    [Anonymous Symbol]                       0x60009f88   Section        0  tos_at.o(.text.at_uart_getchar)
    at_uart_getchar_from_fifo                0x60009fc9   Thumb Code    40  tos_at.o(.text.at_uart_getchar_from_fifo)
    [Anonymous Symbol]                       0x60009fc8   Section        0  tos_at.o(.text.at_uart_getchar_from_fifo)
    at_uart_line_parse                       0x60009ff1   Thumb Code   240  tos_at.o(.text.at_uart_line_parse)
    [Anonymous Symbol]                       0x60009ff0   Section        0  tos_at.o(.text.at_uart_line_parse)
    at_uart_send                             0x6000a0f9   Thumb Code    56  tos_at.o(.text.at_uart_send)
    [Anonymous Symbol]                       0x6000a0f8   Section        0  tos_at.o(.text.at_uart_send)
    bh1750_dat2lux                           0x6000a131   Thumb Code    48  bh1750_i2c_drv.o(.text.bh1750_dat2lux)
    [Anonymous Symbol]                       0x6000a130   Section        0  bh1750_i2c_drv.o(.text.bh1750_dat2lux)
    bh1750_i2c_init                          0x6000a161   Thumb Code    66  bh1750_i2c_drv.o(.text.bh1750_i2c_init)
    [Anonymous Symbol]                       0x6000a160   Section        0  bh1750_i2c_drv.o(.text.bh1750_i2c_init)
    [Anonymous Symbol]                       0x6000a1a8   Section        0  bh1750_i2c_drv.o(.text.bh1750_init)
    bh1750_read_dat                          0x6000a1b9   Thumb Code    76  bh1750_i2c_drv.o(.text.bh1750_read_dat)
    [Anonymous Symbol]                       0x6000a1b8   Section        0  bh1750_i2c_drv.o(.text.bh1750_read_dat)
    [Anonymous Symbol]                       0x6000a208   Section        0  bh1750_i2c_drv.o(.text.bh1750_read_lux)
    bh1750_send_cmd                          0x6000a239   Thumb Code    98  bh1750_i2c_drv.o(.text.bh1750_send_cmd)
    [Anonymous Symbol]                       0x6000a238   Section        0  bh1750_i2c_drv.o(.text.bh1750_send_cmd)
    [Anonymous Symbol]                       0x6000a2a0   Section        0  bh1750_i2c_drv.o(.text.bh1750_start)
    [Anonymous Symbol]                       0x6000a2a8   Section        0  main.o(.text.blink_entry)
    blk_absorb                               0x6000a349   Thumb Code    28  tos_mmheap.o(.text.blk_absorb)
    [Anonymous Symbol]                       0x6000a348   Section        0  tos_mmheap.o(.text.blk_absorb)
    blk_can_split                            0x6000a369   Thumb Code    24  tos_mmheap.o(.text.blk_can_split)
    [Anonymous Symbol]                       0x6000a368   Section        0  tos_mmheap.o(.text.blk_can_split)
    blk_from_ptr                             0x6000a381   Thumb Code     4  tos_mmheap.o(.text.blk_from_ptr)
    [Anonymous Symbol]                       0x6000a380   Section        0  tos_mmheap.o(.text.blk_from_ptr)
    blk_insert                               0x6000a389   Thumb Code    32  tos_mmheap.o(.text.blk_insert)
    [Anonymous Symbol]                       0x6000a388   Section        0  tos_mmheap.o(.text.blk_insert)
    blk_is_free                              0x6000a3a9   Thumb Code     8  tos_mmheap.o(.text.blk_is_free)
    [Anonymous Symbol]                       0x6000a3a8   Section        0  tos_mmheap.o(.text.blk_is_free)
    blk_is_prev_free                         0x6000a3b1   Thumb Code     8  tos_mmheap.o(.text.blk_is_prev_free)
    [Anonymous Symbol]                       0x6000a3b0   Section        0  tos_mmheap.o(.text.blk_is_prev_free)
    blk_link_next                            0x6000a3b9   Thumb Code    12  tos_mmheap.o(.text.blk_link_next)
    [Anonymous Symbol]                       0x6000a3b8   Section        0  tos_mmheap.o(.text.blk_link_next)
    blk_locate_free                          0x6000a3c9   Thumb Code    60  tos_mmheap.o(.text.blk_locate_free)
    [Anonymous Symbol]                       0x6000a3c8   Section        0  tos_mmheap.o(.text.blk_locate_free)
    blk_mark_as_free                         0x6000a409   Thumb Code    20  tos_mmheap.o(.text.blk_mark_as_free)
    [Anonymous Symbol]                       0x6000a408   Section        0  tos_mmheap.o(.text.blk_mark_as_free)
    blk_mark_as_used                         0x6000a421   Thumb Code    20  tos_mmheap.o(.text.blk_mark_as_used)
    [Anonymous Symbol]                       0x6000a420   Section        0  tos_mmheap.o(.text.blk_mark_as_used)
    blk_merge_next                           0x6000a439   Thumb Code    34  tos_mmheap.o(.text.blk_merge_next)
    [Anonymous Symbol]                       0x6000a438   Section        0  tos_mmheap.o(.text.blk_merge_next)
    blk_merge_prev                           0x6000a461   Thumb Code    36  tos_mmheap.o(.text.blk_merge_prev)
    [Anonymous Symbol]                       0x6000a460   Section        0  tos_mmheap.o(.text.blk_merge_prev)
    blk_next                                 0x6000a489   Thumb Code    26  tos_mmheap.o(.text.blk_next)
    [Anonymous Symbol]                       0x6000a488   Section        0  tos_mmheap.o(.text.blk_next)
    blk_prepare_used                         0x6000a4a9   Thumb Code    28  tos_mmheap.o(.text.blk_prepare_used)
    [Anonymous Symbol]                       0x6000a4a8   Section        0  tos_mmheap.o(.text.blk_prepare_used)
    blk_prev                                 0x6000a4c9   Thumb Code     4  tos_mmheap.o(.text.blk_prev)
    [Anonymous Symbol]                       0x6000a4c8   Section        0  tos_mmheap.o(.text.blk_prev)
    blk_remove                               0x6000a4d1   Thumb Code    32  tos_mmheap.o(.text.blk_remove)
    [Anonymous Symbol]                       0x6000a4d0   Section        0  tos_mmheap.o(.text.blk_remove)
    blk_search_suitable                      0x6000a4f1   Thumb Code    92  tos_mmheap.o(.text.blk_search_suitable)
    [Anonymous Symbol]                       0x6000a4f0   Section        0  tos_mmheap.o(.text.blk_search_suitable)
    blk_set_free                             0x6000a551   Thumb Code    10  tos_mmheap.o(.text.blk_set_free)
    [Anonymous Symbol]                       0x6000a550   Section        0  tos_mmheap.o(.text.blk_set_free)
    blk_set_prev_free                        0x6000a561   Thumb Code    10  tos_mmheap.o(.text.blk_set_prev_free)
    [Anonymous Symbol]                       0x6000a560   Section        0  tos_mmheap.o(.text.blk_set_prev_free)
    blk_set_prev_used                        0x6000a571   Thumb Code    10  tos_mmheap.o(.text.blk_set_prev_used)
    [Anonymous Symbol]                       0x6000a570   Section        0  tos_mmheap.o(.text.blk_set_prev_used)
    blk_set_size                             0x6000a581   Thumb Code    12  tos_mmheap.o(.text.blk_set_size)
    [Anonymous Symbol]                       0x6000a580   Section        0  tos_mmheap.o(.text.blk_set_size)
    blk_set_used                             0x6000a591   Thumb Code    10  tos_mmheap.o(.text.blk_set_used)
    [Anonymous Symbol]                       0x6000a590   Section        0  tos_mmheap.o(.text.blk_set_used)
    blk_size                                 0x6000a5a1   Thumb Code     8  tos_mmheap.o(.text.blk_size)
    [Anonymous Symbol]                       0x6000a5a0   Section        0  tos_mmheap.o(.text.blk_size)
    blk_split                                0x6000a5a9   Thumb Code    52  tos_mmheap.o(.text.blk_split)
    [Anonymous Symbol]                       0x6000a5a8   Section        0  tos_mmheap.o(.text.blk_split)
    blk_to_ptr                               0x6000a5e1   Thumb Code     4  tos_mmheap.o(.text.blk_to_ptr)
    [Anonymous Symbol]                       0x6000a5e0   Section        0  tos_mmheap.o(.text.blk_to_ptr)
    blk_trim_free                            0x6000a5e9   Thumb Code    46  tos_mmheap.o(.text.blk_trim_free)
    [Anonymous Symbol]                       0x6000a5e8   Section        0  tos_mmheap.o(.text.blk_trim_free)
    blk_trim_used                            0x6000a619   Thumb Code    42  tos_mmheap.o(.text.blk_trim_used)
    [Anonymous Symbol]                       0x6000a618   Section        0  tos_mmheap.o(.text.blk_trim_used)
    [Anonymous Symbol]                       0x6000a648   Section        0  mcu_init.o(.text.board_init)
    [Anonymous Symbol]                       0x6000a718   Section        0  mqttpacket.o(.text.bufchar)
    buffer_skip_whitespace                   0x6000a749   Thumb Code    70  cjson.o(.text.buffer_skip_whitespace)
    [Anonymous Symbol]                       0x6000a748   Section        0  cjson.o(.text.buffer_skip_whitespace)
    [Anonymous Symbol]                       0x6000a790   Section        0  cjson.o(.text.cJSON_Delete)
    [Anonymous Symbol]                       0x6000a7e0   Section        0  cjson.o(.text.cJSON_GetObjectItem)
    [Anonymous Symbol]                       0x6000a7f0   Section        0  cjson.o(.text.cJSON_GetStringValue)
    [Anonymous Symbol]                       0x6000a808   Section        0  cjson.o(.text.cJSON_IsString)
    cJSON_New_Item                           0x6000a821   Thumb Code    26  cjson.o(.text.cJSON_New_Item)
    [Anonymous Symbol]                       0x6000a820   Section        0  cjson.o(.text.cJSON_New_Item)
    [Anonymous Symbol]                       0x6000a840   Section        0  cjson.o(.text.cJSON_Parse)
    [Anonymous Symbol]                       0x6000a850   Section        0  cjson.o(.text.cJSON_ParseWithOpts)
    case_insensitive_strcmp                  0x6000a929   Thumb Code    86  cjson.o(.text.case_insensitive_strcmp)
    [Anonymous Symbol]                       0x6000a928   Section        0  cjson.o(.text.case_insensitive_strcmp)
    [Anonymous Symbol]                       0x6000a980   Section        0  tos_cpu.o(.text.cpu_context_switch)
    [Anonymous Symbol]                       0x6000a988   Section        0  tos_cpu.o(.text.cpu_init)
    [Anonymous Symbol]                       0x6000a9b8   Section        0  tos_cpu.o(.text.cpu_irq_context_switch)
    [Anonymous Symbol]                       0x6000a9c0   Section        0  tos_cpu.o(.text.cpu_sched_start)
    [Anonymous Symbol]                       0x6000a9c8   Section        0  tos_cpu.o(.text.cpu_systick_init)
    [Anonymous Symbol]                       0x6000a9e0   Section        0  tos_cpu.o(.text.cpu_task_stk_init)
    default_msg_handler                      0x6000aa79   Thumb Code    56  mqttclient.o(.text.default_msg_handler)
    [Anonymous Symbol]                       0x6000aa78   Section        0  mqttclient.o(.text.default_msg_handler)
    [Anonymous Symbol]                       0x6000aaf8   Section        0  delay.o(.text.delay_us)
    dutyCycleToReloadValue                   0x6000ab31   Thumb Code    24  fsl_pwm.o(.text.dutyCycleToReloadValue)
    [Anonymous Symbol]                       0x6000ab30   Section        0  fsl_pwm.o(.text.dutyCycleToReloadValue)
    esp8266_close                            0x6000ab49   Thumb Code    48  esp8266.o(.text.esp8266_close)
    [Anonymous Symbol]                       0x6000ab48   Section        0  esp8266.o(.text.esp8266_close)
    esp8266_connect                          0x6000ab91   Thumb Code   112  esp8266.o(.text.esp8266_connect)
    [Anonymous Symbol]                       0x6000ab90   Section        0  esp8266.o(.text.esp8266_connect)
    esp8266_echo_close                       0x6000ac21   Thumb Code    48  esp8266.o(.text.esp8266_echo_close)
    [Anonymous Symbol]                       0x6000ac20   Section        0  esp8266.o(.text.esp8266_echo_close)
    esp8266_incoming_data_process            0x6000ac59   Thumb Code   176  esp8266.o(.text.esp8266_incoming_data_process)
    [Anonymous Symbol]                       0x6000ac58   Section        0  esp8266.o(.text.esp8266_incoming_data_process)
    esp8266_init                             0x6000ad09   Thumb Code   104  esp8266.o(.text.esp8266_init)
    [Anonymous Symbol]                       0x6000ad08   Section        0  esp8266.o(.text.esp8266_init)
    esp8266_is_link_broken                   0x6000adf1   Thumb Code    36  esp8266.o(.text.esp8266_is_link_broken)
    [Anonymous Symbol]                       0x6000adf0   Section        0  esp8266.o(.text.esp8266_is_link_broken)
    [Anonymous Symbol]                       0x6000ae30   Section        0  esp8266.o(.text.esp8266_join_ap)
    esp8266_multilink_set                    0x6000ae99   Thumb Code    68  esp8266.o(.text.esp8266_multilink_set)
    [Anonymous Symbol]                       0x6000ae98   Section        0  esp8266.o(.text.esp8266_multilink_set)
    esp8266_net_mode_set                     0x6000aef1   Thumb Code    64  esp8266.o(.text.esp8266_net_mode_set)
    [Anonymous Symbol]                       0x6000aef0   Section        0  esp8266.o(.text.esp8266_net_mode_set)
    esp8266_parse_domain                     0x6000af41   Thumb Code   104  esp8266.o(.text.esp8266_parse_domain)
    [Anonymous Symbol]                       0x6000af40   Section        0  esp8266.o(.text.esp8266_parse_domain)
    esp8266_reconnect_init                   0x6000afe9   Thumb Code    46  esp8266.o(.text.esp8266_reconnect_init)
    [Anonymous Symbol]                       0x6000afe8   Section        0  esp8266.o(.text.esp8266_reconnect_init)
    esp8266_recv                             0x6000b019   Thumb Code     8  esp8266.o(.text.esp8266_recv)
    [Anonymous Symbol]                       0x6000b018   Section        0  esp8266.o(.text.esp8266_recv)
    esp8266_recv_timeout                     0x6000b021   Thumb Code     8  esp8266.o(.text.esp8266_recv_timeout)
    [Anonymous Symbol]                       0x6000b020   Section        0  esp8266.o(.text.esp8266_recv_timeout)
    esp8266_recvfrom                         0x6000b029   Thumb Code    12  esp8266.o(.text.esp8266_recvfrom)
    [Anonymous Symbol]                       0x6000b028   Section        0  esp8266.o(.text.esp8266_recvfrom)
    esp8266_recvfrom_timeout                 0x6000b039   Thumb Code     8  esp8266.o(.text.esp8266_recvfrom_timeout)
    [Anonymous Symbol]                       0x6000b038   Section        0  esp8266.o(.text.esp8266_recvfrom_timeout)
    esp8266_restore                          0x6000b041   Thumb Code    64  esp8266.o(.text.esp8266_restore)
    [Anonymous Symbol]                       0x6000b040   Section        0  esp8266.o(.text.esp8266_restore)
    [Anonymous Symbol]                       0x6000b098   Section        0  esp8266.o(.text.esp8266_sal_init)
    esp8266_send                             0x6000b0d1   Thumb Code   184  esp8266.o(.text.esp8266_send)
    [Anonymous Symbol]                       0x6000b0d0   Section        0  esp8266.o(.text.esp8266_send)
    esp8266_send_mode_set                    0x6000b189   Thumb Code    64  esp8266.o(.text.esp8266_send_mode_set)
    [Anonymous Symbol]                       0x6000b188   Section        0  esp8266.o(.text.esp8266_send_mode_set)
    esp8266_sendto                           0x6000b1d9   Thumb Code   216  esp8266.o(.text.esp8266_sendto)
    [Anonymous Symbol]                       0x6000b1d8   Section        0  esp8266.o(.text.esp8266_sendto)
    event_do_post                            0x6000b2d1   Thumb Code   124  tos_event.o(.text.event_do_post)
    [Anonymous Symbol]                       0x6000b2d0   Section        0  tos_event.o(.text.event_do_post)
    event_is_match                           0x6000b351   Thumb Code    40  tos_event.o(.text.event_is_match)
    [Anonymous Symbol]                       0x6000b350   Section        0  tos_event.o(.text.event_is_match)
    [Anonymous Symbol]                       0x6000b378   Section        0  fsl_debug_console.o(.text.fputc)
    generic_fls                              0x6000b3a9   Thumb Code    12  tos_mmheap.o(.text.generic_fls)
    [Anonymous Symbol]                       0x6000b3a8   Section        0  tos_mmheap.o(.text.generic_fls)
    get_object_item                          0x6000b3b9   Thumb Code    66  cjson.o(.text.get_object_item)
    [Anonymous Symbol]                       0x6000b3b8   Section        0  cjson.o(.text.get_object_item)
    insert_free_block                        0x6000b401   Thumb Code    68  tos_mmheap.o(.text.insert_free_block)
    [Anonymous Symbol]                       0x6000b400   Section        0  tos_mmheap.o(.text.insert_free_block)
    knl_idle_entry                           0x6000b449   Thumb Code     6  tos_sys.o(.text.knl_idle_entry)
    [Anonymous Symbol]                       0x6000b448   Section        0  tos_sys.o(.text.knl_idle_entry)
    [Anonymous Symbol]                       0x6000b450   Section        0  tos_sys.o(.text.knl_idle_init)
    [Anonymous Symbol]                       0x6000b4a0   Section        0  tos_sys.o(.text.knl_is_idle)
    [Anonymous Symbol]                       0x6000b4b8   Section        0  tos_sys.o(.text.knl_is_inirq)
    [Anonymous Symbol]                       0x6000b4d0   Section        0  tos_sys.o(.text.knl_is_sched_locked)
    [Anonymous Symbol]                       0x6000b4e8   Section        0  tos_sys.o(.text.knl_is_self)
    knl_object_alloc_is_dynamic              0x6000b501   Thumb Code    12  tos_mutex.o(.text.knl_object_alloc_is_dynamic)
    [Anonymous Symbol]                       0x6000b500   Section        0  tos_mutex.o(.text.knl_object_alloc_is_dynamic)
    knl_object_alloc_is_dynamic              0x6000b511   Thumb Code    12  tos_sem.o(.text.knl_object_alloc_is_dynamic)
    [Anonymous Symbol]                       0x6000b510   Section        0  tos_sem.o(.text.knl_object_alloc_is_dynamic)
    knl_object_alloc_is_dynamic              0x6000b521   Thumb Code    12  tos_task.o(.text.knl_object_alloc_is_dynamic)
    [Anonymous Symbol]                       0x6000b520   Section        0  tos_task.o(.text.knl_object_alloc_is_dynamic)
    knl_object_alloc_is_static               0x6000b531   Thumb Code    12  tos_char_fifo.o(.text.knl_object_alloc_is_static)
    [Anonymous Symbol]                       0x6000b530   Section        0  tos_char_fifo.o(.text.knl_object_alloc_is_static)
    knl_object_alloc_is_static               0x6000b541   Thumb Code    12  tos_ring_queue.o(.text.knl_object_alloc_is_static)
    [Anonymous Symbol]                       0x6000b540   Section        0  tos_ring_queue.o(.text.knl_object_alloc_is_static)
    knl_object_alloc_is_static               0x6000b551   Thumb Code    12  tos_task.o(.text.knl_object_alloc_is_static)
    [Anonymous Symbol]                       0x6000b550   Section        0  tos_task.o(.text.knl_object_alloc_is_static)
    knl_object_alloc_reset                   0x6000b561   Thumb Code     6  tos_char_fifo.o(.text.knl_object_alloc_reset)
    [Anonymous Symbol]                       0x6000b560   Section        0  tos_char_fifo.o(.text.knl_object_alloc_reset)
    knl_object_alloc_reset                   0x6000b569   Thumb Code     6  tos_ring_queue.o(.text.knl_object_alloc_reset)
    [Anonymous Symbol]                       0x6000b568   Section        0  tos_ring_queue.o(.text.knl_object_alloc_reset)
    knl_object_alloc_reset                   0x6000b571   Thumb Code     6  tos_task.o(.text.knl_object_alloc_reset)
    [Anonymous Symbol]                       0x6000b570   Section        0  tos_task.o(.text.knl_object_alloc_reset)
    knl_object_alloc_set_static              0x6000b579   Thumb Code     6  tos_char_fifo.o(.text.knl_object_alloc_set_static)
    [Anonymous Symbol]                       0x6000b578   Section        0  tos_char_fifo.o(.text.knl_object_alloc_set_static)
    knl_object_alloc_set_static              0x6000b581   Thumb Code     6  tos_ring_queue.o(.text.knl_object_alloc_set_static)
    [Anonymous Symbol]                       0x6000b580   Section        0  tos_ring_queue.o(.text.knl_object_alloc_set_static)
    knl_object_alloc_set_static              0x6000b589   Thumb Code     6  tos_sem.o(.text.knl_object_alloc_set_static)
    [Anonymous Symbol]                       0x6000b588   Section        0  tos_sem.o(.text.knl_object_alloc_set_static)
    knl_object_alloc_set_static              0x6000b591   Thumb Code     6  tos_task.o(.text.knl_object_alloc_set_static)
    [Anonymous Symbol]                       0x6000b590   Section        0  tos_task.o(.text.knl_object_alloc_set_static)
    knl_object_deinit                        0x6000b599   Thumb Code     6  tos_char_fifo.o(.text.knl_object_deinit)
    [Anonymous Symbol]                       0x6000b598   Section        0  tos_char_fifo.o(.text.knl_object_deinit)
    knl_object_deinit                        0x6000b5a1   Thumb Code     6  tos_mutex.o(.text.knl_object_deinit)
    [Anonymous Symbol]                       0x6000b5a0   Section        0  tos_mutex.o(.text.knl_object_deinit)
    knl_object_deinit                        0x6000b5a9   Thumb Code     6  tos_ring_queue.o(.text.knl_object_deinit)
    [Anonymous Symbol]                       0x6000b5a8   Section        0  tos_ring_queue.o(.text.knl_object_deinit)
    knl_object_deinit                        0x6000b5b1   Thumb Code     6  tos_sem.o(.text.knl_object_deinit)
    [Anonymous Symbol]                       0x6000b5b0   Section        0  tos_sem.o(.text.knl_object_deinit)
    knl_object_deinit                        0x6000b5b9   Thumb Code     6  tos_stopwatch.o(.text.knl_object_deinit)
    [Anonymous Symbol]                       0x6000b5b8   Section        0  tos_stopwatch.o(.text.knl_object_deinit)
    knl_object_deinit                        0x6000b5c1   Thumb Code     6  tos_task.o(.text.knl_object_deinit)
    [Anonymous Symbol]                       0x6000b5c0   Section        0  tos_task.o(.text.knl_object_deinit)
    knl_object_init                          0x6000b5c9   Thumb Code     8  tos_char_fifo.o(.text.knl_object_init)
    [Anonymous Symbol]                       0x6000b5c8   Section        0  tos_char_fifo.o(.text.knl_object_init)
    knl_object_init                          0x6000b5d1   Thumb Code     8  tos_event.o(.text.knl_object_init)
    [Anonymous Symbol]                       0x6000b5d0   Section        0  tos_event.o(.text.knl_object_init)
    knl_object_init                          0x6000b5d9   Thumb Code     8  tos_mutex.o(.text.knl_object_init)
    [Anonymous Symbol]                       0x6000b5d8   Section        0  tos_mutex.o(.text.knl_object_init)
    knl_object_init                          0x6000b5e1   Thumb Code     8  tos_ring_queue.o(.text.knl_object_init)
    [Anonymous Symbol]                       0x6000b5e0   Section        0  tos_ring_queue.o(.text.knl_object_init)
    knl_object_init                          0x6000b5e9   Thumb Code     8  tos_sem.o(.text.knl_object_init)
    [Anonymous Symbol]                       0x6000b5e8   Section        0  tos_sem.o(.text.knl_object_init)
    knl_object_init                          0x6000b5f1   Thumb Code     8  tos_stopwatch.o(.text.knl_object_init)
    [Anonymous Symbol]                       0x6000b5f0   Section        0  tos_stopwatch.o(.text.knl_object_init)
    knl_object_init                          0x6000b5f9   Thumb Code     8  tos_task.o(.text.knl_object_init)
    [Anonymous Symbol]                       0x6000b5f8   Section        0  tos_task.o(.text.knl_object_init)
    knl_object_verify                        0x6000b601   Thumb Code    16  tos_char_fifo.o(.text.knl_object_verify)
    [Anonymous Symbol]                       0x6000b600   Section        0  tos_char_fifo.o(.text.knl_object_verify)
    knl_object_verify                        0x6000b611   Thumb Code    16  tos_event.o(.text.knl_object_verify)
    [Anonymous Symbol]                       0x6000b610   Section        0  tos_event.o(.text.knl_object_verify)
    knl_object_verify                        0x6000b621   Thumb Code    16  tos_mutex.o(.text.knl_object_verify)
    [Anonymous Symbol]                       0x6000b620   Section        0  tos_mutex.o(.text.knl_object_verify)
    knl_object_verify                        0x6000b631   Thumb Code    16  tos_ring_queue.o(.text.knl_object_verify)
    [Anonymous Symbol]                       0x6000b630   Section        0  tos_ring_queue.o(.text.knl_object_verify)
    knl_object_verify                        0x6000b641   Thumb Code    16  tos_sem.o(.text.knl_object_verify)
    [Anonymous Symbol]                       0x6000b640   Section        0  tos_sem.o(.text.knl_object_verify)
    knl_object_verify                        0x6000b651   Thumb Code    16  tos_stopwatch.o(.text.knl_object_verify)
    [Anonymous Symbol]                       0x6000b650   Section        0  tos_stopwatch.o(.text.knl_object_verify)
    knl_object_verify                        0x6000b661   Thumb Code    16  tos_task.o(.text.knl_object_verify)
    [Anonymous Symbol]                       0x6000b660   Section        0  tos_task.o(.text.knl_object_verify)
    [Anonymous Symbol]                       0x6000b670   Section        0  tos_sys.o(.text.knl_sched)
    [Anonymous Symbol]                       0x6000b6b0   Section        0  main.o(.text.main)
    mapping_insert                           0x6000b771   Thumb Code    48  tos_mmheap.o(.text.mapping_insert)
    [Anonymous Symbol]                       0x6000b770   Section        0  tos_mmheap.o(.text.mapping_insert)
    mapping_search                           0x6000b7a1   Thumb Code    44  tos_mmheap.o(.text.mapping_search)
    [Anonymous Symbol]                       0x6000b7a0   Section        0  tos_mmheap.o(.text.mapping_search)
    mmheap_ctl_init                          0x6000b7d1   Thumb Code    82  tos_mmheap.o(.text.mmheap_ctl_init)
    [Anonymous Symbol]                       0x6000b7d0   Section        0  tos_mmheap.o(.text.mmheap_ctl_init)
    [Anonymous Symbol]                       0x6000b828   Section        0  tos_mmheap.o(.text.mmheap_init_with_pool)
    mmheap_pool_is_exist                     0x6000b841   Thumb Code    46  tos_mmheap.o(.text.mmheap_pool_is_exist)
    [Anonymous Symbol]                       0x6000b840   Section        0  tos_mmheap.o(.text.mmheap_pool_is_exist)
    mmheap_pool_is_full                      0x6000b871   Thumb Code    20  tos_mmheap.o(.text.mmheap_pool_is_full)
    [Anonymous Symbol]                       0x6000b870   Section        0  tos_mmheap.o(.text.mmheap_pool_is_full)
    mmheap_pool_record                       0x6000b889   Thumb Code    22  tos_mmheap.o(.text.mmheap_pool_record)
    [Anonymous Symbol]                       0x6000b888   Section        0  tos_mmheap.o(.text.mmheap_pool_record)
    mqtt_ack_handler_create                  0x6000b8a1   Thumb Code    82  mqttclient.o(.text.mqtt_ack_handler_create)
    [Anonymous Symbol]                       0x6000b8a0   Section        0  mqttclient.o(.text.mqtt_ack_handler_create)
    mqtt_ack_handler_destroy                 0x6000b8f9   Thumb Code    26  mqttclient.o(.text.mqtt_ack_handler_destroy)
    [Anonymous Symbol]                       0x6000b8f8   Section        0  mqttclient.o(.text.mqtt_ack_handler_destroy)
    mqtt_ack_handler_is_maximum              0x6000b919   Thumb Code    22  mqttclient.o(.text.mqtt_ack_handler_is_maximum)
    [Anonymous Symbol]                       0x6000b918   Section        0  mqttclient.o(.text.mqtt_ack_handler_is_maximum)
    mqtt_ack_handler_resend                  0x6000b931   Thumb Code   108  mqttclient.o(.text.mqtt_ack_handler_resend)
    [Anonymous Symbol]                       0x6000b930   Section        0  mqttclient.o(.text.mqtt_ack_handler_resend)
    mqtt_ack_list_node_is_exist              0x6000b9e9   Thumb Code    56  mqttclient.o(.text.mqtt_ack_list_node_is_exist)
    [Anonymous Symbol]                       0x6000b9e8   Section        0  mqttclient.o(.text.mqtt_ack_list_node_is_exist)
    mqtt_ack_list_record                     0x6000ba21   Thumb Code    76  mqttclient.o(.text.mqtt_ack_list_record)
    [Anonymous Symbol]                       0x6000ba20   Section        0  mqttclient.o(.text.mqtt_ack_list_record)
    mqtt_ack_list_scan                       0x6000ba71   Thumb Code   124  mqttclient.o(.text.mqtt_ack_list_scan)
    [Anonymous Symbol]                       0x6000ba70   Section        0  mqttclient.o(.text.mqtt_ack_list_scan)
    mqtt_ack_list_unrecord                   0x6000baf1   Thumb Code    80  mqttclient.o(.text.mqtt_ack_list_unrecord)
    [Anonymous Symbol]                       0x6000baf0   Section        0  mqttclient.o(.text.mqtt_ack_list_unrecord)
    mqtt_add_ack_handler_num                 0x6000bb41   Thumb Code    40  mqttclient.o(.text.mqtt_add_ack_handler_num)
    [Anonymous Symbol]                       0x6000bb40   Section        0  mqttclient.o(.text.mqtt_add_ack_handler_num)
    mqtt_clean_session                       0x6000bb69   Thumb Code   148  mqttclient.o(.text.mqtt_clean_session)
    [Anonymous Symbol]                       0x6000bb68   Section        0  mqttclient.o(.text.mqtt_clean_session)
    [Anonymous Symbol]                       0x6000bc00   Section        0  mqttclient.o(.text.mqtt_connect)
    mqtt_connect_with_results                0x6000bc09   Thumb Code   476  mqttclient.o(.text.mqtt_connect_with_results)
    [Anonymous Symbol]                       0x6000bc08   Section        0  mqttclient.o(.text.mqtt_connect_with_results)
    mqtt_decode_packet                       0x6000be41   Thumb Code    90  mqttclient.o(.text.mqtt_decode_packet)
    [Anonymous Symbol]                       0x6000be40   Section        0  mqttclient.o(.text.mqtt_decode_packet)
    mqtt_deliver_message                     0x6000bea1   Thumb Code   106  mqttclient.o(.text.mqtt_deliver_message)
    [Anonymous Symbol]                       0x6000bea0   Section        0  mqttclient.o(.text.mqtt_deliver_message)
    mqtt_get_client_state                    0x6000bf11   Thumb Code     6  mqttclient.o(.text.mqtt_get_client_state)
    [Anonymous Symbol]                       0x6000bf10   Section        0  mqttclient.o(.text.mqtt_get_client_state)
    mqtt_get_msg_handler                     0x6000bf19   Thumb Code    68  mqttclient.o(.text.mqtt_get_msg_handler)
    [Anonymous Symbol]                       0x6000bf18   Section        0  mqttclient.o(.text.mqtt_get_msg_handler)
    mqtt_get_next_packet_id                  0x6000bf61   Thumb Code    40  mqttclient.o(.text.mqtt_get_next_packet_id)
    [Anonymous Symbol]                       0x6000bf60   Section        0  mqttclient.o(.text.mqtt_get_next_packet_id)
    mqtt_init                                0x6000bf89   Thumb Code   192  mqttclient.o(.text.mqtt_init)
    [Anonymous Symbol]                       0x6000bf88   Section        0  mqttclient.o(.text.mqtt_init)
    mqtt_is_connected                        0x6000c081   Thumb Code    26  mqttclient.o(.text.mqtt_is_connected)
    [Anonymous Symbol]                       0x6000c080   Section        0  mqttclient.o(.text.mqtt_is_connected)
    mqtt_is_topic_equals                     0x6000c0a1   Thumb Code    46  mqttclient.o(.text.mqtt_is_topic_equals)
    [Anonymous Symbol]                       0x6000c0a0   Section        0  mqttclient.o(.text.mqtt_is_topic_equals)
    [Anonymous Symbol]                       0x6000c0d0   Section        0  mqttclient.o(.text.mqtt_keep_alive)
    [Anonymous Symbol]                       0x6000c1a0   Section        0  mqttclient.o(.text.mqtt_lease)
    [Anonymous Symbol]                       0x6000c1d0   Section        0  mqtt_list.o(.text.mqtt_list_add_tail)
    [Anonymous Symbol]                       0x6000c1e0   Section        0  mqtt_list.o(.text.mqtt_list_del)
    [Anonymous Symbol]                       0x6000c1f0   Section        0  mqtt_list.o(.text.mqtt_list_del_init)
    [Anonymous Symbol]                       0x6000c200   Section        0  mqtt_list.o(.text.mqtt_list_init)
    [Anonymous Symbol]                       0x6000c208   Section        0  mqtt_list.o(.text.mqtt_list_is_empty)
    mqtt_msg_handler_create                  0x6000c219   Thumb Code    40  mqttclient.o(.text.mqtt_msg_handler_create)
    [Anonymous Symbol]                       0x6000c218   Section        0  mqttclient.o(.text.mqtt_msg_handler_create)
    mqtt_msg_handler_destory                 0x6000c241   Thumb Code    26  mqttclient.o(.text.mqtt_msg_handler_destory)
    [Anonymous Symbol]                       0x6000c240   Section        0  mqttclient.o(.text.mqtt_msg_handler_destory)
    mqtt_msg_handler_is_exist                0x6000c261   Thumb Code   108  mqttclient.o(.text.mqtt_msg_handler_is_exist)
    [Anonymous Symbol]                       0x6000c260   Section        0  mqttclient.o(.text.mqtt_msg_handler_is_exist)
    mqtt_msg_handlers_install                0x6000c2e9   Thumb Code    54  mqttclient.o(.text.mqtt_msg_handlers_install)
    [Anonymous Symbol]                       0x6000c2e8   Section        0  mqttclient.o(.text.mqtt_msg_handlers_install)
    mqtt_new_message_data                    0x6000c321   Thumb Code    30  mqttclient.o(.text.mqtt_new_message_data)
    [Anonymous Symbol]                       0x6000c320   Section        0  mqttclient.o(.text.mqtt_new_message_data)
    mqtt_packet_drain                        0x6000c341   Thumb Code    74  mqttclient.o(.text.mqtt_packet_drain)
    [Anonymous Symbol]                       0x6000c340   Section        0  mqttclient.o(.text.mqtt_packet_drain)
    mqtt_packet_handle                       0x6000c391   Thumb Code   150  mqttclient.o(.text.mqtt_packet_handle)
    [Anonymous Symbol]                       0x6000c390   Section        0  mqttclient.o(.text.mqtt_packet_handle)
    mqtt_puback_and_pubcomp_packet_handle    0x6000c429   Thumb Code    60  mqttclient.o(.text.mqtt_puback_and_pubcomp_packet_handle)
    [Anonymous Symbol]                       0x6000c428   Section        0  mqttclient.o(.text.mqtt_puback_and_pubcomp_packet_handle)
    [Anonymous Symbol]                       0x6000c468   Section        0  mqttclient.o(.text.mqtt_publish)
    mqtt_publish_ack_packet                  0x6000c5e9   Thumb Code   116  mqttclient.o(.text.mqtt_publish_ack_packet)
    [Anonymous Symbol]                       0x6000c5e8   Section        0  mqttclient.o(.text.mqtt_publish_ack_packet)
    mqtt_publish_packet_handle               0x6000c661   Thumb Code   228  mqttclient.o(.text.mqtt_publish_packet_handle)
    [Anonymous Symbol]                       0x6000c660   Section        0  mqttclient.o(.text.mqtt_publish_packet_handle)
    mqtt_pubrec_and_pubrel_packet_handle     0x6000c749   Thumb Code    78  mqttclient.o(.text.mqtt_pubrec_and_pubrel_packet_handle)
    [Anonymous Symbol]                       0x6000c748   Section        0  mqttclient.o(.text.mqtt_pubrec_and_pubrel_packet_handle)
    mqtt_read_buf_malloc                     0x6000c799   Thumb Code   144  mqttclient.o(.text.mqtt_read_buf_malloc)
    [Anonymous Symbol]                       0x6000c798   Section        0  mqttclient.o(.text.mqtt_read_buf_malloc)
    mqtt_read_packet                         0x6000c851   Thumb Code   204  mqttclient.o(.text.mqtt_read_packet)
    [Anonymous Symbol]                       0x6000c850   Section        0  mqttclient.o(.text.mqtt_read_packet)
    mqtt_send_packet                         0x6000c921   Thumb Code   114  mqttclient.o(.text.mqtt_send_packet)
    [Anonymous Symbol]                       0x6000c920   Section        0  mqttclient.o(.text.mqtt_send_packet)
    [Anonymous Symbol]                       0x6000c998   Section        0  mqttclient.o(.text.mqtt_set_clean_session)
    [Anonymous Symbol]                       0x6000c9f8   Section        0  mqttclient.o(.text.mqtt_set_client_id)
    mqtt_set_client_state                    0x6000ca49   Thumb Code    28  mqttclient.o(.text.mqtt_set_client_state)
    [Anonymous Symbol]                       0x6000ca48   Section        0  mqttclient.o(.text.mqtt_set_client_state)
    [Anonymous Symbol]                       0x6000ca68   Section        0  mqttclient.o(.text.mqtt_set_host)
    [Anonymous Symbol]                       0x6000cab0   Section        0  mqttclient.o(.text.mqtt_set_password)
    [Anonymous Symbol]                       0x6000cb00   Section        0  mqttclient.o(.text.mqtt_set_port)
    mqtt_set_publish_dup                     0x6000cb49   Thumb Code    40  mqttclient.o(.text.mqtt_set_publish_dup)
    [Anonymous Symbol]                       0x6000cb48   Section        0  mqttclient.o(.text.mqtt_set_publish_dup)
    [Anonymous Symbol]                       0x6000cb70   Section        0  mqttclient.o(.text.mqtt_set_user_name)
    [Anonymous Symbol]                       0x6000cbc0   Section        0  mqttclient.o(.text.mqtt_sleep_ms)
    mqtt_suback_packet_handle                0x6000cbd1   Thumb Code   116  mqttclient.o(.text.mqtt_suback_packet_handle)
    [Anonymous Symbol]                       0x6000cbd0   Section        0  mqttclient.o(.text.mqtt_suback_packet_handle)
    [Anonymous Symbol]                       0x6000cc60   Section        0  mqttclient.o(.text.mqtt_subscribe)
    mqtt_subtract_ack_handler_num            0x6000cd11   Thumb Code    42  mqttclient.o(.text.mqtt_subtract_ack_handler_num)
    [Anonymous Symbol]                       0x6000cd10   Section        0  mqttclient.o(.text.mqtt_subtract_ack_handler_num)
    mqtt_topic_is_matched                    0x6000cd41   Thumb Code   116  mqttclient.o(.text.mqtt_topic_is_matched)
    [Anonymous Symbol]                       0x6000cd40   Section        0  mqttclient.o(.text.mqtt_topic_is_matched)
    mqtt_try_do_reconnect                    0x6000cdb9   Thumb Code    92  mqttclient.o(.text.mqtt_try_do_reconnect)
    [Anonymous Symbol]                       0x6000cdb8   Section        0  mqttclient.o(.text.mqtt_try_do_reconnect)
    mqtt_try_reconnect                       0x6000ce61   Thumb Code    40  mqttclient.o(.text.mqtt_try_reconnect)
    [Anonymous Symbol]                       0x6000ce60   Section        0  mqttclient.o(.text.mqtt_try_reconnect)
    mqtt_try_resubscribe                     0x6000ce89   Thumb Code   156  mqttclient.o(.text.mqtt_try_resubscribe)
    [Anonymous Symbol]                       0x6000ce88   Section        0  mqttclient.o(.text.mqtt_try_resubscribe)
    mqtt_unsuback_packet_handle              0x6000cf81   Thumb Code    68  mqttclient.o(.text.mqtt_unsuback_packet_handle)
    [Anonymous Symbol]                       0x6000cf80   Section        0  mqttclient.o(.text.mqtt_unsuback_packet_handle)
    mqtt_wait_packet                         0x6000cfc9   Thumb Code    58  mqttclient.o(.text.mqtt_wait_packet)
    [Anonymous Symbol]                       0x6000cfc8   Section        0  mqttclient.o(.text.mqtt_wait_packet)
    mqtt_write_buf_malloc                    0x6000d009   Thumb Code   144  mqttclient.o(.text.mqtt_write_buf_malloc)
    [Anonymous Symbol]                       0x6000d008   Section        0  mqttclient.o(.text.mqtt_write_buf_malloc)
    mqtt_yield                               0x6000d0c9   Thumb Code   180  mqttclient.o(.text.mqtt_yield)
    [Anonymous Symbol]                       0x6000d0c8   Section        0  mqttclient.o(.text.mqtt_yield)
    mqtt_yield_thread                        0x6000d1a9   Thumb Code   208  mqttclient.o(.text.mqtt_yield_thread)
    [Anonymous Symbol]                       0x6000d1a8   Section        0  mqttclient.o(.text.mqtt_yield_thread)
    [Anonymous Symbol]                       0x6000d2e0   Section        0  mqttclient_iot_explorer_bh1750.o(.text.mqttclient_task)
    mutex_fresh_owner_mark                   0x6000d521   Thumb Code    24  tos_mutex.o(.text.mutex_fresh_owner_mark)
    [Anonymous Symbol]                       0x6000d520   Section        0  tos_mutex.o(.text.mutex_fresh_owner_mark)
    mutex_new_owner_mark                     0x6000d539   Thumb Code    36  tos_mutex.o(.text.mutex_new_owner_mark)
    [Anonymous Symbol]                       0x6000d538   Section        0  tos_mutex.o(.text.mutex_new_owner_mark)
    mutex_old_owner_release                  0x6000d561   Thumb Code    64  tos_mutex.o(.text.mutex_old_owner_release)
    [Anonymous Symbol]                       0x6000d560   Section        0  tos_mutex.o(.text.mutex_old_owner_release)
    [Anonymous Symbol]                       0x6000d5a0   Section        0  tos_mutex.o(.text.mutex_release)
    [Anonymous Symbol]                       0x6000d5b8   Section        0  nettype_tcp.o(.text.nettype_tcp_connect)
    [Anonymous Symbol]                       0x6000d5d0   Section        0  nettype_tcp.o(.text.nettype_tcp_disconnect)
    [Anonymous Symbol]                       0x6000d5e8   Section        0  nettype_tcp.o(.text.nettype_tcp_read)
    [Anonymous Symbol]                       0x6000d5f8   Section        0  nettype_tcp.o(.text.nettype_tcp_write)
    [Anonymous Symbol]                       0x6000d608   Section        0  network.o(.text.network_connect)
    [Anonymous Symbol]                       0x6000d610   Section        0  network.o(.text.network_disconnect)
    [Anonymous Symbol]                       0x6000d618   Section        0  network.o(.text.network_init)
    [Anonymous Symbol]                       0x6000d630   Section        0  network.o(.text.network_read)
    [Anonymous Symbol]                       0x6000d638   Section        0  network.o(.text.network_release)
    [Anonymous Symbol]                       0x6000d658   Section        0  network.o(.text.network_write)
    offset_to_blk                            0x6000d661   Thumb Code     4  tos_mmheap.o(.text.offset_to_blk)
    [Anonymous Symbol]                       0x6000d660   Section        0  tos_mmheap.o(.text.offset_to_blk)
    parse_array                              0x6000d669   Thumb Code   224  cjson.o(.text.parse_array)
    [Anonymous Symbol]                       0x6000d668   Section        0  cjson.o(.text.parse_array)
    parse_hex4                               0x6000d749   Thumb Code    76  cjson.o(.text.parse_hex4)
    [Anonymous Symbol]                       0x6000d748   Section        0  cjson.o(.text.parse_hex4)
    parse_number                             0x6000d799   Thumb Code   248  cjson.o(.text.parse_number)
    [Anonymous Symbol]                       0x6000d798   Section        0  cjson.o(.text.parse_number)
    parse_object                             0x6000d891   Thumb Code   302  cjson.o(.text.parse_object)
    [Anonymous Symbol]                       0x6000d890   Section        0  cjson.o(.text.parse_object)
    parse_string                             0x6000d9c1   Thumb Code   474  cjson.o(.text.parse_string)
    [Anonymous Symbol]                       0x6000d9c0   Section        0  cjson.o(.text.parse_string)
    parse_value                              0x6000dba1   Thumb Code   248  cjson.o(.text.parse_value)
    [Anonymous Symbol]                       0x6000dba0   Section        0  cjson.o(.text.parse_value)
    [Anonymous Symbol]                       0x6000dc98   Section        0  tos_pend.o(.text.pend_highest_pending_prio_get)
    [Anonymous Symbol]                       0x6000dcb8   Section        0  tos_pend.o(.text.pend_highest_pending_task_get)
    [Anonymous Symbol]                       0x6000dcc0   Section        0  tos_pend.o(.text.pend_is_nopending)
    pend_list_add                            0x6000dcc9   Thumb Code    48  tos_pend.o(.text.pend_list_add)
    [Anonymous Symbol]                       0x6000dcc8   Section        0  tos_pend.o(.text.pend_list_add)
    [Anonymous Symbol]                       0x6000dcf8   Section        0  tos_pend.o(.text.pend_list_adjust)
    [Anonymous Symbol]                       0x6000dd10   Section        0  tos_pend.o(.text.pend_list_remove)
    [Anonymous Symbol]                       0x6000dd28   Section        0  tos_pend.o(.text.pend_object_deinit)
    [Anonymous Symbol]                       0x6000dd30   Section        0  tos_pend.o(.text.pend_object_init)
    [Anonymous Symbol]                       0x6000dd38   Section        0  tos_pend.o(.text.pend_state2errno)
    [Anonymous Symbol]                       0x6000dd68   Section        0  tos_pend.o(.text.pend_task_block)
    [Anonymous Symbol]                       0x6000dda0   Section        0  tos_pend.o(.text.pend_task_wakeup)
    [Anonymous Symbol]                       0x6000ddd8   Section        0  tos_pend.o(.text.pend_wakeup)
    [Anonymous Symbol]                       0x6000dde8   Section        0  tos_pend.o(.text.pend_wakeup_all)
    [Anonymous Symbol]                       0x6000de10   Section        0  tos_pend.o(.text.pend_wakeup_one)
    [Anonymous Symbol]                       0x6000de20   Section        0  platform_memory.o(.text.platform_memory_alloc)
    [Anonymous Symbol]                       0x6000de28   Section        0  platform_memory.o(.text.platform_memory_free)
    [Anonymous Symbol]                       0x6000de30   Section        0  platform_mutex.o(.text.platform_mutex_init)
    [Anonymous Symbol]                       0x6000de38   Section        0  platform_mutex.o(.text.platform_mutex_lock)
    [Anonymous Symbol]                       0x6000de40   Section        0  platform_mutex.o(.text.platform_mutex_unlock)
    [Anonymous Symbol]                       0x6000de48   Section        0  platform_net_socket.o(.text.platform_net_socket_close)
    [Anonymous Symbol]                       0x6000de50   Section        0  platform_net_socket.o(.text.platform_net_socket_connect)
    [Anonymous Symbol]                       0x6000de68   Section        0  platform_net_socket.o(.text.platform_net_socket_recv_timeout)
    [Anonymous Symbol]                       0x6000de70   Section        0  platform_net_socket.o(.text.platform_net_socket_write_timeout)
    [Anonymous Symbol]                       0x6000de78   Section        0  platform_thread.o(.text.platform_thread_destroy)
    [Anonymous Symbol]                       0x6000de98   Section        0  platform_thread.o(.text.platform_thread_init)
    [Anonymous Symbol]                       0x6000dee8   Section        0  platform_thread.o(.text.platform_thread_start)
    [Anonymous Symbol]                       0x6000def0   Section        0  platform_thread.o(.text.platform_thread_startup)
    [Anonymous Symbol]                       0x6000def8   Section        0  platform_thread.o(.text.platform_thread_stop)
    [Anonymous Symbol]                       0x6000df00   Section        0  platform_timer.o(.text.platform_timer_cutdown)
    [Anonymous Symbol]                       0x6000df10   Section        0  platform_timer.o(.text.platform_timer_init)
    [Anonymous Symbol]                       0x6000df18   Section        0  platform_timer.o(.text.platform_timer_is_expired)
    [Anonymous Symbol]                       0x6000df30   Section        0  platform_timer.o(.text.platform_timer_remain)
    [Anonymous Symbol]                       0x6000df48   Section        0  platform_timer.o(.text.platform_timer_usleep)
    platform_uptime_ms                       0x6000df71   Thumb Code     8  platform_timer.o(.text.platform_uptime_ms)
    [Anonymous Symbol]                       0x6000df70   Section        0  platform_timer.o(.text.platform_uptime_ms)
    [Anonymous Symbol]                       0x6000df78   Section        0  port_c.o(.text.port_systick_config)
    [Anonymous Symbol]                       0x6000df80   Section        0  port_c.o(.text.port_systick_priority_set)
    [Anonymous Symbol]                       0x6000df88   Section        0  mqttpacket.o(.text.readChar)
    [Anonymous Symbol]                       0x6000df98   Section        0  mqttpacket.o(.text.readInt)
    [Anonymous Symbol]                       0x6000dfa8   Section        0  mqttpacket.o(.text.readMQTTLenString)
    [Anonymous Symbol]                       0x6000dfe8   Section        0  tos_sched.o(.text.readyqueue_add)
    [Anonymous Symbol]                       0x6000e010   Section        0  tos_sched.o(.text.readyqueue_add_head)
    [Anonymous Symbol]                       0x6000e040   Section        0  tos_sched.o(.text.readyqueue_add_tail)
    [Anonymous Symbol]                       0x6000e070   Section        0  tos_sched.o(.text.readyqueue_highest_ready_task_get)
    [Anonymous Symbol]                       0x6000e088   Section        0  tos_sched.o(.text.readyqueue_init)
    readyqueue_prio_highest_get              0x6000e0b1   Thumb Code    48  tos_sched.o(.text.readyqueue_prio_highest_get)
    [Anonymous Symbol]                       0x6000e0b0   Section        0  tos_sched.o(.text.readyqueue_prio_highest_get)
    readyqueue_prio_insert                   0x6000e0e1   Thumb Code    36  tos_sched.o(.text.readyqueue_prio_insert)
    [Anonymous Symbol]                       0x6000e0e0   Section        0  tos_sched.o(.text.readyqueue_prio_insert)
    readyqueue_prio_mark                     0x6000e109   Thumb Code    30  tos_sched.o(.text.readyqueue_prio_mark)
    [Anonymous Symbol]                       0x6000e108   Section        0  tos_sched.o(.text.readyqueue_prio_mark)
    readyqueue_prio_remove                   0x6000e129   Thumb Code    38  tos_sched.o(.text.readyqueue_prio_remove)
    [Anonymous Symbol]                       0x6000e128   Section        0  tos_sched.o(.text.readyqueue_prio_remove)
    [Anonymous Symbol]                       0x6000e150   Section        0  tos_sched.o(.text.readyqueue_remove)
    remove_free_block                        0x6000e1a1   Thumb Code    94  tos_mmheap.o(.text.remove_free_block)
    [Anonymous Symbol]                       0x6000e1a0   Section        0  tos_mmheap.o(.text.remove_free_block)
    ring_q_item_copy_from                    0x6000e201   Thumb Code    18  tos_ring_queue.o(.text.ring_q_item_copy_from)
    [Anonymous Symbol]                       0x6000e200   Section        0  tos_ring_queue.o(.text.ring_q_item_copy_from)
    ring_q_item_copy_to                      0x6000e219   Thumb Code    36  tos_ring_queue.o(.text.ring_q_item_copy_to)
    [Anonymous Symbol]                       0x6000e218   Section        0  tos_ring_queue.o(.text.ring_q_item_copy_to)
    ring_q_item_decrease                     0x6000e241   Thumb Code    24  tos_ring_queue.o(.text.ring_q_item_decrease)
    [Anonymous Symbol]                       0x6000e240   Section        0  tos_ring_queue.o(.text.ring_q_item_decrease)
    ring_q_item_increase                     0x6000e259   Thumb Code    24  tos_ring_queue.o(.text.ring_q_item_increase)
    [Anonymous Symbol]                       0x6000e258   Section        0  tos_ring_queue.o(.text.ring_q_item_increase)
    sem_do_post                              0x6000e271   Thumb Code   110  tos_sem.o(.text.sem_do_post)
    [Anonymous Symbol]                       0x6000e270   Section        0  tos_sem.o(.text.sem_do_post)
    [Anonymous Symbol]                       0x6000e2e0   Section        0  hc_sr04.o(.text.set_IRQn_Priority)
    skip_utf8_bom                            0x6000e301   Thumb Code    48  cjson.o(.text.skip_utf8_bom)
    [Anonymous Symbol]                       0x6000e300   Section        0  cjson.o(.text.skip_utf8_bom)
    task_destroy_dyn                         0x6000e339   Thumb Code    62  tos_task.o(.text.task_destroy_dyn)
    [Anonymous Symbol]                       0x6000e338   Section        0  tos_task.o(.text.task_destroy_dyn)
    task_destroy_static                      0x6000e379   Thumb Code    26  tos_task.o(.text.task_destroy_static)
    [Anonymous Symbol]                       0x6000e378   Section        0  tos_task.o(.text.task_destroy_static)
    task_do_destroy                          0x6000e399   Thumb Code   116  tos_task.o(.text.task_do_destroy)
    [Anonymous Symbol]                       0x6000e398   Section        0  tos_task.o(.text.task_do_destroy)
    task_exit                                0x6000e411   Thumb Code    10  tos_task.o(.text.task_exit)
    [Anonymous Symbol]                       0x6000e410   Section        0  tos_task.o(.text.task_exit)
    task_free                                0x6000e421   Thumb Code    18  tos_task.o(.text.task_free)
    [Anonymous Symbol]                       0x6000e420   Section        0  tos_task.o(.text.task_free)
    [Anonymous Symbol]                       0x6000e438   Section        0  tos_task.o(.text.task_free_all)
    task_highest_pending_prio_get            0x6000e479   Thumb Code    42  tos_task.o(.text.task_highest_pending_prio_get)
    [Anonymous Symbol]                       0x6000e478   Section        0  tos_task.o(.text.task_highest_pending_prio_get)
    task_mutex_release                       0x6000e4a9   Thumb Code    32  tos_task.o(.text.task_mutex_release)
    [Anonymous Symbol]                       0x6000e4a8   Section        0  tos_task.o(.text.task_mutex_release)
    task_reset                               0x6000e4c9   Thumb Code    80  tos_task.o(.text.task_reset)
    [Anonymous Symbol]                       0x6000e4c8   Section        0  tos_task.o(.text.task_reset)
    task_state_is_pending                    0x6000e519   Thumb Code    10  tos_pend.o(.text.task_state_is_pending)
    [Anonymous Symbol]                       0x6000e518   Section        0  tos_pend.o(.text.task_state_is_pending)
    task_state_is_pending                    0x6000e529   Thumb Code    10  tos_task.o(.text.task_state_is_pending)
    [Anonymous Symbol]                       0x6000e528   Section        0  tos_task.o(.text.task_state_is_pending)
    task_state_is_ready                      0x6000e539   Thumb Code    12  tos_task.o(.text.task_state_is_ready)
    [Anonymous Symbol]                       0x6000e538   Section        0  tos_task.o(.text.task_state_is_ready)
    task_state_is_sleeping                   0x6000e549   Thumb Code    10  tos_pend.o(.text.task_state_is_sleeping)
    [Anonymous Symbol]                       0x6000e548   Section        0  tos_pend.o(.text.task_state_is_sleeping)
    task_state_is_sleeping                   0x6000e559   Thumb Code    10  tos_task.o(.text.task_state_is_sleeping)
    [Anonymous Symbol]                       0x6000e558   Section        0  tos_task.o(.text.task_state_is_sleeping)
    task_state_is_suspended                  0x6000e569   Thumb Code    10  tos_pend.o(.text.task_state_is_suspended)
    [Anonymous Symbol]                       0x6000e568   Section        0  tos_pend.o(.text.task_state_is_suspended)
    task_state_is_suspended                  0x6000e579   Thumb Code    10  tos_task.o(.text.task_state_is_suspended)
    [Anonymous Symbol]                       0x6000e578   Section        0  tos_task.o(.text.task_state_is_suspended)
    task_state_reset_pending                 0x6000e589   Thumb Code    14  tos_pend.o(.text.task_state_reset_pending)
    [Anonymous Symbol]                       0x6000e588   Section        0  tos_pend.o(.text.task_state_reset_pending)
    task_state_reset_sleeping                0x6000e599   Thumb Code    14  tos_tick.o(.text.task_state_reset_sleeping)
    [Anonymous Symbol]                       0x6000e598   Section        0  tos_tick.o(.text.task_state_reset_sleeping)
    task_state_reset_suspended               0x6000e5a9   Thumb Code    14  tos_task.o(.text.task_state_reset_suspended)
    [Anonymous Symbol]                       0x6000e5a8   Section        0  tos_task.o(.text.task_state_reset_suspended)
    task_state_set_deleted                   0x6000e5b9   Thumb Code     8  tos_task.o(.text.task_state_set_deleted)
    [Anonymous Symbol]                       0x6000e5b8   Section        0  tos_task.o(.text.task_state_set_deleted)
    task_state_set_pend                      0x6000e5c1   Thumb Code    14  tos_pend.o(.text.task_state_set_pend)
    [Anonymous Symbol]                       0x6000e5c0   Section        0  tos_pend.o(.text.task_state_set_pend)
    task_state_set_ready                     0x6000e5d1   Thumb Code     8  tos_task.o(.text.task_state_set_ready)
    [Anonymous Symbol]                       0x6000e5d0   Section        0  tos_task.o(.text.task_state_set_ready)
    task_state_set_sleeping                  0x6000e5d9   Thumb Code    14  tos_tick.o(.text.task_state_set_sleeping)
    [Anonymous Symbol]                       0x6000e5d8   Section        0  tos_tick.o(.text.task_state_set_sleeping)
    task_state_set_suspended                 0x6000e5e9   Thumb Code    14  tos_task.o(.text.task_state_set_suspended)
    [Anonymous Symbol]                       0x6000e5e8   Section        0  tos_task.o(.text.task_state_set_suspended)
    [Anonymous Symbol]                       0x6000e5f8   Section        0  tos_tick.o(.text.tick_list_add)
    [Anonymous Symbol]                       0x6000e608   Section        0  tos_tick.o(.text.tick_list_remove)
    tick_task_place                          0x6000e619   Thumb Code   196  tos_tick.o(.text.tick_task_place)
    [Anonymous Symbol]                       0x6000e618   Section        0  tos_tick.o(.text.tick_task_place)
    tick_task_takeoff                        0x6000e6e1   Thumb Code   110  tos_tick.o(.text.tick_task_takeoff)
    [Anonymous Symbol]                       0x6000e6e0   Section        0  tos_tick.o(.text.tick_task_takeoff)
    [Anonymous Symbol]                       0x6000e750   Section        0  tos_tick.o(.text.tick_update)
    [Anonymous Symbol]                       0x6000e7d0   Section        0  tos_timer.o(.text.timer_init)
    timer_place                              0x6000e7d9   Thumb Code   126  tos_timer.o(.text.timer_place)
    [Anonymous Symbol]                       0x6000e7d8   Section        0  tos_timer.o(.text.timer_place)
    timer_takeoff                            0x6000e859   Thumb Code    90  tos_timer.o(.text.timer_takeoff)
    [Anonymous Symbol]                       0x6000e858   Section        0  tos_timer.o(.text.timer_takeoff)
    [Anonymous Symbol]                       0x6000e8b8   Section        0  tos_timer.o(.text.timer_update)
    [Anonymous Symbol]                       0x6000e948   Section        0  tos_at.o(.text.tos_at_channel_alloc)
    [Anonymous Symbol]                       0x6000e990   Section        0  tos_at.o(.text.tos_at_channel_free)
    [Anonymous Symbol]                       0x6000e9e0   Section        0  tos_at.o(.text.tos_at_channel_is_working)
    [Anonymous Symbol]                       0x6000ea00   Section        0  tos_at.o(.text.tos_at_channel_read)
    [Anonymous Symbol]                       0x6000ea60   Section        0  tos_at.o(.text.tos_at_channel_read_timed)
    [Anonymous Symbol]                       0x6000eb10   Section        0  tos_at.o(.text.tos_at_channel_set_broken)
    [Anonymous Symbol]                       0x6000eb30   Section        0  tos_at.o(.text.tos_at_channel_write)
    [Anonymous Symbol]                       0x6000eb80   Section        0  tos_at.o(.text.tos_at_cmd_exec)
    [Anonymous Symbol]                       0x6000ec10   Section        0  tos_at.o(.text.tos_at_cmd_exec_until)
    [Anonymous Symbol]                       0x6000eca8   Section        0  tos_at.o(.text.tos_at_echo_create)
    [Anonymous Symbol]                       0x6000ece0   Section        0  tos_at.o(.text.tos_at_global_lock_pend)
    [Anonymous Symbol]                       0x6000ed00   Section        0  tos_at.o(.text.tos_at_global_lock_post)
    [Anonymous Symbol]                       0x6000ed20   Section        0  tos_at.o(.text.tos_at_init)
    [Anonymous Symbol]                       0x6000ee58   Section        0  tos_at.o(.text.tos_at_raw_data_send_until)
    [Anonymous Symbol]                       0x6000eed0   Section        0  tos_at.o(.text.tos_at_uart_input_byte)
    [Anonymous Symbol]                       0x6000eef8   Section        0  tos_at.o(.text.tos_at_uart_read)
    [Anonymous Symbol]                       0x6000ef30   Section        0  tos_char_fifo.o(.text.tos_chr_fifo_create)
    [Anonymous Symbol]                       0x6000ef60   Section        0  tos_char_fifo.o(.text.tos_chr_fifo_destroy)
    [Anonymous Symbol]                       0x6000efa8   Section        0  tos_char_fifo.o(.text.tos_chr_fifo_pop)
    [Anonymous Symbol]                       0x6000efd0   Section        0  tos_char_fifo.o(.text.tos_chr_fifo_pop_stream)
    [Anonymous Symbol]                       0x6000f038   Section        0  tos_char_fifo.o(.text.tos_chr_fifo_push)
    [Anonymous Symbol]                       0x6000f070   Section        0  tos_char_fifo.o(.text.tos_chr_fifo_push_stream)
    [Anonymous Symbol]                       0x6000f0c8   Section        0  tos_cpu.o(.text.tos_cpu_clz)
    [Anonymous Symbol]                       0x6000f0d0   Section        0  tos_cpu.o(.text.tos_cpu_cpsr_restore)
    [Anonymous Symbol]                       0x6000f0d8   Section        0  tos_cpu.o(.text.tos_cpu_cpsr_save)
    [Anonymous Symbol]                       0x6000f0e0   Section        0  tos_event.o(.text.tos_event_create)
    [Anonymous Symbol]                       0x6000f100   Section        0  tos_event.o(.text.tos_event_pend)
    [Anonymous Symbol]                       0x6000f1f0   Section        0  tos_event.o(.text.tos_event_post)
    [Anonymous Symbol]                       0x6000f200   Section        0  tos_hal_uart.o(.text.tos_hal_uart_deinit)
    [Anonymous Symbol]                       0x6000f218   Section        0  tos_hal_uart.o(.text.tos_hal_uart_init)
    [Anonymous Symbol]                       0x6000f340   Section        0  tos_hal_uart.o(.text.tos_hal_uart_write)
    [Anonymous Symbol]                       0x6000f368   Section        0  tos_sys.o(.text.tos_knl_init)
    [Anonymous Symbol]                       0x6000f398   Section        0  tos_sys.o(.text.tos_knl_irq_enter)
    [Anonymous Symbol]                       0x6000f3b8   Section        0  tos_sys.o(.text.tos_knl_irq_leave)
    [Anonymous Symbol]                       0x6000f410   Section        0  tos_sys.o(.text.tos_knl_is_running)
    [Anonymous Symbol]                       0x6000f428   Section        0  tos_sys.o(.text.tos_knl_sched_lock)
    [Anonymous Symbol]                       0x6000f468   Section        0  tos_sys.o(.text.tos_knl_sched_unlock)
    [Anonymous Symbol]                       0x6000f4b0   Section        0  tos_sys.o(.text.tos_knl_start)
    tos_list_add                             0x6000f4f1   Thumb Code    10  tos_mutex.o(.text.tos_list_add)
    [Anonymous Symbol]                       0x6000f4f0   Section        0  tos_mutex.o(.text.tos_list_add)
    tos_list_add                             0x6000f501   Thumb Code    10  tos_sched.o(.text.tos_list_add)
    [Anonymous Symbol]                       0x6000f500   Section        0  tos_sched.o(.text.tos_list_add)
    tos_list_add                             0x6000f511   Thumb Code    10  tos_task.o(.text.tos_list_add)
    [Anonymous Symbol]                       0x6000f510   Section        0  tos_task.o(.text.tos_list_add)
    tos_list_add_tail                        0x6000f521   Thumb Code    12  tos_pend.o(.text.tos_list_add_tail)
    [Anonymous Symbol]                       0x6000f520   Section        0  tos_pend.o(.text.tos_list_add_tail)
    tos_list_add_tail                        0x6000f531   Thumb Code    12  tos_sched.o(.text.tos_list_add_tail)
    [Anonymous Symbol]                       0x6000f530   Section        0  tos_sched.o(.text.tos_list_add_tail)
    tos_list_add_tail                        0x6000f541   Thumb Code    12  tos_tick.o(.text.tos_list_add_tail)
    [Anonymous Symbol]                       0x6000f540   Section        0  tos_tick.o(.text.tos_list_add_tail)
    tos_list_add_tail                        0x6000f551   Thumb Code    12  tos_timer.o(.text.tos_list_add_tail)
    [Anonymous Symbol]                       0x6000f550   Section        0  tos_timer.o(.text.tos_list_add_tail)
    tos_list_del                             0x6000f561   Thumb Code    12  tos_mutex.o(.text.tos_list_del)
    [Anonymous Symbol]                       0x6000f560   Section        0  tos_mutex.o(.text.tos_list_del)
    tos_list_del                             0x6000f571   Thumb Code    12  tos_pend.o(.text.tos_list_del)
    [Anonymous Symbol]                       0x6000f570   Section        0  tos_pend.o(.text.tos_list_del)
    tos_list_del                             0x6000f581   Thumb Code    12  tos_sched.o(.text.tos_list_del)
    [Anonymous Symbol]                       0x6000f580   Section        0  tos_sched.o(.text.tos_list_del)
    tos_list_del                             0x6000f591   Thumb Code    12  tos_task.o(.text.tos_list_del)
    [Anonymous Symbol]                       0x6000f590   Section        0  tos_task.o(.text.tos_list_del)
    tos_list_del                             0x6000f5a1   Thumb Code    12  tos_tick.o(.text.tos_list_del)
    [Anonymous Symbol]                       0x6000f5a0   Section        0  tos_tick.o(.text.tos_list_del)
    tos_list_del                             0x6000f5b1   Thumb Code    12  tos_timer.o(.text.tos_list_del)
    [Anonymous Symbol]                       0x6000f5b0   Section        0  tos_timer.o(.text.tos_list_del)
    tos_list_empty                           0x6000f5c1   Thumb Code    12  tos_pend.o(.text.tos_list_empty)
    [Anonymous Symbol]                       0x6000f5c0   Section        0  tos_pend.o(.text.tos_list_empty)
    tos_list_empty                           0x6000f5d1   Thumb Code    12  tos_sched.o(.text.tos_list_empty)
    [Anonymous Symbol]                       0x6000f5d0   Section        0  tos_sched.o(.text.tos_list_empty)
    tos_list_empty                           0x6000f5e1   Thumb Code    12  tos_task.o(.text.tos_list_empty)
    [Anonymous Symbol]                       0x6000f5e0   Section        0  tos_task.o(.text.tos_list_empty)
    tos_list_empty                           0x6000f5f1   Thumb Code    12  tos_tick.o(.text.tos_list_empty)
    [Anonymous Symbol]                       0x6000f5f0   Section        0  tos_tick.o(.text.tos_list_empty)
    tos_list_empty                           0x6000f601   Thumb Code    12  tos_timer.o(.text.tos_list_empty)
    [Anonymous Symbol]                       0x6000f600   Section        0  tos_timer.o(.text.tos_list_empty)
    tos_list_init                            0x6000f611   Thumb Code     6  tos_mutex.o(.text.tos_list_init)
    [Anonymous Symbol]                       0x6000f610   Section        0  tos_mutex.o(.text.tos_list_init)
    tos_list_init                            0x6000f619   Thumb Code     6  tos_pend.o(.text.tos_list_init)
    [Anonymous Symbol]                       0x6000f618   Section        0  tos_pend.o(.text.tos_list_init)
    tos_list_init                            0x6000f621   Thumb Code     6  tos_sched.o(.text.tos_list_init)
    [Anonymous Symbol]                       0x6000f620   Section        0  tos_sched.o(.text.tos_list_init)
    tos_list_init                            0x6000f629   Thumb Code     6  tos_task.o(.text.tos_list_init)
    [Anonymous Symbol]                       0x6000f628   Section        0  tos_task.o(.text.tos_list_init)
    [Anonymous Symbol]                       0x6000f630   Section        0  tos_time.o(.text.tos_millisec2tick)
    [Anonymous Symbol]                       0x6000f638   Section        0  tos_mmheap.o(.text.tos_mmheap_alloc)
    [Anonymous Symbol]                       0x6000f660   Section        0  tos_mmheap.o(.text.tos_mmheap_free)
    [Anonymous Symbol]                       0x6000f688   Section        0  tos_mmheap.o(.text.tos_mmheap_pool_add)
    [Anonymous Symbol]                       0x6000f720   Section        0  tos_mmheap.o(.text.tos_mmheap_realloc)
    [Anonymous Symbol]                       0x6000f7c8   Section        0  tos_mutex.o(.text.tos_mutex_create)
    [Anonymous Symbol]                       0x6000f808   Section        0  tos_mutex.o(.text.tos_mutex_destroy)
    [Anonymous Symbol]                       0x6000f878   Section        0  tos_mutex.o(.text.tos_mutex_pend)
    [Anonymous Symbol]                       0x6000f888   Section        0  tos_mutex.o(.text.tos_mutex_pend_timed)
    [Anonymous Symbol]                       0x6000f980   Section        0  tos_mutex.o(.text.tos_mutex_post)
    [Anonymous Symbol]                       0x6000fa18   Section        0  tos_ring_queue.o(.text.tos_ring_q_create)
    [Anonymous Symbol]                       0x6000fa48   Section        0  tos_ring_queue.o(.text.tos_ring_q_dequeue)
    [Anonymous Symbol]                       0x6000fab0   Section        0  tos_ring_queue.o(.text.tos_ring_q_destroy)
    [Anonymous Symbol]                       0x6000faf8   Section        0  tos_ring_queue.o(.text.tos_ring_q_enqueue)
    [Anonymous Symbol]                       0x6000fb60   Section        0  tos_ring_queue.o(.text.tos_ring_q_is_empty)
    [Anonymous Symbol]                       0x6000fb88   Section        0  tos_ring_queue.o(.text.tos_ring_q_is_full)
    [Anonymous Symbol]                       0x6000fbb0   Section        0  sal_module_wrapper.o(.text.tos_sal_module_close)
    [Anonymous Symbol]                       0x6000fbd0   Section        0  sal_module_wrapper.o(.text.tos_sal_module_connect)
    [Anonymous Symbol]                       0x6000fbf0   Section        0  sal_module_wrapper.o(.text.tos_sal_module_init)
    [Anonymous Symbol]                       0x6000fc10   Section        0  sal_module_wrapper.o(.text.tos_sal_module_parse_domain)
    [Anonymous Symbol]                       0x6000fc30   Section        0  sal_module_wrapper.o(.text.tos_sal_module_recv_timeout)
    [Anonymous Symbol]                       0x6000fc58   Section        0  sal_module_wrapper.o(.text.tos_sal_module_register)
    [Anonymous Symbol]                       0x6000fc78   Section        0  sal_module_wrapper.o(.text.tos_sal_module_send)
    [Anonymous Symbol]                       0x6000fc98   Section        0  tos_sem.o(.text.tos_sem_create)
    [Anonymous Symbol]                       0x6000fca8   Section        0  tos_sem.o(.text.tos_sem_create_max)
    [Anonymous Symbol]                       0x6000fcd8   Section        0  tos_sem.o(.text.tos_sem_destroy)
    [Anonymous Symbol]                       0x6000fd30   Section        0  tos_sem.o(.text.tos_sem_pend)
    [Anonymous Symbol]                       0x6000fdd8   Section        0  tos_sem.o(.text.tos_sem_post)
    [Anonymous Symbol]                       0x6000fde8   Section        0  tos_time.o(.text.tos_sleep_ms)
    [Anonymous Symbol]                       0x6000fdf8   Section        0  tos_stopwatch.o(.text.tos_stopwatch_countdown)
    [Anonymous Symbol]                       0x6000fe28   Section        0  tos_stopwatch.o(.text.tos_stopwatch_create)
    [Anonymous Symbol]                       0x6000fe40   Section        0  tos_stopwatch.o(.text.tos_stopwatch_delay)
    [Anonymous Symbol]                       0x6000fe68   Section        0  tos_stopwatch.o(.text.tos_stopwatch_destroy)
    [Anonymous Symbol]                       0x6000fe90   Section        0  tos_stopwatch.o(.text.tos_stopwatch_is_expired)
    [Anonymous Symbol]                       0x6000fec0   Section        0  tos_stopwatch.o(.text.tos_stopwatch_remain)
    [Anonymous Symbol]                       0x6000ff00   Section        0  tos_time.o(.text.tos_systick_get)
    [Anonymous Symbol]                       0x6000ff20   Section        0  tos_task.o(.text.tos_task_create)
    [Anonymous Symbol]                       0x60010020   Section        0  tos_task.o(.text.tos_task_delay)
    [Anonymous Symbol]                       0x60010090   Section        0  tos_task.o(.text.tos_task_destroy)
    [Anonymous Symbol]                       0x600100f0   Section        0  tos_task.o(.text.tos_task_prio_change)
    [Anonymous Symbol]                       0x600101a8   Section        0  tos_task.o(.text.tos_task_resume)
    [Anonymous Symbol]                       0x60010200   Section        0  tos_task.o(.text.tos_task_suspend)
    [Anonymous Symbol]                       0x60010270   Section        0  tos_task.o(.text.tos_task_yield)
    [Anonymous Symbol]                       0x600102a8   Section        0  tos_tick.o(.text.tos_tick_handler)
    tos_topic_handler                        0x600102c1   Thumb Code   364  mqttclient_iot_explorer_bh1750.o(.text.tos_topic_handler)
    [Anonymous Symbol]                       0x600102c0   Section        0  mqttclient_iot_explorer_bh1750.o(.text.tos_topic_handler)
    utf16_literal_to_utf8                    0x600104c9   Thumb Code   272  cjson.o(.text.utf16_literal_to_utf8)
    [Anonymous Symbol]                       0x600104c8   Section        0  cjson.o(.text.utf16_literal_to_utf8)
    [Anonymous Symbol]                       0x600105d8   Section        0  mqttpacket.o(.text.writeCString)
    [Anonymous Symbol]                       0x60010600   Section        0  mqttpacket.o(.text.writeChar)
    [Anonymous Symbol]                       0x60010610   Section        0  mqttpacket.o(.text.writeInt)
    [Anonymous Symbol]                       0x60010630   Section        0  mqttpacket.o(.text.writeMQTTString)
    i.__0printf                              0x6001066c   Section        0  printfa.o(i.__0printf)
    i.__0snprintf                            0x6001068c   Section        0  printfa.o(i.__0snprintf)
    i.__0vsnprintf                           0x600106c0   Section        0  printfa.o(i.__0vsnprintf)
    i.__hardfp_strtod                        0x600106f8   Section        0  strtod.o(i.__hardfp_strtod)
    i.__scatterload_copy                     0x60010720   Section       14  handlers.o(i.__scatterload_copy)
    i.__scatterload_null                     0x6001072e   Section        2  handlers.o(i.__scatterload_null)
    i.__scatterload_zeroinit                 0x60010730   Section       14  handlers.o(i.__scatterload_zeroinit)
    _fp_digits                               0x60010741   Thumb Code   366  printfa.o(i._fp_digits)
    i._fp_digits                             0x60010740   Section        0  printfa.o(i._fp_digits)
    i._is_digit                              0x600108c4   Section        0  scanf_fp.o(i._is_digit)
    _printf_core                             0x600108d5   Thumb Code  1744  printfa.o(i._printf_core)
    i._printf_core                           0x600108d4   Section        0  printfa.o(i._printf_core)
    _printf_post_padding                     0x60010fb1   Thumb Code    36  printfa.o(i._printf_post_padding)
    i._printf_post_padding                   0x60010fb0   Section        0  printfa.o(i._printf_post_padding)
    _printf_pre_padding                      0x60010fd5   Thumb Code    46  printfa.o(i._printf_pre_padding)
    i._printf_pre_padding                    0x60010fd4   Section        0  printfa.o(i._printf_pre_padding)
    _snputc                                  0x60011003   Thumb Code    22  printfa.o(i._snputc)
    i._snputc                                0x60011002   Section        0  printfa.o(i._snputc)
    .constdata                               0x60011018   Section       64  ctype_c.o(.constdata)
    .L__const.BOARD_InitPins.Beep_config     0x60011058   Data           3  pin_mux.o(.rodata..L__const.BOARD_InitPins.Beep_config)
    .L__const.BOARD_InitPins.E53_GPIO1_config 0x6001105b   Data           3  pin_mux.o(.rodata..L__const.BOARD_InitPins.E53_GPIO1_config)
    .L__const.BOARD_InitPins.E53_GPIO3_config 0x6001105e   Data           3  pin_mux.o(.rodata..L__const.BOARD_InitPins.E53_GPIO3_config)
    .L__const.BOARD_InitPins.E53_GPIO4_config 0x60011061   Data           3  pin_mux.o(.rodata..L__const.BOARD_InitPins.E53_GPIO4_config)
    .L__const.BOARD_InitPins.LED_config      0x60011064   Data           3  pin_mux.o(.rodata..L__const.BOARD_InitPins.LED_config)
    .L__const.BOARD_InitPins.Trig_config     0x60011067   Data           3  pin_mux.o(.rodata..L__const.BOARD_InitPins.Trig_config)
    .L__const.mqtt_connect_with_results.connect_data 0x6001106c   Data          88  mqttclient.o(.rodata..L__const.mqtt_connect_with_results.connect_data)
    .L__const.CLOCK_GetPllFreq.enetRefClkFreq 0x600110cc   Data          16  fsl_clock.o(.rodata.cst16)
    kLpi2cClocks                             0x600110dc   Data          10  fsl_lpi2c.o(.rodata.kLpi2cClocks)
    [Anonymous Symbol]                       0x600110dc   Section        0  fsl_lpi2c.o(.rodata.kLpi2cClocks)
    s_LpuartAdapterBase                      0x600110f0   Data          36  fsl_adapter_lpuart.o(.rodata.s_LpuartAdapterBase)
    [Anonymous Symbol]                       0x600110f0   Section        0  fsl_adapter_lpuart.o(.rodata.s_LpuartAdapterBase)
    s_gptClocks                              0x60011114   Data           6  fsl_gpt.o(.rodata.s_gptClocks)
    [Anonymous Symbol]                       0x60011114   Section        0  fsl_gpt.o(.rodata.s_gptClocks)
    s_lpuartClock                            0x6001111a   Data          18  fsl_lpuart.o(.rodata.s_lpuartClock)
    [Anonymous Symbol]                       0x6001111a   Section        0  fsl_lpuart.o(.rodata.s_lpuartClock)
    s_pwmClocks                              0x6001112c   Data          40  fsl_pwm.o(.rodata.s_pwmClocks)
    [Anonymous Symbol]                       0x6001112c   Section        0  fsl_pwm.o(.rodata.s_pwmClocks)
    .L.str.1                                 0x60011154   Data          14  board.o(.rodata.str1.1)
    [Anonymous Symbol]                       0x60011154   Section        0  board.o(.rodata.str1.1)
    .L.str.3                                 0x60011162   Data          73  fsl_adapter_lpuart.o(.rodata.str1.1)
    [Anonymous Symbol]                       0x60011162   Section        0  fsl_adapter_lpuart.o(.rodata.str1.1)
    .L.str.6                                 0x600111ab   Data          12  fsl_adapter_lpuart.o(.rodata.str1.1)
    .L.str.5                                 0x600111b7   Data          13  fsl_adapter_lpuart.o(.rodata.str1.1)
    .L.str.9                                 0x600111b7   Data          13  fsl_adapter_lpuart.o(.rodata.str1.1)
    .L.str.1                                 0x600111c4   Data          36  fsl_adapter_lpuart.o(.rodata.str1.1)
    .L.str                                   0x600111e8   Data          15  fsl_adapter_lpuart.o(.rodata.str1.1)
    .L.str.4                                 0x600111e8   Data          15  fsl_adapter_lpuart.o(.rodata.str1.1)
    .L.str.1                                 0x600111f7   Data          20  fsl_clock.o(.rodata.str1.1)
    [Anonymous Symbol]                       0x600111f7   Section        0  fsl_clock.o(.rodata.str1.1)
    .L.str.2                                 0x6001120b   Data           6  fsl_clock.o(.rodata.str1.1)
    .L.str.3                                 0x6001120b   Data           6  fsl_clock.o(.rodata.str1.1)
    .L.str.3                                 0x6001120b   Data           6  fsl_clock.o(.rodata.str1.1)
    .L.str.5                                 0x6001120b   Data           6  fsl_clock.o(.rodata.str1.1)
    .L.str                                   0x60011211   Data          52  fsl_edma.o(.rodata.str1.1)
    [Anonymous Symbol]                       0x60011211   Section        0  fsl_edma.o(.rodata.str1.1)
    .L.str.4                                 0x60011245   Data          15  fsl_edma.o(.rodata.str1.1)
    .L.str.6                                 0x60011245   Data          15  fsl_edma.o(.rodata.str1.1)
    .L.str.7                                 0x60011245   Data          15  fsl_edma.o(.rodata.str1.1)
    .L.str.9                                 0x60011245   Data          15  fsl_edma.o(.rodata.str1.1)
    .L.str.1                                 0x60011254   Data          19  fsl_edma.o(.rodata.str1.1)
    .L.str.2                                 0x60011258   Data          12  fsl_edma.o(.rodata.str1.1)
    .L.str.3                                 0x60011264   Data          30  fsl_edma.o(.rodata.str1.1)
    .L.str.1                                 0x60011267   Data          19  fsl_enet.o(.rodata.str1.1)
    [Anonymous Symbol]                       0x60011267   Section        0  fsl_enet.o(.rodata.str1.1)
    .L.str.1                                 0x6001127a   Data          22  fsl_flexcan.o(.rodata.str1.1)
    .L.str.2                                 0x6001127a   Data          15  fsl_enet.o(.rodata.str1.1)
    [Anonymous Symbol]                       0x6001127a   Section        0  fsl_flexcan.o(.rodata.str1.1)
    .L.str.4                                 0x60011282   Data          15  fsl_edma.o(.rodata.str1.1)
    .L.str.3                                 0x60011289   Data          15  fsl_enet.o(.rodata.str1.1)
    .L.str.1                                 0x60011290   Data          22  fsl_flexspi.o(.rodata.str1.1)
    .L.str.2                                 0x60011290   Data          16  fsl_flexcan.o(.rodata.str1.1)
    [Anonymous Symbol]                       0x60011290   Section        0  fsl_flexspi.o(.rodata.str1.1)
    .L.str.5                                 0x60011291   Data          34  fsl_edma.o(.rodata.str1.1)
    .L.str.4                                 0x60011298   Data          21  fsl_enet.o(.rodata.str1.1)
    .L.str.3                                 0x600112a0   Data         117  fsl_flexcan.o(.rodata.str1.1)
    .L.str.1                                 0x600112a6   Data          19  fsl_gpio.o(.rodata.str1.1)
    [Anonymous Symbol]                       0x600112a6   Section        0  fsl_gpio.o(.rodata.str1.1)
    .L.str.5                                 0x600112ad   Data          16  fsl_enet.o(.rodata.str1.1)
    .L.str.6                                 0x600112b3   Data          58  fsl_edma.o(.rodata.str1.1)
    .L.str.1                                 0x600112b9   Data          18  fsl_gpt.o(.rodata.str1.1)
    [Anonymous Symbol]                       0x600112b9   Section        0  fsl_gpt.o(.rodata.str1.1)
    .L.str.6                                 0x600112bd   Data          67  fsl_enet.o(.rodata.str1.1)
    .L.str.1                                 0x600112cb   Data          20  fsl_lpi2c.o(.rodata.str1.1)
    [Anonymous Symbol]                       0x600112cb   Section        0  fsl_lpi2c.o(.rodata.str1.1)
    .L.str.2                                 0x600112df   Data          15  fsl_lpi2c.o(.rodata.str1.1)
    .L.str.7                                 0x600112ed   Data          69  fsl_edma.o(.rodata.str1.1)
    .L.str.3                                 0x600112ee   Data          15  fsl_lpi2c.o(.rodata.str1.1)
    .L.str.1                                 0x600112fd   Data          20  fsl_lpspi.o(.rodata.str1.1)
    .L.str.4                                 0x600112fd   Data          17  fsl_lpi2c.o(.rodata.str1.1)
    [Anonymous Symbol]                       0x600112fd   Section        0  fsl_lpspi.o(.rodata.str1.1)
    .L.str.9                                 0x60011300   Data          41  fsl_enet.o(.rodata.str1.1)
    .L.str.5                                 0x6001130e   Data          57  fsl_lpi2c.o(.rodata.str1.1)
    .L.str.1                                 0x60011311   Data          21  fsl_lpuart.o(.rodata.str1.1)
    .L.str.2                                 0x60011311   Data          21  fsl_lpspi.o(.rodata.str1.1)
    [Anonymous Symbol]                       0x60011311   Section        0  fsl_lpuart.o(.rodata.str1.1)
    .L.str.7                                 0x60011315   Data          42  fsl_flexcan.o(.rodata.str1.1)
    .L.str.2                                 0x60011326   Data          15  fsl_lpuart.o(.rodata.str1.1)
    .L.str.3                                 0x60011326   Data          20  fsl_lpspi.o(.rodata.str1.1)
    .L.str.3                                 0x60011326   Data          15  fsl_lpuart.o(.rodata.str1.1)
    .L.str.11                                0x60011329   Data          57  fsl_enet.o(.rodata.str1.1)
    .L.str                                   0x6001132e   Data           7  fsl_lpuart.o(.rodata.str1.1)
    .L.str.8                                 0x60011332   Data          71  fsl_edma.o(.rodata.str1.1)
    .L.str.6                                 0x60011335   Data          72  fsl_lpuart.o(.rodata.str1.1)
    .L.str.8                                 0x6001133f   Data          35  fsl_flexcan.o(.rodata.str1.1)
    .L.str.6                                 0x60011347   Data          15  fsl_lpi2c.o(.rodata.str1.1)
    .L.str.7                                 0x6001134f   Data          17  fsl_lpspi.o(.rodata.str1.1)
    .L.str.12                                0x60011362   Data          13  fsl_enet.o(.rodata.str1.1)
    .L.str.9                                 0x60011362   Data          29  fsl_flexcan.o(.rodata.str1.1)
    .L.str.14                                0x6001136f   Data          16  fsl_enet.o(.rodata.str1.1)
    .L.str.5                                 0x6001137d   Data          72  fsl_lpuart.o(.rodata.str1.1)
    .L.str.11                                0x6001137f   Data          45  fsl_flexcan.o(.rodata.str1.1)
    .L.str.17                                0x6001137f   Data          71  fsl_enet.o(.rodata.str1.1)
    .L.str.13                                0x60011388   Data          78  fsl_edma.o(.rodata.str1.1)
    .L.str.16                                0x600113ac   Data          17  fsl_flexcan.o(.rodata.str1.1)
    .L.str.18                                0x600113bd   Data          17  fsl_flexcan.o(.rodata.str1.1)
    .L.str.8                                 0x600113c5   Data          25  fsl_pwm.o(.rodata.str1.1)
    [Anonymous Symbol]                       0x600113c5   Section        0  fsl_pwm.o(.rodata.str1.1)
    .L.str.19                                0x600113ce   Data          15  fsl_flexcan.o(.rodata.str1.1)
    .L.str.8                                 0x600113d4   Data          13  fsl_lpuart.o(.rodata.str1.1)
    .L.str.14                                0x600113d6   Data          82  fsl_edma.o(.rodata.str1.1)
    .L.str.20                                0x600113dd   Data          16  fsl_flexcan.o(.rodata.str1.1)
    .L.str.1                                 0x600113de   Data          18  fsl_pwm.o(.rodata.str1.1)
    .L.str.21                                0x600113ed   Data          51  fsl_flexcan.o(.rodata.str1.1)
    .L.str.11                                0x600113ee   Data          13  fsl_lpuart.o(.rodata.str1.1)
    .L.str                                   0x600113f0   Data          30  fsl_sai.o(.rodata.str1.1)
    .L.str.1                                 0x600113f0   Data          18  fsl_sai.o(.rodata.str1.1)
    [Anonymous Symbol]                       0x600113f0   Section        0  fsl_sai.o(.rodata.str1.1)
    .L.str.12                                0x600113fb   Data          19  fsl_lpuart.o(.rodata.str1.1)
    .L.str.1                                 0x60011402   Data          20  fsl_spdif.o(.rodata.str1.1)
    [Anonymous Symbol]                       0x60011402   Section        0  fsl_spdif.o(.rodata.str1.1)
    .L.str.13                                0x6001140e   Data          21  fsl_lpuart.o(.rodata.str1.1)
    .L.str.1                                 0x60011416   Data          20  fsl_xbara.o(.rodata.str1.1)
    .L.str.2                                 0x60011416   Data          15  fsl_spdif.o(.rodata.str1.1)
    [Anonymous Symbol]                       0x60011416   Section        0  fsl_xbara.o(.rodata.str1.1)
    .L.str.2                                 0x60011420   Data          15  fsl_sai.o(.rodata.str1.1)
    .L.str.22                                0x60011420   Data          44  fsl_flexcan.o(.rodata.str1.1)
    .L.str.14                                0x60011423   Data          14  fsl_lpuart.o(.rodata.str1.1)
    .L.str.3                                 0x60011425   Data          18  fsl_spdif.o(.rodata.str1.1)
    .L.str.17                                0x60011428   Data          53  fsl_edma.o(.rodata.str1.1)
    .L.str.11                                0x6001142a   Data          19  mqttclient_iot_explorer_bh1750.o(.rodata.str1.1)
    [Anonymous Symbol]                       0x6001142a   Section        0  mqttclient_iot_explorer_bh1750.o(.rodata.str1.1)
    .L.str.3                                 0x6001142f   Data          67  fsl_sai.o(.rodata.str1.1)
    .L.str.16                                0x6001143d   Data          38  mqttclient_iot_explorer_bh1750.o(.rodata.str1.1)
    .L.str.31                                0x6001144c   Data          25  fsl_flexcan.o(.rodata.str1.1)
    .L.str.18                                0x6001145d   Data           6  fsl_edma.o(.rodata.str1.1)
    .L.str.32                                0x60011463   Data          27  mqttclient_iot_explorer_bh1750.o(.rodata.str1.1)
    .L.str.4                                 0x60011472   Data          78  fsl_sai.o(.rodata.str1.1)
    .L.str.22                                0x6001147e   Data          35  mqttclient_iot_explorer_bh1750.o(.rodata.str1.1)
    .L.str.24                                0x600114a1   Data          34  mqttclient_iot_explorer_bh1750.o(.rodata.str1.1)
    .L.str.5                                 0x600114c0   Data          78  fsl_sai.o(.rodata.str1.1)
    .L.str.15                                0x600114c3   Data          41  mqttclient_iot_explorer_bh1750.o(.rodata.str1.1)
    .L.str.21                                0x600114ec   Data          85  mqttclient_iot_explorer_bh1750.o(.rodata.str1.1)
    .L.str.6                                 0x6001150e   Data          43  fsl_sai.o(.rodata.str1.1)
    .L.str.18                                0x60011541   Data          84  mqttclient_iot_explorer_bh1750.o(.rodata.str1.1)
    .L.str.8                                 0x60011548   Data          70  fsl_sai.o(.rodata.str1.1)
    .L.str.9                                 0x6001158e   Data          15  fsl_sai.o(.rodata.str1.1)
    .L.str.13                                0x60011595   Data          37  mqttclient_iot_explorer_bh1750.o(.rodata.str1.1)
    .L.str.10                                0x6001159d   Data          21  fsl_sai.o(.rodata.str1.1)
    .L.str.11                                0x600115b2   Data           6  fsl_sai.o(.rodata.str1.1)
    .L.str.13                                0x600115b8   Data          70  fsl_sai.o(.rodata.str1.1)
    .L.str.6                                 0x600115ba   Data          50  mqttclient_iot_explorer_bh1750.o(.rodata.str1.1)
    .L.str.5                                 0x600115ec   Data          43  mqttclient_iot_explorer_bh1750.o(.rodata.str1.1)
    .L.str.30                                0x60011617   Data          13  mqttclient_iot_explorer_bh1750.o(.rodata.str1.1)
    .L.str.28                                0x60011624   Data           8  mqttclient_iot_explorer_bh1750.o(.rodata.str1.1)
    .L.str.2                                 0x6001162c   Data          39  mqttclient_iot_explorer_bh1750.o(.rodata.str1.1)
    .L.str.29                                0x60011653   Data           7  mqttclient_iot_explorer_bh1750.o(.rodata.str1.1)
    .L.str.31                                0x6001165a   Data          11  mqttclient_iot_explorer_bh1750.o(.rodata.str1.1)
    .L.str.14                                0x60011665   Data          27  mqttclient_iot_explorer_bh1750.o(.rodata.str1.1)
    .L.str.12                                0x60011680   Data          69  mqttclient_iot_explorer_bh1750.o(.rodata.str1.1)
    .L.str                                   0x600116c5   Data           5  mqttconnectclient.o(.rodata.str1.1)
    [Anonymous Symbol]                       0x600116c5   Section        0  mqttconnectclient.o(.rodata.str1.1)
    .L.str.1                                 0x600116ca   Data           7  mqttconnectclient.o(.rodata.str1.1)
    .L.str.19                                0x600116d1   Data          38  mqttclient.o(.rodata.str1.1)
    [Anonymous Symbol]                       0x600116d1   Section        0  mqttclient.o(.rodata.str1.1)
    .L.str.5                                 0x600116f7   Data          62  mqttclient.o(.rodata.str1.1)
    .L.str                                   0x60011735   Data          31  mqttclient.o(.rodata.str1.1)
    .L.str.1                                 0x60011754   Data          69  mqttclient.o(.rodata.str1.1)
    .L__FUNCTION__.mqtt_list_subscribe_topic 0x60011775   Data          26  mqttclient.o(.rodata.str1.1)
    .L__FUNCTION__.mqtt_read_buf_malloc      0x60011799   Data          21  mqttclient.o(.rodata.str1.1)
    .L__FUNCTION__.mqtt_write_buf_malloc     0x600117ae   Data          22  mqttclient.o(.rodata.str1.1)
    .L.str.13                                0x600117c4   Data          18  mqttclient.o(.rodata.str1.1)
    .L__FUNCTION__.mqtt_try_resubscribe      0x600117d6   Data          21  mqttclient.o(.rodata.str1.1)
    .L.str.15                                0x600117eb   Data          99  mqttclient.o(.rodata.str1.1)
    .L.str.17                                0x6001184e   Data          70  mqttclient.o(.rodata.str1.1)
    .L__FUNCTION__.mqtt_connect_with_results 0x60011894   Data          26  mqttclient.o(.rodata.str1.1)
    .L.str.4                                 0x600118ae   Data           5  cjson.o(.rodata.str1.1)
    [Anonymous Symbol]                       0x600118ae   Section        0  cjson.o(.rodata.str1.1)
    .L.str.2                                 0x600118b3   Data           5  cjson.o(.rodata.str1.1)
    .L.str.26                                0x600118b8   Data          19  esp8266.o(.rodata.str1.1)
    [Anonymous Symbol]                       0x600118b8   Section        0  esp8266.o(.rodata.str1.1)
    .L.str.5                                 0x600118cb   Data          27  esp8266.o(.rodata.str1.1)
    .L.str.8                                 0x600118e6   Data          30  esp8266.o(.rodata.str1.1)
    .L.str.2                                 0x60011902   Data           2  esp8266.o(.rodata.str1.1)
    .L.str.2                                 0x60011902   Data           2  esp8266.o(.rodata.str1.1)
    .L.str.8                                 0x60011902   Data           2  esp8266.o(.rodata.str1.1)
    .L.str.25                                0x6001190a   Data           2  esp8266.o(.rodata.str1.1)
    .L.str.27                                0x6001190c   Data           8  esp8266.o(.rodata.str1.1)
    .L.str.24                                0x60011914   Data           4  esp8266.o(.rodata.str1.1)
    .L.str.23                                0x60011918   Data           4  esp8266.o(.rodata.str1.1)
    NVIC_INT_CTRL                            0xe000ed04   Number         0  port_s.o ABSOLUTE
    SCB_VTOR                                 0xe000ed08   Number         0  port_s.o ABSOLUTE
    VTOR                                     0xe000ed08   Number         0  startup_mimxrt1062.o ABSOLUTE
    NVIC_SYSPRI14                            0xe000ed22   Number         0  port_s.o ABSOLUTE

    Global Symbols

    Symbol Name                              Value     Ov Type        Size  Object(Section)

    BuildAttributes$$THM_ISAv4$E$P$D$K$B$S$7EM$VFPv5_D16$PE$PLD8$A:L22UL41UL21$X:L11$S22US41US21$IEEE1$IW$USESV6$~STKCKD$USESV7$~SHL$OTIME$ROPI$IEEEJ$EBA8$MICROLIB$REQ8$EABIv2 0x00000000   Number         0  anon$$obj.o ABSOLUTE
    _printf_a                                0x00000000   Number         0  printfstubs.o ABSOLUTE
    _printf_c                                0x00000000   Number         0  printfstubs.o ABSOLUTE
    _printf_charcount                        0x00000000   Number         0  printfstubs.o ABSOLUTE
    _printf_d                                0x00000000   Number         0  printfstubs.o ABSOLUTE
    _printf_e                                0x00000000   Number         0  printfstubs.o ABSOLUTE
    _printf_f                                0x00000000   Number         0  printfstubs.o ABSOLUTE
    _printf_flags                            0x00000000   Number         0  printfstubs.o ABSOLUTE
    _printf_fp_dec                           0x00000000   Number         0  printfstubs.o ABSOLUTE
    _printf_fp_hex                           0x00000000   Number         0  printfstubs.o ABSOLUTE
    _printf_g                                0x00000000   Number         0  printfstubs.o ABSOLUTE
    _printf_i                                0x00000000   Number         0  printfstubs.o ABSOLUTE
    _printf_int_dec                          0x00000000   Number         0  printfstubs.o ABSOLUTE
    _printf_l                                0x00000000   Number         0  printfstubs.o ABSOLUTE
    _printf_lc                               0x00000000   Number         0  printfstubs.o ABSOLUTE
    _printf_ll                               0x00000000   Number         0  printfstubs.o ABSOLUTE
    _printf_lld                              0x00000000   Number         0  printfstubs.o ABSOLUTE
    _printf_lli                              0x00000000   Number         0  printfstubs.o ABSOLUTE
    _printf_llo                              0x00000000   Number         0  printfstubs.o ABSOLUTE
    _printf_llu                              0x00000000   Number         0  printfstubs.o ABSOLUTE
    _printf_llx                              0x00000000   Number         0  printfstubs.o ABSOLUTE
    _printf_longlong_dec                     0x00000000   Number         0  printfstubs.o ABSOLUTE
    _printf_longlong_hex                     0x00000000   Number         0  printfstubs.o ABSOLUTE
    _printf_longlong_oct                     0x00000000   Number         0  printfstubs.o ABSOLUTE
    _printf_ls                               0x00000000   Number         0  printfstubs.o ABSOLUTE
    _printf_mbtowc                           0x00000000   Number         0  printfstubs.o ABSOLUTE
    _printf_n                                0x00000000   Number         0  printfstubs.o ABSOLUTE
    _printf_o                                0x00000000   Number         0  printfstubs.o ABSOLUTE
    _printf_p                                0x00000000   Number         0  printfstubs.o ABSOLUTE
    _printf_percent                          0x00000000   Number         0  printfstubs.o ABSOLUTE
    _printf_pre_padding                      0x00000000   Number         0  printfstubs.o ABSOLUTE
    _printf_return_value                     0x00000000   Number         0  printfstubs.o ABSOLUTE
    _printf_s                                0x00000000   Number         0  printfstubs.o ABSOLUTE
    _printf_sizespec                         0x00000000   Number         0  printfstubs.o ABSOLUTE
    _printf_str                              0x00000000   Number         0  printfstubs.o ABSOLUTE
    _printf_truncate_signed                  0x00000000   Number         0  printfstubs.o ABSOLUTE
    _printf_truncate_unsigned                0x00000000   Number         0  printfstubs.o ABSOLUTE
    _printf_u                                0x00000000   Number         0  printfstubs.o ABSOLUTE
    _printf_wc                               0x00000000   Number         0  printfstubs.o ABSOLUTE
    _printf_wctomb                           0x00000000   Number         0  printfstubs.o ABSOLUTE
    _printf_widthprec                        0x00000000   Number         0  printfstubs.o ABSOLUTE
    _printf_x                                0x00000000   Number         0  printfstubs.o ABSOLUTE
    __cpp_initialize__aeabi_                  - Undefined Weak Reference
    __cxa_finalize                            - Undefined Weak Reference
    __decompress                              - Undefined Weak Reference
    _clock_init                               - Undefined Weak Reference
    _microlib_exit                            - Undefined Weak Reference
    _scanf_int                                - Undefined Weak Reference
    _scanf_longlong                           - Undefined Weak Reference
    SystemCoreClock                          0x20000000   Data           4  system_mimxrt1062.o(.data.SystemCoreClock)
    esp8266_at_event                         0x20000004   Data          16  esp8266.o(.data.esp8266_at_event)
    k_cpu_tick_per_second                    0x20000020   Data           8  tos_global.o(.data.k_cpu_tick_per_second)
    k_dead_task_list                         0x20000028   Data           8  tos_global.o(.data.k_dead_task_list)
    k_stat_list                              0x20000030   Data           8  tos_global.o(.data.k_stat_list)
    k_tick_list                              0x20000038   Data           8  tos_global.o(.data.k_tick_list)
    k_timer_ctl                              0x20000040   Data          16  tos_global.o(.data.k_timer_ctl)
    report_fail                              0x20000050   Data           4  mqttclient_iot_explorer_bh1750.o(.data.report_fail)
    report_success                           0x20000054   Data           4  mqttclient_iot_explorer_bh1750.o(.data.report_success)
    sal_module_esp8266                       0x20000064   Data          52  esp8266.o(.data.sal_module_esp8266)
    GPT_ICUserValueStructure                 0x20000098   Data          16  hc_sr04.o(.bss.GPT_ICUserValueStructure)
    __stdout                                 0x200000a8   Data          84  fsl_debug_console.o(.bss.__stdout)
    application_task                         0x20000100   Data         136  main.o(.bss.application_task)
    application_task_stk                     0x20000188   Data        4096  main.o(.bss.application_task_stk)
    blink_task                               0x20001d68   Data         136  main.o(.bss.blink_task)
    blink_task_stk                           0x20001df0   Data        1024  main.o(.bss.blink_task_stk)
    brightness                               0x200021f0   Data           1  mcu_init.o(.bss.brightness)
    g_rtcXtalFreq                            0x20002278   Data           4  fsl_clock.o(.bss.g_rtcXtalFreq)
    g_xtalFreq                               0x20002280   Data           4  fsl_clock.o(.bss.g_xtalFreq)
    k_cpu_cycle_per_tick                     0x2000228c   Data           4  tos_global.o(.bss.k_cpu_cycle_per_tick)
    k_curr_task                              0x20002290   Data           4  tos_global.o(.bss.k_curr_task)
    k_idle_task                              0x20002298   Data         136  tos_global.o(.bss.k_idle_task)
    k_idle_task_stk                          0x20002320   Data         512  tos_global.o(.bss.k_idle_task_stk)
    k_irq_nest_cnt                           0x20002520   Data           1  tos_global.o(.bss.k_irq_nest_cnt)
    k_knl_state                              0x20002521   Data           1  tos_global.o(.bss.k_knl_state)
    k_mmheap_ctl                             0x20002524   Data        3204  tos_global.o(.bss.k_mmheap_ctl)
    k_mmheap_default_pool                    0x200031a8   Data       65536  tos_global.o(.bss.k_mmheap_default_pool)
    k_next_task                              0x200131a8   Data           4  tos_global.o(.bss.k_next_task)
    k_rdyq                                   0x200131ac   Data          88  tos_global.o(.bss.k_rdyq)
    k_sched_lock_nest_cnt                    0x20013204   Data           1  tos_global.o(.bss.k_sched_lock_nest_cnt)
    k_tick_count                             0x20013208   Data           8  tos_global.o(.bss.k_tick_count)
    lastbrightness                           0x20013210   Data           1  main.o(.bss.lastbrightness)
    report_buf                               0x20013211   Data         200  mqttclient_iot_explorer_bh1750.o(.bss.report_buf)
    report_result_event                      0x200132dc   Data          16  mqttclient_iot_explorer_bh1750.o(.bss.report_result_event)
    temp                                     0x20013488   Data           1  main.o(.bss.temp)
    Image$$ARM_LIB_HEAP$$ZI$$Base            0x2001348c   Number         0  anon$$obj.o ABSOLUTE
    Image$$ARM_LIB_HEAP$$ZI$$Limit           0x2001388c   Number         0  anon$$obj.o ABSOLUTE
    Image$$ARM_LIB_STACK$$ZI$$Limit          0x20020000   Number         0  anon$$obj.o ABSOLUTE
    Image$$RW_m_ncache$$Base                 0x20200000   Number         0  anon$$obj.o ABSOLUTE
    Image$$RW_m_ncache_unused$$Base          0x20200000   Number         0  anon$$obj.o ABSOLUTE
    Image$$RW_m_ncache_unused$$ZI$$Limit     0x202c0000   Number         0  anon$$obj.o ABSOLUTE
    qspiflash_config                         0x60000000   Data         512  evkmimxrt1060_flexspi_nor_config.o(.boot_hdr.conf)
    image_vector_table                       0x60001000   Data          32  fsl_flexspi_nor_boot.o(.boot_hdr.ivt)
    boot_data                                0x60001020   Data          16  fsl_flexspi_nor_boot.o(.boot_hdr.boot_data)
    __Vectors                                0x60002000   Number      1024  startup_mimxrt1062.o(.isr_vector)
    __main                                   0x60002401   Thumb Code     0  entry.o(.ARM.Collect$$$$00000000)
